{"contracts/ShapesOfMind.sol":{"ShapesOfMind":{"abi":[{"inputs":[],"stateMutability":"nonpayable","type":"constructor"},{"inputs":[{"internalType":"address","name":"sender","type":"address"},{"internalType":"uint256","name":"tokenId","type":"uint256"},{"internalType":"address","name":"owner","type":"address"}],"name":"ERC721IncorrectOwner","type":"error"},{"inputs":[{"internalType":"address","name":"operator","type":"address"},{"internalType":"uint256","name":"tokenId","type":"uint256"}],"name":"ERC721InsufficientApproval","type":"error"},{"inputs":[{"internalType":"address","name":"approver","type":"address"}],"name":"ERC721InvalidApprover","type":"error"},{"inputs":[{"internalType":"address","name":"operator","type":"address"}],"name":"ERC721InvalidOperator","type":"error"},{"inputs":[{"internalType":"address","name":"owner","type":"address"}],"name":"ERC721InvalidOwner","type":"error"},{"inputs":[{"internalType":"address","name":"receiver","type":"address"}],"name":"ERC721InvalidReceiver","type":"error"},{"inputs":[{"internalType":"address","name":"sender","type":"address"}],"name":"ERC721InvalidSender","type":"error"},{"inputs":[{"internalType":"uint256","name":"tokenId","type":"uint256"}],"name":"ERC721NonexistentToken","type":"error"},{"inputs":[{"internalType":"address","name":"owner","type":"address"}],"name":"OwnableInvalidOwner","type":"error"},{"inputs":[{"internalType":"address","name":"account","type":"address"}],"name":"OwnableUnauthorizedAccount","type":"error"},{"anonymous":false,"inputs":[{"indexed":true,"internalType":"address","name":"owner","type":"address"},{"indexed":true,"internalType":"address","name":"approved","type":"address"},{"indexed":true,"internalType":"uint256","name":"tokenId","type":"uint256"}],"name":"Approval","type":"event"},{"anonymous":false,"inputs":[{"indexed":true,"internalType":"address","name":"owner","type":"address"},{"indexed":true,"internalType":"address","name":"operator","type":"address"},{"indexed":false,"internalType":"bool","name":"approved","type":"bool"}],"name":"ApprovalForAll","type":"event"},{"anonymous":false,"inputs":[{"indexed":false,"internalType":"uint256","name":"_fromTokenId","type":"uint256"},{"indexed":false,"internalType":"uint256","name":"_toTokenId","type":"uint256"}],"name":"BatchMetadataUpdate","type":"event"},{"anonymous":false,"inputs":[{"indexed":true,"internalType":"uint256","name":"tokenId","type":"uint256"},{"indexed":true,"internalType":"address","name":"owner","type":"address"},{"indexed":false,"internalType":"enum ShapesOfMind.Mood","name":"mood","type":"uint8"},{"indexed":false,"internalType":"string","name":"name","type":"string"},{"indexed":false,"internalType":"uint256","name":"timestamp","type":"uint256"}],"name":"FlowerMinted","type":"event"},{"anonymous":false,"inputs":[{"indexed":true,"internalType":"uint256","name":"tokenId","type":"uint256"},{"indexed":false,"internalType":"enum ShapesOfMind.Mood","name":"newMood","type":"uint8"},{"indexed":false,"internalType":"string","name":"newName","type":"string"},{"indexed":false,"internalType":"uint256","name":"timestamp","type":"uint256"}],"name":"FlowerUpdated","type":"event"},{"anonymous":false,"inputs":[{"indexed":false,"internalType":"uint256","name":"_tokenId","type":"uint256"}],"name":"MetadataUpdate","type":"event"},{"anonymous":false,"inputs":[{"indexed":true,"internalType":"address","name":"previousOwner","type":"address"},{"indexed":true,"internalType":"address","name":"newOwner","type":"address"}],"name":"OwnershipTransferred","type":"event"},{"anonymous":false,"inputs":[{"indexed":true,"internalType":"address","name":"from","type":"address"},{"indexed":true,"internalType":"address","name":"to","type":"address"},{"indexed":true,"internalType":"uint256","name":"tokenId","type":"uint256"}],"name":"Transfer","type":"event"},{"inputs":[{"internalType":"address","name":"to","type":"address"},{"internalType":"uint256","name":"tokenId","type":"uint256"}],"name":"approve","outputs":[],"stateMutability":"nonpayable","type":"function"},{"inputs":[{"internalType":"address","name":"owner","type":"address"}],"name":"balanceOf","outputs":[{"internalType":"uint256","name":"","type":"uint256"}],"stateMutability":"view","type":"function"},{"inputs":[{"internalType":"uint256","name":"","type":"uint256"}],"name":"flowerData","outputs":[{"internalType":"enum ShapesOfMind.Mood","name":"mood","type":"uint8"},{"internalType":"uint256","name":"timestamp","type":"uint256"},{"internalType":"string","name":"name","type":"string"},{"internalType":"uint256","name":"petalCount","type":"uint256"},{"internalType":"uint256","name":"colorHue","type":"uint256"},{"internalType":"uint256","name":"saturation","type":"uint256"},{"internalType":"uint256","name":"brightness","type":"uint256"},{"internalType":"bool","name":"isAnimated","type":"bool"}],"stateMutability":"view","type":"function"},{"inputs":[{"internalType":"uint256","name":"tokenId","type":"uint256"}],"name":"getApproved","outputs":[{"internalType":"address","name":"","type":"address"}],"stateMutability":"view","type":"function"},{"inputs":[{"internalType":"uint256","name":"tokenId","type":"uint256"}],"name":"getFlowerData","outputs":[{"components":[{"internalType":"enum ShapesOfMind.Mood","name":"mood","type":"uint8"},{"internalType":"uint256","name":"timestamp","type":"uint256"},{"internalType":"string","name":"name","type":"string"},{"internalType":"uint256","name":"petalCount","type":"uint256"},{"internalType":"uint256","name":"colorHue","type":"uint256"},{"internalType":"uint256","name":"saturation","type":"uint256"},{"internalType":"uint256","name":"brightness","type":"uint256"},{"internalType":"bool","name":"isAnimated","type":"bool"}],"internalType":"struct ShapesOfMind.FlowerData","name":"","type":"tuple"}],"stateMutability":"view","type":"function"},{"inputs":[{"internalType":"address","name":"owner","type":"address"}],"name":"getTokensByOwner","outputs":[{"internalType":"uint256[]","name":"","type":"uint256[]"}],"stateMutability":"view","type":"function"},{"inputs":[{"internalType":"address","name":"owner","type":"address"},{"internalType":"address","name":"operator","type":"address"}],"name":"isApprovedForAll","outputs":[{"internalType":"bool","name":"","type":"bool"}],"stateMutability":"view","type":"function"},{"inputs":[{"internalType":"enum ShapesOfMind.Mood","name":"mood","type":"uint8"},{"internalType":"string","name":"name","type":"string"},{"internalType":"uint256","name":"petalCount","type":"uint256"},{"internalType":"uint256","name":"colorHue","type":"uint256"},{"internalType":"uint256","name":"saturation","type":"uint256"},{"internalType":"uint256","name":"brightness","type":"uint256"},{"internalType":"bool","name":"isAnimated","type":"bool"}],"name":"mintFlower","outputs":[{"internalType":"uint256","name":"","type":"uint256"}],"stateMutability":"nonpayable","type":"function"},{"inputs":[],"name":"name","outputs":[{"internalType":"string","name":"","type":"string"}],"stateMutability":"view","type":"function"},{"inputs":[],"name":"owner","outputs":[{"internalType":"address","name":"","type":"address"}],"stateMutability":"view","type":"function"},{"inputs":[{"internalType":"uint256","name":"tokenId","type":"uint256"}],"name":"ownerOf","outputs":[{"internalType":"address","name":"","type":"address"}],"stateMutability":"view","type":"function"},{"inputs":[],"name":"renounceOwnership","outputs":[],"stateMutability":"nonpayable","type":"function"},{"inputs":[{"internalType":"address","name":"from","type":"address"},{"internalType":"address","name":"to","type":"address"},{"internalType":"uint256","name":"tokenId","type":"uint256"}],"name":"safeTransferFrom","outputs":[],"stateMutability":"nonpayable","type":"function"},{"inputs":[{"internalType":"address","name":"from","type":"address"},{"internalType":"address","name":"to","type":"address"},{"internalType":"uint256","name":"tokenId","type":"uint256"},{"internalType":"bytes","name":"data","type":"bytes"}],"name":"safeTransferFrom","outputs":[],"stateMutability":"nonpayable","type":"function"},{"inputs":[{"internalType":"address","name":"operator","type":"address"},{"internalType":"bool","name":"approved","type":"bool"}],"name":"setApprovalForAll","outputs":[],"stateMutability":"nonpayable","type":"function"},{"inputs":[{"internalType":"bytes4","name":"interfaceId","type":"bytes4"}],"name":"supportsInterface","outputs":[{"internalType":"bool","name":"","type":"bool"}],"stateMutability":"view","type":"function"},{"inputs":[],"name":"symbol","outputs":[{"internalType":"string","name":"","type":"string"}],"stateMutability":"view","type":"function"},{"inputs":[{"internalType":"uint256","name":"tokenId","type":"uint256"}],"name":"tokenURI","outputs":[{"internalType":"string","name":"","type":"string"}],"stateMutability":"view","type":"function"},{"inputs":[{"internalType":"address","name":"from","type":"address"},{"internalType":"address","name":"to","type":"address"},{"internalType":"uint256","name":"tokenId","type":"uint256"}],"name":"transferFrom","outputs":[],"stateMutability":"nonpayable","type":"function"},{"inputs":[{"internalType":"address","name":"newOwner","type":"address"}],"name":"transferOwnership","outputs":[],"stateMutability":"nonpayable","type":"function"},{"inputs":[{"internalType":"uint256","name":"tokenId","type":"uint256"},{"internalType":"enum ShapesOfMind.Mood","name":"newMood","type":"uint8"},{"internalType":"string","name":"newName","type":"string"}],"name":"updateFlower","outputs":[],"stateMutability":"nonpayable","type":"function"},{"inputs":[{"internalType":"address","name":"","type":"address"},{"internalType":"uint256","name":"","type":"uint256"}],"name":"userTokens","outputs":[{"internalType":"uint256","name":"","type":"uint256"}],"stateMutability":"view","type":"function"}],"evm":{"bytecode":{"linkReferences":{},"object":"6080346200037a576001600160401b039060408181018381118382101762000364578152600e82526020916d14da185c195cc81bd988135a5b9960921b8382015281519382850185811082821117620003645783526003855262534f4d60e81b84860152815181811162000364576000948554916001948584811c9416801562000359575b8385101462000345578190601f94858111620002f2575b5083908583116001146200028e57899262000282575b5050600019600383901b1c191690851b1786555b86519283116200026e5783548481811c9116801562000263575b828210146200024f5782811162000207575b5080918311600114620001a057508495829394959262000194575b5050600019600383901b1c191690821b1790555b33156200017c5760078054336001600160a01b03198216811790925591519290916001600160a01b0316907f8be0079c531659141344cd1fd0a4f28419497f9722a3daafe3b4186f6b6457e09080a3612be39081620003808239f35b51631e4fbdf760e01b81526004810191909152602490fd5b0151905038806200010c565b90601f198316968487528287209287905b898210620001ef575050838596979810620001d5575b505050811b01905562000120565b015160001960f88460031b161c19169055388080620001c7565b808785968294968601518155019501930190620001b1565b8487528187208380860160051c82019284871062000245575b0160051c019085905b82811062000239575050620000f1565b88815501859062000229565b9250819262000220565b634e487b7160e01b87526022600452602487fd5b90607f1690620000df565b634e487b7160e01b86526041600452602486fd5b015190503880620000b1565b898052848a208894509190601f1984168b5b87828210620002db5750508411620002c1575b505050811b018655620000c5565b015160001960f88460031b161c19169055388080620002b3565b8385015186558b97909501949384019301620002a0565b9091508880528389208580850160051c8201928686106200033b575b918991869594930160051c01915b8281106200032c5750506200009b565b8b81558594508991016200031c565b925081926200030e565b634e487b7160e01b88526022600452602488fd5b93607f169362000084565b634e487b7160e01b600052604160045260246000fd5b600080fdfe608080604052600436101561001357600080fd5b60003560e01c90816301ffc9a7146113135750806306fdde0314611268578063081812fc1461122a578063083760f114611189578063095ea7b3146110a25780631f68218714610fb057806323b872dd14610f9957806340398d6714610ee557806342842e0e14610eb75780635c2169e914610c455780636352211e14610c1557806370a0823114610bbc578063715018a614610b5f578063776a5a35146104d75780638da5cb5b146104ae57806395d89b41146103cb578063a22cb4651461031d578063b88d4fde146102af578063c87b56dd14610252578063e985e9c5146101fc578063f2fde38b1461016e5763f9f411d81461011157600080fd5b346101695760403660031901126101695761012a61155f565b6001600160a01b03166000908152600a60205260409020805460243591908210156101695760209161015b91611631565b90546040519160031b1c8152f35b600080fd5b346101695760203660031901126101695761018761155f565b61018f612523565b6001600160a01b039081169081156101e357600754826bffffffffffffffffffffffff60a01b821617600755167f8be0079c531659141344cd1fd0a4f28419497f9722a3daafe3b4186f6b6457e0600080a3005b604051631e4fbdf760e01b815260006004820152602490fd5b346101695760403660031901126101695761021561155f565b61021d611575565b9060018060a01b03809116600052600560205260406000209116600052602052602060ff604060002054166040519015158152f35b346101695760203660031901126101695760043561026f8161195f565b5060005260066020526102ab61028860406000206114ad565b600060405161029681611437565b526040519182916020835260208301906113bb565b0390f35b34610169576080366003190112610169576102c861155f565b6102d0611575565b906044356064359267ffffffffffffffff841161016957366023850112156101695761030961031b9436906024816004013591016115dc565b9261031583838361171d565b3361254f565b005b346101695760403660031901126101695761033661155f565b6024359081151590818303610169576001600160a01b03169182156103b2576103849033600052600560205260406000208460005260205260406000209060ff801983541691151516179055565b6040519081527f17307eab39ab6107e8899845ad3d59bd9653f200f220920489ca2b5937696c3160203392a3005b604051630b61174360e31b815260048101849052602490fd5b34610169576000366003190112610169576040516000600182600154926103f1846113e0565b928383526020948560018216918260001461048e575050600114610431575b5061041d9250038361148b565b6102ab6040519282849384528301906113bb565b84915060016000527fb10e2d527612073b26eecdfd717e6a320cf44b4afac2b0732d9fcbe2b7fa0cf6906000915b85831061047657505061041d935082010185610410565b8054838901850152879450869390920191810161045f565b60ff19168582015261041d95151560051b85010192508791506104109050565b34610169576000366003190112610169576007546040516001600160a01b039091168152602090f35b346101695760e036600319011261016957600860043510156101695760243567ffffffffffffffff811161016957610513903690600401611613565b60c435908115158203610169576005604435101580610b52575b15610b0e5761016860643511610ac957606460843511610a8457606460a43511610a3f5761055d815115156118b6565b61056860085461193a565b90816008556040519261057a8461141a565b610586600435856116a2565b602084019042825260408501908382526044356060870152606435608087015260843560a087015260a43560c0870152151560e086015283600052600960205260406000209185516008811015610a29576105e190846118f9565b5160018301555180519067ffffffffffffffff821161094f5761060760028401546113e0565b601f81116109e2575b50602090601f83116001146109705761068a93929160009183610965575b50508160011b916000199060031b1c19161760028201555b606085015160038201556080850151600482015560a0850151600582015560c08501516006820155600760e0860151151591019060ff801983541691151516179055565b33600052600a602052604060002080546801000000000000000081101561094f576106ba91600182018155611631565b9080549160031b600019928386831b921b1916179055604051906106dd82611437565b600082523315610936576000848152600260205260409020546001600160a01b03168015159185919083610900575b503360005260036020526040600020600181540190558160005260026020526040600020336bffffffffffffffffffffffff60a01b82541617905533907fddf252ad1be2c89b69c2b068fc378daa952ba7f163c4a11628f55a4df523b3ef600080a46108e757333b6107cf575b5061078e6107886020946119b1565b836123ad565b817f1ec43df54e14a2fcaea305a683264894f5c3149e635196f2997cfad7e702f133604051806107c43395429060043584611911565b0390a3604051908152f35b60405160208180610809630a85bd0160e11b95868352336004840152600060248401528860448401526080606484015260848301906113bb565b03816000335af1600091816108a2575b50610873573d1561086c573d61082e816115c0565b9061083c604051928361148b565b81523d6000602083013e5b8051908161086757604051633250574960e11b8152336004820152602490fd5b602001fd5b6060610847565b6001600160e01b0319160361088a5761078e610779565b604051633250574960e11b8152336004820152602490fd5b9091506020813d6020116108df575b816108be6020938361148b565b8101031261016957516001600160e01b031981168103610169579086610819565b3d91506108b1565b6040516339e3563760e11b815260006004820152602490fd5b600083815260046020526040902080546001600160a01b031916905581600052600360205260406000209081540190558761070c565b604051633250574960e11b815260006004820152602490fd5b634e487b7160e01b600052604160045260246000fd5b01519050878061062e565b90601f198316916002850160005260206000209260005b8181106109ca575091600193918561068a979694106109b1575b505050811b016002820155610646565b015160001960f88460031b161c191690558780806109a1565b92936020600181928786015181550195019301610987565b600284016000526020600020601f840160051c810160208510610a22575b601f830160051c82018110610a16575050610610565b60008155600101610a00565b5080610a00565b634e487b7160e01b600052602160045260246000fd5b60405162461bcd60e51b815260206004820152601860248201527f4272696768746e657373206d75737420626520302d31303000000000000000006044820152606490fd5b60405162461bcd60e51b815260206004820152601860248201527f53617475726174696f6e206d75737420626520302d31303000000000000000006044820152606490fd5b60405162461bcd60e51b815260206004820152601760248201527f436f6c6f7220687565206d75737420626520302d3336300000000000000000006044820152606490fd5b606460405162461bcd60e51b815260206004820152602060248201527f506574616c20636f756e74206d757374206265206265747765656e20352d31306044820152fd5b50600a604435111561052d565b3461016957600036600319011261016957610b78612523565b600780546001600160a01b031981169091556000906001600160a01b03167f8be0079c531659141344cd1fd0a4f28419497f9722a3daafe3b4186f6b6457e08280a3005b34610169576020366003190112610169576001600160a01b03610bdd61155f565b168015610bfc5760005260036020526020604060002054604051908152f35b6040516322718ad960e21b815260006004820152602490fd5b34610169576020366003190112610169576020610c3360043561195f565b6040516001600160a01b039091168152f35b346101695760603660031901126101695760043560243560088110156101695767ffffffffffffffff60443581811161016957610c86903690600401611613565b9083151580610eab575b610c999061165f565b610ca28461195f565b336001600160a01b0390911603610e6657610cbf825115156118b6565b83600052602060098152604060002091610cd985846118f9565b6002830191845191821161094f57610cf183546113e0565b601f8111610e20575b5080601f8311600114610d8c57507f7f6e084930ffff5ef7b03e5cb05a8eef2fad24b2037997d4c0f8e951e0b4b7f4959493610d6b9383610d6594610d6094600091610d81575b508160011b916000199060031b1c19161790555b4260018201556116ae565b6119b1565b856123ad565b610d7c604051928392429184611911565b0390a2005b90508701518b610d41565b90601f1983168460005282600020926000905b828210610e0857505093600184610d60947f7f6e084930ffff5ef7b03e5cb05a8eef2fad24b2037997d4c0f8e951e0b4b7f49a999894610d6597610d6b9910610def575b5050811b019055610d55565b89015160001960f88460031b161c191690558b80610de3565b80600185968294968c01518155019501930190610d9f565b8360005281600020601f840160051c810191838510610e5c575b601f0160051c01905b818110610e505750610cfa565b60008155600101610e43565b9091508190610e3a565b60405162461bcd60e51b815260206004820152601c60248201527f4e6f7420746865206f776e6572206f66207468697320666c6f776572000000006044820152606490fd5b50600854841115610c90565b346101695761031b610ec83661158b565b9060405192610ed684611437565b6000845261031583838361171d565b3461016957602080600319360112610169576001600160a01b03610f0761155f565b16600052600a8152604060002060405190818382549182815201908192600052846000209060005b86828210610f85578686610f458288038361148b565b604051928392818401908285525180915260408401929160005b828110610f6e57505050500390f35b835185528695509381019392810192600101610f5f565b835485529093019260019283019201610f2f565b346101695761031b610faa3661158b565b9161171d565b346101695760208060031936011261016957600435600060e0604051610fd58161141a565b8281528285820152606060408201528260608201528260808201528260a08201528260c0820152015280151580611096575b6110109061165f565b6000526009815261102460406000206116ae565b9060405191818392835261103b8184018351611552565b8101516040830152604081015160e0611062610100928360608701526101208601906113bb565b9260608101516080860152608081015160a086015260a081015160c086015260c08101518286015201511515908301520390f35b50600854811115611007565b34610169576040366003190112610169576110bb61155f565b6024356110c78161195f565b33151580611176575b80611149575b611131576001600160a01b039283169282918491167f8c5be1e5ebec7d5bd14f71427d1e84f3dd0314c0f7b2291e5b200ac8c7c3b925600080a4600090815260046020526040902080546001600160a01b0319169091179055005b60405163a9fbf51f60e01b8152336004820152602490fd5b5060018060a01b038116600052600560205260406000203360005260205260ff60406000205416156110d6565b506001600160a01b0381163314156110d0565b34610169576020366003190112610169576004356000526009602052604060002060ff815416906001810154906111c2600282016114ad565b600382015491600481015460058201549061120a60ff6007600686015495015416946040519889986111f78a61010093611552565b60208a01528060408a01528801906113bb565b946060870152608086015260a085015260c0840152151560e08301520390f35b34610169576020366003190112610169576004356112478161195f565b506000526004602052602060018060a01b0360406000205416604051908152f35b346101695760003660031901126101695760405160008054908261128b836113e0565b918282526020936001908560018216918260001461048e5750506001146112b9575061041d9250038361148b565b6000808052859250907f290decd9548b62a8d60345a988386fc84ba6bc95484008f6362f93160ef3e5635b8583106112fb57505061041d935082010185610410565b805483890185015287945086939092019181016112e4565b34610169576020366003190112610169576004359063ffffffff60e01b821680920361016957602091632483248360e11b8114908115611355575b5015158152f35b6380ac58cd60e01b811491508115611387575b8115611376575b508361134e565b6301ffc9a760e01b1490508361136f565b635b5e139f60e01b81149150611368565b60005b8381106113ab5750506000910152565b818101518382015260200161139b565b906020916113d481518092818552858086019101611398565b601f01601f1916010190565b90600182811c92168015611410575b60208310146113fa57565b634e487b7160e01b600052602260045260246000fd5b91607f16916113ef565b610100810190811067ffffffffffffffff82111761094f57604052565b6020810190811067ffffffffffffffff82111761094f57604052565b6040810190811067ffffffffffffffff82111761094f57604052565b60e0810190811067ffffffffffffffff82111761094f57604052565b90601f8019910116810190811067ffffffffffffffff82111761094f57604052565b906040519182600082546114c0816113e0565b9081845260209460019160018116908160001461153057506001146114f1575b5050506114ef9250038361148b565b565b600090815285812095935091905b8183106115185750506114ef93508201013880806114e0565b855488840185015294850194879450918301916114ff565b925050506114ef94925060ff191682840152151560051b8201013880806114e0565b906008821015610a295752565b600435906001600160a01b038216820361016957565b602435906001600160a01b038216820361016957565b6060906003190112610169576001600160a01b0390600435828116810361016957916024359081168103610169579060443590565b67ffffffffffffffff811161094f57601f01601f191660200190565b9291926115e8826115c0565b916115f6604051938461148b565b829481845281830111610169578281602093846000960137010152565b9080601f830112156101695781602061162e933591016115dc565b90565b80548210156116495760005260206000200190600090565b634e487b7160e01b600052603260045260246000fd5b1561166657565b60405162461bcd60e51b8152602060048201526014602482015273151bdad95b88191bd95cc81b9bdd08195e1a5cdd60621b6044820152606490fd5b6008821015610a295752565b906040516116bb8161141a565b60e060ff600783956116d083825416866116a2565b600181015460208601526116e6600282016114ad565b60408601526003810154606086015260048101546080860152600581015460a0860152600681015460c08601520154161515910152565b6001600160a01b0391821692909183156109365760009282845282602095600287526040968488882054169687913315158061180d575b509060027fddf252ad1be2c89b69c2b068fc378daa952ba7f163c4a11628f55a4df523b3ef92846117da575b858352600381528b8320805460010190558683525289812080546001600160a01b0319168517905580a416928383036117b95750505050565b6064945051926364283d7b60e01b8452600484015260248301526044820152fd5b600087815260046020526040902080546001600160a01b0319169055848352600381528b83208054600019019055611780565b91939450915080611862575b1561182957859291879138611754565b878688611846576024915190637e27328960e01b82526004820152fd5b604491519063177e802f60e01b82523360048301526024820152fd5b503387148015611887575b806118195750858252600481523385898420541614611819565b5086825260058152878220338352815260ff888320541661186d565b604051906118b082611437565b60008252565b156118bd57565b60405162461bcd60e51b81526020600482015260146024820152734e616d652063616e6e6f7420626520656d70747960601b6044820152606490fd5b906008811015610a295760ff80198354169116179055565b9392916119359061192486604094611552565b6060602087015260608601906113bb565b930152565b60001981146119495760010190565b634e487b7160e01b600052601160045260246000fd5b6000818152600260205260409020546001600160a01b0316908115611982575090565b60249060405190637e27328960e01b82526004820152fd5b906119ad60209282815194859201611398565b0190565b80516008811015610a29576119c59061269d565b60408201519160c081015160ff81029080820460ff14901517156119495760649004611a6260216119f5836129bc565b611a07611a01856129bc565b946129bc565b604051948592602360f81b6020850152611a2a8151809260208888019101611398565b8301611a3f8251809360208885019101611398565b01611a538251809360208785019101611398565b0103600181018452018261148b565b60405190611a6f82611453565b60078252660233030303030360cc1b6020830152606083015191604051611a9581611437565b60008152928015612397576000905b80821061220a57505092611d176121d696936101a061162e9794603d977f3c636972636c652063783d22323030222063793d223230302220723d223330226040519485937f3c73766720786d6c6e733d22687474703a2f2f7777772e77332e6f72672f323060208601527f30302f737667222076696577426f783d223020302034303020343030223e00006040860152651e3232b3399f60d11b605e8601527f3c72616469616c4772616469656e742069643d22666c6f77657247726164696560648601527f6e74222063783d22353025222063793d223530252220723d22353025223e000060848601527f3c73746f70206f66667365743d22302522207374796c653d2273746f702d636f60a2860152633637b91d60e11b60c2860152611bd681518092602060c689019101611398565b840192721db9ba37b816b7b830b1b4ba3c9d189110179f60691b938460c68201527f3c73746f70206f66667365743d223130302522207374796c653d2273746f702d60d98201526531b7b637b91d60d11b60f9820152611c4082518093602060ff85019101611398565b019260ff840152701e17b930b234b0b623b930b234b2b73a1f60791b610112840152661e17b232b3399f60c91b6101238401527f3c636972636c652063783d22323030222063793d223230302220723d2232303061012a8401527f222066696c6c3d2275726c2823666c6f7765724772616469656e7429222f3e0061014a84015261016992611cd88251809360208785019101611398565b019182015270103334b6361e9111a323221b981811179f60791b610189820152651e17b9bb339f60d11b61019a8201520361018081018352019061148b565b604051611d238161146f565b60ba815260208101907f646174613a696d6167652f7376672b786d6c3b6261736536342c50484e325a799384835261216d611ead61016c7f423462577875637a30696148523063446f764c336433647935334d793576636d988960408701527f63764d6a41774d43397a646d636949485a705a58644362336739496a41674d43948560608801527f41304d4441674e444177496a343859326c795932786c49474e34505349794d44968760808201527f416949474e35505349794d44416949484939496a49774d4349675a6d6c736244988960a08301527f306949325a6d4d4441774d434976506a777663335a6e50673d3d0000000000009a8b60c0840152611e2f6060820151612826565b611e3c6080830151612826565b92611e4a60a0840151612826565b9460e0611e5a60c0860151612826565b940151156121e657611fb2604051611e7181611453565b600381526259657360e81b6020820152975b60296040519c8d809c683d913730b6b2911d1160b91b602083015260208151948593019101611398565b8a019361088b60f21b938460298701527f226465736372697074696f6e223a224120756e6971756520666c6f7765722072602b8701526b032b83932b9b2b73a34b733960a51b604b870152611f6183516020850197611f1082605783018b611398565b019166081b5bdbd9088b60ca1b60578401527f22696d616765223a22646174613a696d6167652f7376672b786d6c3b62617365605e840152620d8d0b60ea1b607e8401525180936081840190611398565b019260818401526d2261747472696275746573223a5b60901b60838401527f7b2274726169745f74797065223a224d6f6f64222c2276616c7565223a220000609184015251809360af840190611398565b0162089f4b60ea1b60af8201527f7b2274726169745f74797065223a22506574616c20436f756e74222c2276616c60b2820152633ab2911d60e11b60d282015261200682518093602060d685019101611398565b0191611f4b60f21b928360d68201527f7b2274726169745f74797065223a22436f6c6f7220487565222c2276616c756560d882015261111d60f11b60f882015261205a82518093602060fa85019101611398565b01928260fa8501527f7b2274726169745f74797065223a2253617475726174696f6e222c2276616c7560fc850152826232911d60e91b918261011c87015261011f956120af8251809360208a85019101611398565b01948501527f7b2274726169745f74797065223a224272696768746e657373222c2276616c75610121850152610141840152610144926120f88251809360208785019101611398565b01918201527f7b2274726169745f74797065223a22416e696d61746564222c2276616c756522610146820152611d1160f11b61016682015261214582518093602061016885019101611398565b0161227d60f01b610168820152615d7d60f01b61016a8201520361014c81018352019061148b565b6040519561217a8761146f565b60ba87526020870195865260408701526060860152608085015260a084015260c08301526040519485927f646174613a6170706c69636174696f6e2f6a736f6e3b6261736536342c000000602085015251809285850190611398565b810103601d81018452018261148b565b611fb26040516121f581611453565b60028152614e6f60f01b602082015297611e83565b9093848261016804810204826101680414851517156119495761223a61223583610168048702612a81565b61298f565b9060c89180830183116119495761225961223585610168048902612ac1565b8301928381116119495760019361227f61227961238f94606b9401612826565b91612826565b9361228f87610168048b02612826565b7f222072783d223235222072793d223430222066696c6c3d22000000000000000060405196836122c9899551809260208089019101611398565b8401946c1e32b63634b839b29031bc1e9160991b6020870152602d956122f88251809360208a85019101611398565b019465111031bc9e9160d11b9086015260339461231e8251809360208985019101611398565b01938401528951604b936123388286830160208f01611398565b01907304440e8e4c2dce6ccdee4da7a44e4dee8c2e8ca560631b84830152605f9161236c8251809360208685019101611398565b6b10191818101918181491179f60a11b910191820152039081018452018261148b565b940190611aa4565b634e487b7160e01b600052601260045260246000fd5b91909160009080825260209160068352604081209085519067ffffffffffffffff821161250f576123de83546113e0565b601f81116124cc575b508490601f831160011461244857907ff8e1a15aba9398e019f0b49df1a4fde98ee17ae345cb5f6b5e2c27f5033e8ce796978361243d575b50508160011b916000199060031b1c19161790555b604051908152a1565b01519050388061241f565b9196601f198816848452868420935b8181106124b557509160019391897ff8e1a15aba9398e019f0b49df1a4fde98ee17ae345cb5f6b5e2c27f5033e8ce7999a941061249c575b505050811b019055612434565b015160001960f88460031b161c1916905538808061248f565b929387600181928786015181550195019301612457565b838252858220601f840160051c810191878510612505575b601f0160051c01905b8181106124fa57506123e7565b8281556001016124ed565b90915081906124e4565b634e487b7160e01b81526041600452602490fd5b6007546001600160a01b0316330361253757565b60405163118cdaa760e01b8152336004820152602490fd5b90939192833b612561575b5050505050565b604051630a85bd0160e11b8082526001600160a01b0393841660048301529583166024820152604481019190915260806064820152949216926020929185906125ae9060848301906113bb565b039483816000978189895af1869181612659575b50612623575050503d60001461261a573d6125dc816115c0565b906125ea604051928361148b565b81528093823d92013e5b8251928361261557604051633250574960e11b815260048101849052602490fd5b019050fd5b606092506125f4565b919450915063ffffffff60e01b16036126415750388080808061255a565b60249060405190633250574960e11b82526004820152fd5b9091508481813d8311612696575b612671818361148b565b8101031261269257516001600160e01b0319811681036126925790386125c2565b8680fd5b503d612667565b6008811015610a2957801561280657600181146127e557600281146127be576003811461279b57600481146127765760058114612752576006811461272857600714612706576040516126ef81611453565b60078152662ab735b737bbb760c91b602082015290565b60405161271281611453565b60068152652bb7b73232b960d11b602082015290565b5060405161273581611453565b600d81526c21b7b73a32b6b83630ba34b7b760991b602082015290565b5060405161275f81611453565b60078152662830b9b9b4b7b760c91b602082015290565b5060405161278381611453565b6008815267536572656e69747960c01b602082015290565b506040516127a881611453565b6006815265456e6572677960d01b602082015290565b506040516127cb81611453565b600a8152694d656c616e63686f6c7960b01b602082015290565b506040516127f281611453565b600481526343616c6d60e01b602082015290565b5060405161281381611453565b60038152624a6f7960e81b602082015290565b806000917a184f03e93ff9f4daa797ed6e38ed64bf6a1f01000000000000000080821015612981575b506d04ee2d6d415b85acef810000000080831015612972575b50662386f26fc1000080831015612963575b506305f5e10080831015612954575b5061271080831015612945575b506064821015612935575b600a8092101561292b575b60019081602160018601956128c0876115c0565b966128ce604051988961148b565b8088526128dd601f19916115c0565b01366020890137860101905b6128f5575b5050505090565b600019019083906f181899199a1a9b1b9c1cb0b131b232b360811b8282061a835304918215612926579190826128e9565b6128ee565b91600101916128ac565b91906064600291049101916128a1565b60049193920491019138612896565b60089193920491019138612889565b6010919392049101913861287a565b60209193920491019138612868565b60409350810491503861284f565b908160500291605083050361194957565b605701908160571161194957565b603001908160301161194957565b8015612a6257600081805b612a4e575060206129ff61162e9260018114600014612a38576040516129ec81611453565b60018152600360fc1b8482015294612afe565b926040519381612a188693518092868087019101611398565b8201612a2c82518093868085019101611398565b0103808452018261148b565b604051612a4481611437565b6000815294612afe565b90612a589061193a565b9060041c806129c7565b50604051612a6f81611453565b6002815261030360f41b602082015290565b61016890068015612abb57605a8114612ab55760b48114612aae5761010e14612aa957600090565b600090565b5060001990565b50600090565b50600190565b61016890068015612ab557605a8114612abb5760b48114612ab55761010e14612ae957600090565b60001990565b60001981019190821161194957565b8015612ba357612b6f90612b66600f8216600a811015612b9157612b60612b30612b2a612b52936129ae565b60ff1690565b60405160f89190911b6001600160f81b03191660208201529182906021820190565b03601f19810183528261148b565b93612aef565b9060041c612afe565b612b8b91612b5261162e9291604051948593602085019061199a565b9061199a565b612b60612b30612b2a612b52936129a0565b505061162e6118a356fea264697066735822122025256f9db41003739d551ccd68fb475b767100be8c36b702bae50bd53c05314a64736f6c63430008180033","opcodes":"PUSH1 0x80 CALLVALUE PUSH3 0x37A JUMPI PUSH1 0x1 PUSH1 0x1 PUSH1 0x40 SHL SUB SWAP1 PUSH1 0x40 DUP2 DUP2 ADD DUP4 DUP2 GT DUP4 DUP3 LT OR PUSH3 0x364 JUMPI DUP2 MSTORE PUSH1 0xE DUP3 MSTORE PUSH1 0x20 SWAP2 PUSH14 0x14DA185C195CC81BD988135A5B99 PUSH1 0x92 SHL DUP4 DUP3 ADD MSTORE DUP2 MLOAD SWAP4 DUP3 DUP6 ADD DUP6 DUP2 LT DUP3 DUP3 GT OR PUSH3 0x364 JUMPI DUP4 MSTORE PUSH1 0x3 DUP6 MSTORE PUSH3 0x534F4D PUSH1 0xE8 SHL DUP5 DUP7 ADD MSTORE DUP2 MLOAD DUP2 DUP2 GT PUSH3 0x364 JUMPI PUSH1 0x0 SWAP5 DUP6 SLOAD SWAP2 PUSH1 0x1 SWAP5 DUP6 DUP5 DUP2 SHR SWAP5 AND DUP1 ISZERO PUSH3 0x359 JUMPI JUMPDEST DUP4 DUP6 LT EQ PUSH3 0x345 JUMPI DUP2 SWAP1 PUSH1 0x1F SWAP5 DUP6 DUP2 GT PUSH3 0x2F2 JUMPI JUMPDEST POP DUP4 SWAP1 DUP6 DUP4 GT PUSH1 0x1 EQ PUSH3 0x28E JUMPI DUP10 SWAP3 PUSH3 0x282 JUMPI JUMPDEST POP POP PUSH1 0x0 NOT PUSH1 0x3 DUP4 SWAP1 SHL SHR NOT AND SWAP1 DUP6 SHL OR DUP7 SSTORE JUMPDEST DUP7 MLOAD SWAP3 DUP4 GT PUSH3 0x26E JUMPI DUP4 SLOAD DUP5 DUP2 DUP2 SHR SWAP2 AND DUP1 ISZERO PUSH3 0x263 JUMPI JUMPDEST DUP3 DUP3 LT EQ PUSH3 0x24F JUMPI DUP3 DUP2 GT PUSH3 0x207 JUMPI JUMPDEST POP DUP1 SWAP2 DUP4 GT PUSH1 0x1 EQ PUSH3 0x1A0 JUMPI POP DUP5 SWAP6 DUP3 SWAP4 SWAP5 SWAP6 SWAP3 PUSH3 0x194 JUMPI JUMPDEST POP POP PUSH1 0x0 NOT PUSH1 0x3 DUP4 SWAP1 SHL SHR NOT AND SWAP1 DUP3 SHL OR SWAP1 SSTORE JUMPDEST CALLER ISZERO PUSH3 0x17C JUMPI PUSH1 0x7 DUP1 SLOAD CALLER PUSH1 0x1 PUSH1 0x1 PUSH1 0xA0 SHL SUB NOT DUP3 AND DUP2 OR SWAP1 SWAP3 SSTORE SWAP2 MLOAD SWAP3 SWAP1 SWAP2 PUSH1 0x1 PUSH1 0x1 PUSH1 0xA0 SHL SUB AND SWAP1 PUSH32 0x8BE0079C531659141344CD1FD0A4F28419497F9722A3DAAFE3B4186F6B6457E0 SWAP1 DUP1 LOG3 PUSH2 0x2BE3 SWAP1 DUP2 PUSH3 0x380 DUP3 CODECOPY RETURN JUMPDEST MLOAD PUSH4 0x1E4FBDF7 PUSH1 0xE0 SHL DUP2 MSTORE PUSH1 0x4 DUP2 ADD SWAP2 SWAP1 SWAP2 MSTORE PUSH1 0x24 SWAP1 REVERT JUMPDEST ADD MLOAD SWAP1 POP CODESIZE DUP1 PUSH3 0x10C JUMP JUMPDEST SWAP1 PUSH1 0x1F NOT DUP4 AND SWAP7 DUP5 DUP8 MSTORE DUP3 DUP8 KECCAK256 SWAP3 DUP8 SWAP1 JUMPDEST DUP10 DUP3 LT PUSH3 0x1EF JUMPI POP POP DUP4 DUP6 SWAP7 SWAP8 SWAP9 LT PUSH3 0x1D5 JUMPI JUMPDEST POP POP POP DUP2 SHL ADD SWAP1 SSTORE PUSH3 0x120 JUMP JUMPDEST ADD MLOAD PUSH1 0x0 NOT PUSH1 0xF8 DUP5 PUSH1 0x3 SHL AND SHR NOT AND SWAP1 SSTORE CODESIZE DUP1 DUP1 PUSH3 0x1C7 JUMP JUMPDEST DUP1 DUP8 DUP6 SWAP7 DUP3 SWAP5 SWAP7 DUP7 ADD MLOAD DUP2 SSTORE ADD SWAP6 ADD SWAP4 ADD SWAP1 PUSH3 0x1B1 JUMP JUMPDEST DUP5 DUP8 MSTORE DUP2 DUP8 KECCAK256 DUP4 DUP1 DUP7 ADD PUSH1 0x5 SHR DUP3 ADD SWAP3 DUP5 DUP8 LT PUSH3 0x245 JUMPI JUMPDEST ADD PUSH1 0x5 SHR ADD SWAP1 DUP6 SWAP1 JUMPDEST DUP3 DUP2 LT PUSH3 0x239 JUMPI POP POP PUSH3 0xF1 JUMP JUMPDEST DUP9 DUP2 SSTORE ADD DUP6 SWAP1 PUSH3 0x229 JUMP JUMPDEST SWAP3 POP DUP2 SWAP3 PUSH3 0x220 JUMP JUMPDEST PUSH4 0x4E487B71 PUSH1 0xE0 SHL DUP8 MSTORE PUSH1 0x22 PUSH1 0x4 MSTORE PUSH1 0x24 DUP8 REVERT JUMPDEST SWAP1 PUSH1 0x7F AND SWAP1 PUSH3 0xDF JUMP JUMPDEST PUSH4 0x4E487B71 PUSH1 0xE0 SHL DUP7 MSTORE PUSH1 0x41 PUSH1 0x4 MSTORE PUSH1 0x24 DUP7 REVERT JUMPDEST ADD MLOAD SWAP1 POP CODESIZE DUP1 PUSH3 0xB1 JUMP JUMPDEST DUP10 DUP1 MSTORE DUP5 DUP11 KECCAK256 DUP9 SWAP5 POP SWAP2 SWAP1 PUSH1 0x1F NOT DUP5 AND DUP12 JUMPDEST DUP8 DUP3 DUP3 LT PUSH3 0x2DB JUMPI POP POP DUP5 GT PUSH3 0x2C1 JUMPI JUMPDEST POP POP POP DUP2 SHL ADD DUP7 SSTORE PUSH3 0xC5 JUMP JUMPDEST ADD MLOAD PUSH1 0x0 NOT PUSH1 0xF8 DUP5 PUSH1 0x3 SHL AND SHR NOT AND SWAP1 SSTORE CODESIZE DUP1 DUP1 PUSH3 0x2B3 JUMP JUMPDEST DUP4 DUP6 ADD MLOAD DUP7 SSTORE DUP12 SWAP8 SWAP1 SWAP6 ADD SWAP5 SWAP4 DUP5 ADD SWAP4 ADD PUSH3 0x2A0 JUMP JUMPDEST SWAP1 SWAP2 POP DUP9 DUP1 MSTORE DUP4 DUP10 KECCAK256 DUP6 DUP1 DUP6 ADD PUSH1 0x5 SHR DUP3 ADD SWAP3 DUP7 DUP7 LT PUSH3 0x33B JUMPI JUMPDEST SWAP2 DUP10 SWAP2 DUP7 SWAP6 SWAP5 SWAP4 ADD PUSH1 0x5 SHR ADD SWAP2 JUMPDEST DUP3 DUP2 LT PUSH3 0x32C JUMPI POP POP PUSH3 0x9B JUMP JUMPDEST DUP12 DUP2 SSTORE DUP6 SWAP5 POP DUP10 SWAP2 ADD PUSH3 0x31C JUMP JUMPDEST SWAP3 POP DUP2 SWAP3 PUSH3 0x30E JUMP JUMPDEST PUSH4 0x4E487B71 PUSH1 0xE0 SHL DUP9 MSTORE PUSH1 0x22 PUSH1 0x4 MSTORE PUSH1 0x24 DUP9 REVERT JUMPDEST SWAP4 PUSH1 0x7F AND SWAP4 PUSH3 0x84 JUMP JUMPDEST PUSH4 0x4E487B71 PUSH1 0xE0 SHL PUSH1 0x0 MSTORE PUSH1 0x41 PUSH1 0x4 MSTORE PUSH1 0x24 PUSH1 0x0 REVERT JUMPDEST PUSH1 0x0 DUP1 REVERT INVALID PUSH1 0x80 DUP1 PUSH1 0x40 MSTORE PUSH1 0x4 CALLDATASIZE LT ISZERO PUSH2 0x13 JUMPI PUSH1 0x0 DUP1 REVERT JUMPDEST PUSH1 0x0 CALLDATALOAD PUSH1 0xE0 SHR SWAP1 DUP2 PUSH4 0x1FFC9A7 EQ PUSH2 0x1313 JUMPI POP DUP1 PUSH4 0x6FDDE03 EQ PUSH2 0x1268 JUMPI DUP1 PUSH4 0x81812FC EQ PUSH2 0x122A JUMPI DUP1 PUSH4 0x83760F1 EQ PUSH2 0x1189 JUMPI DUP1 PUSH4 0x95EA7B3 EQ PUSH2 0x10A2 JUMPI DUP1 PUSH4 0x1F682187 EQ PUSH2 0xFB0 JUMPI DUP1 PUSH4 0x23B872DD EQ PUSH2 0xF99 JUMPI DUP1 PUSH4 0x40398D67 EQ PUSH2 0xEE5 JUMPI DUP1 PUSH4 0x42842E0E EQ PUSH2 0xEB7 JUMPI DUP1 PUSH4 0x5C2169E9 EQ PUSH2 0xC45 JUMPI DUP1 PUSH4 0x6352211E EQ PUSH2 0xC15 JUMPI DUP1 PUSH4 0x70A08231 EQ PUSH2 0xBBC JUMPI DUP1 PUSH4 0x715018A6 EQ PUSH2 0xB5F JUMPI DUP1 PUSH4 0x776A5A35 EQ PUSH2 0x4D7 JUMPI DUP1 PUSH4 0x8DA5CB5B EQ PUSH2 0x4AE JUMPI DUP1 PUSH4 0x95D89B41 EQ PUSH2 0x3CB JUMPI DUP1 PUSH4 0xA22CB465 EQ PUSH2 0x31D JUMPI DUP1 PUSH4 0xB88D4FDE EQ PUSH2 0x2AF JUMPI DUP1 PUSH4 0xC87B56DD EQ PUSH2 0x252 JUMPI DUP1 PUSH4 0xE985E9C5 EQ PUSH2 0x1FC JUMPI DUP1 PUSH4 0xF2FDE38B EQ PUSH2 0x16E JUMPI PUSH4 0xF9F411D8 EQ PUSH2 0x111 JUMPI PUSH1 0x0 DUP1 REVERT JUMPDEST CALLVALUE PUSH2 0x169 JUMPI PUSH1 0x40 CALLDATASIZE PUSH1 0x3 NOT ADD SLT PUSH2 0x169 JUMPI PUSH2 0x12A PUSH2 0x155F JUMP JUMPDEST PUSH1 0x1 PUSH1 0x1 PUSH1 0xA0 SHL SUB AND PUSH1 0x0 SWAP1 DUP2 MSTORE PUSH1 0xA PUSH1 0x20 MSTORE PUSH1 0x40 SWAP1 KECCAK256 DUP1 SLOAD PUSH1 0x24 CALLDATALOAD SWAP2 SWAP1 DUP3 LT ISZERO PUSH2 0x169 JUMPI PUSH1 0x20 SWAP2 PUSH2 0x15B SWAP2 PUSH2 0x1631 JUMP JUMPDEST SWAP1 SLOAD PUSH1 0x40 MLOAD SWAP2 PUSH1 0x3 SHL SHR DUP2 MSTORE RETURN JUMPDEST PUSH1 0x0 DUP1 REVERT JUMPDEST CALLVALUE PUSH2 0x169 JUMPI PUSH1 0x20 CALLDATASIZE PUSH1 0x3 NOT ADD SLT PUSH2 0x169 JUMPI PUSH2 0x187 PUSH2 0x155F JUMP JUMPDEST PUSH2 0x18F PUSH2 0x2523 JUMP JUMPDEST PUSH1 0x1 PUSH1 0x1 PUSH1 0xA0 SHL SUB SWAP1 DUP2 AND SWAP1 DUP2 ISZERO PUSH2 0x1E3 JUMPI PUSH1 0x7 SLOAD DUP3 PUSH12 0xFFFFFFFFFFFFFFFFFFFFFFFF PUSH1 0xA0 SHL DUP3 AND OR PUSH1 0x7 SSTORE AND PUSH32 0x8BE0079C531659141344CD1FD0A4F28419497F9722A3DAAFE3B4186F6B6457E0 PUSH1 0x0 DUP1 LOG3 STOP JUMPDEST PUSH1 0x40 MLOAD PUSH4 0x1E4FBDF7 PUSH1 0xE0 SHL DUP2 MSTORE PUSH1 0x0 PUSH1 0x4 DUP3 ADD MSTORE PUSH1 0x24 SWAP1 REVERT JUMPDEST CALLVALUE PUSH2 0x169 JUMPI PUSH1 0x40 CALLDATASIZE PUSH1 0x3 NOT ADD SLT PUSH2 0x169 JUMPI PUSH2 0x215 PUSH2 0x155F JUMP JUMPDEST PUSH2 0x21D PUSH2 0x1575 JUMP JUMPDEST SWAP1 PUSH1 0x1 DUP1 PUSH1 0xA0 SHL SUB DUP1 SWAP2 AND PUSH1 0x0 MSTORE PUSH1 0x5 PUSH1 0x20 MSTORE PUSH1 0x40 PUSH1 0x0 KECCAK256 SWAP2 AND PUSH1 0x0 MSTORE PUSH1 0x20 MSTORE PUSH1 0x20 PUSH1 0xFF PUSH1 0x40 PUSH1 0x0 KECCAK256 SLOAD AND PUSH1 0x40 MLOAD SWAP1 ISZERO ISZERO DUP2 MSTORE RETURN JUMPDEST CALLVALUE PUSH2 0x169 JUMPI PUSH1 0x20 CALLDATASIZE PUSH1 0x3 NOT ADD SLT PUSH2 0x169 JUMPI PUSH1 0x4 CALLDATALOAD PUSH2 0x26F DUP2 PUSH2 0x195F JUMP JUMPDEST POP PUSH1 0x0 MSTORE PUSH1 0x6 PUSH1 0x20 MSTORE PUSH2 0x2AB PUSH2 0x288 PUSH1 0x40 PUSH1 0x0 KECCAK256 PUSH2 0x14AD JUMP JUMPDEST PUSH1 0x0 PUSH1 0x40 MLOAD PUSH2 0x296 DUP2 PUSH2 0x1437 JUMP JUMPDEST MSTORE PUSH1 0x40 MLOAD SWAP2 DUP3 SWAP2 PUSH1 0x20 DUP4 MSTORE PUSH1 0x20 DUP4 ADD SWAP1 PUSH2 0x13BB JUMP JUMPDEST SUB SWAP1 RETURN JUMPDEST CALLVALUE PUSH2 0x169 JUMPI PUSH1 0x80 CALLDATASIZE PUSH1 0x3 NOT ADD SLT PUSH2 0x169 JUMPI PUSH2 0x2C8 PUSH2 0x155F JUMP JUMPDEST PUSH2 0x2D0 PUSH2 0x1575 JUMP JUMPDEST SWAP1 PUSH1 0x44 CALLDATALOAD PUSH1 0x64 CALLDATALOAD SWAP3 PUSH8 0xFFFFFFFFFFFFFFFF DUP5 GT PUSH2 0x169 JUMPI CALLDATASIZE PUSH1 0x23 DUP6 ADD SLT ISZERO PUSH2 0x169 JUMPI PUSH2 0x309 PUSH2 0x31B SWAP5 CALLDATASIZE SWAP1 PUSH1 0x24 DUP2 PUSH1 0x4 ADD CALLDATALOAD SWAP2 ADD PUSH2 0x15DC JUMP JUMPDEST SWAP3 PUSH2 0x315 DUP4 DUP4 DUP4 PUSH2 0x171D JUMP JUMPDEST CALLER PUSH2 0x254F JUMP JUMPDEST STOP JUMPDEST CALLVALUE PUSH2 0x169 JUMPI PUSH1 0x40 CALLDATASIZE PUSH1 0x3 NOT ADD SLT PUSH2 0x169 JUMPI PUSH2 0x336 PUSH2 0x155F JUMP JUMPDEST PUSH1 0x24 CALLDATALOAD SWAP1 DUP2 ISZERO ISZERO SWAP1 DUP2 DUP4 SUB PUSH2 0x169 JUMPI PUSH1 0x1 PUSH1 0x1 PUSH1 0xA0 SHL SUB AND SWAP2 DUP3 ISZERO PUSH2 0x3B2 JUMPI PUSH2 0x384 SWAP1 CALLER PUSH1 0x0 MSTORE PUSH1 0x5 PUSH1 0x20 MSTORE PUSH1 0x40 PUSH1 0x0 KECCAK256 DUP5 PUSH1 0x0 MSTORE PUSH1 0x20 MSTORE PUSH1 0x40 PUSH1 0x0 KECCAK256 SWAP1 PUSH1 0xFF DUP1 NOT DUP4 SLOAD AND SWAP2 ISZERO ISZERO AND OR SWAP1 SSTORE JUMP JUMPDEST PUSH1 0x40 MLOAD SWAP1 DUP2 MSTORE PUSH32 0x17307EAB39AB6107E8899845AD3D59BD9653F200F220920489CA2B5937696C31 PUSH1 0x20 CALLER SWAP3 LOG3 STOP JUMPDEST PUSH1 0x40 MLOAD PUSH4 0xB611743 PUSH1 0xE3 SHL DUP2 MSTORE PUSH1 0x4 DUP2 ADD DUP5 SWAP1 MSTORE PUSH1 0x24 SWAP1 REVERT JUMPDEST CALLVALUE PUSH2 0x169 JUMPI PUSH1 0x0 CALLDATASIZE PUSH1 0x3 NOT ADD SLT PUSH2 0x169 JUMPI PUSH1 0x40 MLOAD PUSH1 0x0 PUSH1 0x1 DUP3 PUSH1 0x1 SLOAD SWAP3 PUSH2 0x3F1 DUP5 PUSH2 0x13E0 JUMP JUMPDEST SWAP3 DUP4 DUP4 MSTORE PUSH1 0x20 SWAP5 DUP6 PUSH1 0x1 DUP3 AND SWAP2 DUP3 PUSH1 0x0 EQ PUSH2 0x48E JUMPI POP POP PUSH1 0x1 EQ PUSH2 0x431 JUMPI JUMPDEST POP PUSH2 0x41D SWAP3 POP SUB DUP4 PUSH2 0x148B JUMP JUMPDEST PUSH2 0x2AB PUSH1 0x40 MLOAD SWAP3 DUP3 DUP5 SWAP4 DUP5 MSTORE DUP4 ADD SWAP1 PUSH2 0x13BB JUMP JUMPDEST DUP5 SWAP2 POP PUSH1 0x1 PUSH1 0x0 MSTORE PUSH32 0xB10E2D527612073B26EECDFD717E6A320CF44B4AFAC2B0732D9FCBE2B7FA0CF6 SWAP1 PUSH1 0x0 SWAP2 JUMPDEST DUP6 DUP4 LT PUSH2 0x476 JUMPI POP POP PUSH2 0x41D SWAP4 POP DUP3 ADD ADD DUP6 PUSH2 0x410 JUMP JUMPDEST DUP1 SLOAD DUP4 DUP10 ADD DUP6 ADD MSTORE DUP8 SWAP5 POP DUP7 SWAP4 SWAP1 SWAP3 ADD SWAP2 DUP2 ADD PUSH2 0x45F JUMP JUMPDEST PUSH1 0xFF NOT AND DUP6 DUP3 ADD MSTORE PUSH2 0x41D SWAP6 ISZERO ISZERO PUSH1 0x5 SHL DUP6 ADD ADD SWAP3 POP DUP8 SWAP2 POP PUSH2 0x410 SWAP1 POP JUMP JUMPDEST CALLVALUE PUSH2 0x169 JUMPI PUSH1 0x0 CALLDATASIZE PUSH1 0x3 NOT ADD SLT PUSH2 0x169 JUMPI PUSH1 0x7 SLOAD PUSH1 0x40 MLOAD PUSH1 0x1 PUSH1 0x1 PUSH1 0xA0 SHL SUB SWAP1 SWAP2 AND DUP2 MSTORE PUSH1 0x20 SWAP1 RETURN JUMPDEST CALLVALUE PUSH2 0x169 JUMPI PUSH1 0xE0 CALLDATASIZE PUSH1 0x3 NOT ADD SLT PUSH2 0x169 JUMPI PUSH1 0x8 PUSH1 0x4 CALLDATALOAD LT ISZERO PUSH2 0x169 JUMPI PUSH1 0x24 CALLDATALOAD PUSH8 0xFFFFFFFFFFFFFFFF DUP2 GT PUSH2 0x169 JUMPI PUSH2 0x513 SWAP1 CALLDATASIZE SWAP1 PUSH1 0x4 ADD PUSH2 0x1613 JUMP JUMPDEST PUSH1 0xC4 CALLDATALOAD SWAP1 DUP2 ISZERO ISZERO DUP3 SUB PUSH2 0x169 JUMPI PUSH1 0x5 PUSH1 0x44 CALLDATALOAD LT ISZERO DUP1 PUSH2 0xB52 JUMPI JUMPDEST ISZERO PUSH2 0xB0E JUMPI PUSH2 0x168 PUSH1 0x64 CALLDATALOAD GT PUSH2 0xAC9 JUMPI PUSH1 0x64 PUSH1 0x84 CALLDATALOAD GT PUSH2 0xA84 JUMPI PUSH1 0x64 PUSH1 0xA4 CALLDATALOAD GT PUSH2 0xA3F JUMPI PUSH2 0x55D DUP2 MLOAD ISZERO ISZERO PUSH2 0x18B6 JUMP JUMPDEST PUSH2 0x568 PUSH1 0x8 SLOAD PUSH2 0x193A JUMP JUMPDEST SWAP1 DUP2 PUSH1 0x8 SSTORE PUSH1 0x40 MLOAD SWAP3 PUSH2 0x57A DUP5 PUSH2 0x141A JUMP JUMPDEST PUSH2 0x586 PUSH1 0x4 CALLDATALOAD DUP6 PUSH2 0x16A2 JUMP JUMPDEST PUSH1 0x20 DUP5 ADD SWAP1 TIMESTAMP DUP3 MSTORE PUSH1 0x40 DUP6 ADD SWAP1 DUP4 DUP3 MSTORE PUSH1 0x44 CALLDATALOAD PUSH1 0x60 DUP8 ADD MSTORE PUSH1 0x64 CALLDATALOAD PUSH1 0x80 DUP8 ADD MSTORE PUSH1 0x84 CALLDATALOAD PUSH1 0xA0 DUP8 ADD MSTORE PUSH1 0xA4 CALLDATALOAD PUSH1 0xC0 DUP8 ADD MSTORE ISZERO ISZERO PUSH1 0xE0 DUP7 ADD MSTORE DUP4 PUSH1 0x0 MSTORE PUSH1 0x9 PUSH1 0x20 MSTORE PUSH1 0x40 PUSH1 0x0 KECCAK256 SWAP2 DUP6 MLOAD PUSH1 0x8 DUP2 LT ISZERO PUSH2 0xA29 JUMPI PUSH2 0x5E1 SWAP1 DUP5 PUSH2 0x18F9 JUMP JUMPDEST MLOAD PUSH1 0x1 DUP4 ADD SSTORE MLOAD DUP1 MLOAD SWAP1 PUSH8 0xFFFFFFFFFFFFFFFF DUP3 GT PUSH2 0x94F JUMPI PUSH2 0x607 PUSH1 0x2 DUP5 ADD SLOAD PUSH2 0x13E0 JUMP JUMPDEST PUSH1 0x1F DUP2 GT PUSH2 0x9E2 JUMPI JUMPDEST POP PUSH1 0x20 SWAP1 PUSH1 0x1F DUP4 GT PUSH1 0x1 EQ PUSH2 0x970 JUMPI PUSH2 0x68A SWAP4 SWAP3 SWAP2 PUSH1 0x0 SWAP2 DUP4 PUSH2 0x965 JUMPI JUMPDEST POP POP DUP2 PUSH1 0x1 SHL SWAP2 PUSH1 0x0 NOT SWAP1 PUSH1 0x3 SHL SHR NOT AND OR PUSH1 0x2 DUP3 ADD SSTORE JUMPDEST PUSH1 0x60 DUP6 ADD MLOAD PUSH1 0x3 DUP3 ADD SSTORE PUSH1 0x80 DUP6 ADD MLOAD PUSH1 0x4 DUP3 ADD SSTORE PUSH1 0xA0 DUP6 ADD MLOAD PUSH1 0x5 DUP3 ADD SSTORE PUSH1 0xC0 DUP6 ADD MLOAD PUSH1 0x6 DUP3 ADD SSTORE PUSH1 0x7 PUSH1 0xE0 DUP7 ADD MLOAD ISZERO ISZERO SWAP2 ADD SWAP1 PUSH1 0xFF DUP1 NOT DUP4 SLOAD AND SWAP2 ISZERO ISZERO AND OR SWAP1 SSTORE JUMP JUMPDEST CALLER PUSH1 0x0 MSTORE PUSH1 0xA PUSH1 0x20 MSTORE PUSH1 0x40 PUSH1 0x0 KECCAK256 DUP1 SLOAD PUSH9 0x10000000000000000 DUP2 LT ISZERO PUSH2 0x94F JUMPI PUSH2 0x6BA SWAP2 PUSH1 0x1 DUP3 ADD DUP2 SSTORE PUSH2 0x1631 JUMP JUMPDEST SWAP1 DUP1 SLOAD SWAP2 PUSH1 0x3 SHL PUSH1 0x0 NOT SWAP3 DUP4 DUP7 DUP4 SHL SWAP3 SHL NOT AND OR SWAP1 SSTORE PUSH1 0x40 MLOAD SWAP1 PUSH2 0x6DD DUP3 PUSH2 0x1437 JUMP JUMPDEST PUSH1 0x0 DUP3 MSTORE CALLER ISZERO PUSH2 0x936 JUMPI PUSH1 0x0 DUP5 DUP2 MSTORE PUSH1 0x2 PUSH1 0x20 MSTORE PUSH1 0x40 SWAP1 KECCAK256 SLOAD PUSH1 0x1 PUSH1 0x1 PUSH1 0xA0 SHL SUB AND DUP1 ISZERO ISZERO SWAP2 DUP6 SWAP2 SWAP1 DUP4 PUSH2 0x900 JUMPI JUMPDEST POP CALLER PUSH1 0x0 MSTORE PUSH1 0x3 PUSH1 0x20 MSTORE PUSH1 0x40 PUSH1 0x0 KECCAK256 PUSH1 0x1 DUP2 SLOAD ADD SWAP1 SSTORE DUP2 PUSH1 0x0 MSTORE PUSH1 0x2 PUSH1 0x20 MSTORE PUSH1 0x40 PUSH1 0x0 KECCAK256 CALLER PUSH12 0xFFFFFFFFFFFFFFFFFFFFFFFF PUSH1 0xA0 SHL DUP3 SLOAD AND OR SWAP1 SSTORE CALLER SWAP1 PUSH32 0xDDF252AD1BE2C89B69C2B068FC378DAA952BA7F163C4A11628F55A4DF523B3EF PUSH1 0x0 DUP1 LOG4 PUSH2 0x8E7 JUMPI CALLER EXTCODESIZE PUSH2 0x7CF JUMPI JUMPDEST POP PUSH2 0x78E PUSH2 0x788 PUSH1 0x20 SWAP5 PUSH2 0x19B1 JUMP JUMPDEST DUP4 PUSH2 0x23AD JUMP JUMPDEST DUP2 PUSH32 0x1EC43DF54E14A2FCAEA305A683264894F5C3149E635196F2997CFAD7E702F133 PUSH1 0x40 MLOAD DUP1 PUSH2 0x7C4 CALLER SWAP6 TIMESTAMP SWAP1 PUSH1 0x4 CALLDATALOAD DUP5 PUSH2 0x1911 JUMP JUMPDEST SUB SWAP1 LOG3 PUSH1 0x40 MLOAD SWAP1 DUP2 MSTORE RETURN JUMPDEST PUSH1 0x40 MLOAD PUSH1 0x20 DUP2 DUP1 PUSH2 0x809 PUSH4 0xA85BD01 PUSH1 0xE1 SHL SWAP6 DUP7 DUP4 MSTORE CALLER PUSH1 0x4 DUP5 ADD MSTORE PUSH1 0x0 PUSH1 0x24 DUP5 ADD MSTORE DUP9 PUSH1 0x44 DUP5 ADD MSTORE PUSH1 0x80 PUSH1 0x64 DUP5 ADD MSTORE PUSH1 0x84 DUP4 ADD SWAP1 PUSH2 0x13BB JUMP JUMPDEST SUB DUP2 PUSH1 0x0 CALLER GAS CALL PUSH1 0x0 SWAP2 DUP2 PUSH2 0x8A2 JUMPI JUMPDEST POP PUSH2 0x873 JUMPI RETURNDATASIZE ISZERO PUSH2 0x86C JUMPI RETURNDATASIZE PUSH2 0x82E DUP2 PUSH2 0x15C0 JUMP JUMPDEST SWAP1 PUSH2 0x83C PUSH1 0x40 MLOAD SWAP3 DUP4 PUSH2 0x148B JUMP JUMPDEST DUP2 MSTORE RETURNDATASIZE PUSH1 0x0 PUSH1 0x20 DUP4 ADD RETURNDATACOPY JUMPDEST DUP1 MLOAD SWAP1 DUP2 PUSH2 0x867 JUMPI PUSH1 0x40 MLOAD PUSH4 0x32505749 PUSH1 0xE1 SHL DUP2 MSTORE CALLER PUSH1 0x4 DUP3 ADD MSTORE PUSH1 0x24 SWAP1 REVERT JUMPDEST PUSH1 0x20 ADD REVERT JUMPDEST PUSH1 0x60 PUSH2 0x847 JUMP JUMPDEST PUSH1 0x1 PUSH1 0x1 PUSH1 0xE0 SHL SUB NOT AND SUB PUSH2 0x88A JUMPI PUSH2 0x78E PUSH2 0x779 JUMP JUMPDEST PUSH1 0x40 MLOAD PUSH4 0x32505749 PUSH1 0xE1 SHL DUP2 MSTORE CALLER PUSH1 0x4 DUP3 ADD MSTORE PUSH1 0x24 SWAP1 REVERT JUMPDEST SWAP1 SWAP2 POP PUSH1 0x20 DUP2 RETURNDATASIZE PUSH1 0x20 GT PUSH2 0x8DF JUMPI JUMPDEST DUP2 PUSH2 0x8BE PUSH1 0x20 SWAP4 DUP4 PUSH2 0x148B JUMP JUMPDEST DUP2 ADD SUB SLT PUSH2 0x169 JUMPI MLOAD PUSH1 0x1 PUSH1 0x1 PUSH1 0xE0 SHL SUB NOT DUP2 AND DUP2 SUB PUSH2 0x169 JUMPI SWAP1 DUP7 PUSH2 0x819 JUMP JUMPDEST RETURNDATASIZE SWAP2 POP PUSH2 0x8B1 JUMP JUMPDEST PUSH1 0x40 MLOAD PUSH4 0x39E35637 PUSH1 0xE1 SHL DUP2 MSTORE PUSH1 0x0 PUSH1 0x4 DUP3 ADD MSTORE PUSH1 0x24 SWAP1 REVERT JUMPDEST PUSH1 0x0 DUP4 DUP2 MSTORE PUSH1 0x4 PUSH1 0x20 MSTORE PUSH1 0x40 SWAP1 KECCAK256 DUP1 SLOAD PUSH1 0x1 PUSH1 0x1 PUSH1 0xA0 SHL SUB NOT AND SWAP1 SSTORE DUP2 PUSH1 0x0 MSTORE PUSH1 0x3 PUSH1 0x20 MSTORE PUSH1 0x40 PUSH1 0x0 KECCAK256 SWAP1 DUP2 SLOAD ADD SWAP1 SSTORE DUP8 PUSH2 0x70C JUMP JUMPDEST PUSH1 0x40 MLOAD PUSH4 0x32505749 PUSH1 0xE1 SHL DUP2 MSTORE PUSH1 0x0 PUSH1 0x4 DUP3 ADD MSTORE PUSH1 0x24 SWAP1 REVERT JUMPDEST PUSH4 0x4E487B71 PUSH1 0xE0 SHL PUSH1 0x0 MSTORE PUSH1 0x41 PUSH1 0x4 MSTORE PUSH1 0x24 PUSH1 0x0 REVERT JUMPDEST ADD MLOAD SWAP1 POP DUP8 DUP1 PUSH2 0x62E JUMP JUMPDEST SWAP1 PUSH1 0x1F NOT DUP4 AND SWAP2 PUSH1 0x2 DUP6 ADD PUSH1 0x0 MSTORE PUSH1 0x20 PUSH1 0x0 KECCAK256 SWAP3 PUSH1 0x0 JUMPDEST DUP2 DUP2 LT PUSH2 0x9CA JUMPI POP SWAP2 PUSH1 0x1 SWAP4 SWAP2 DUP6 PUSH2 0x68A SWAP8 SWAP7 SWAP5 LT PUSH2 0x9B1 JUMPI JUMPDEST POP POP POP DUP2 SHL ADD PUSH1 0x2 DUP3 ADD SSTORE PUSH2 0x646 JUMP JUMPDEST ADD MLOAD PUSH1 0x0 NOT PUSH1 0xF8 DUP5 PUSH1 0x3 SHL AND SHR NOT AND SWAP1 SSTORE DUP8 DUP1 DUP1 PUSH2 0x9A1 JUMP JUMPDEST SWAP3 SWAP4 PUSH1 0x20 PUSH1 0x1 DUP2 SWAP3 DUP8 DUP7 ADD MLOAD DUP2 SSTORE ADD SWAP6 ADD SWAP4 ADD PUSH2 0x987 JUMP JUMPDEST PUSH1 0x2 DUP5 ADD PUSH1 0x0 MSTORE PUSH1 0x20 PUSH1 0x0 KECCAK256 PUSH1 0x1F DUP5 ADD PUSH1 0x5 SHR DUP2 ADD PUSH1 0x20 DUP6 LT PUSH2 0xA22 JUMPI JUMPDEST PUSH1 0x1F DUP4 ADD PUSH1 0x5 SHR DUP3 ADD DUP2 LT PUSH2 0xA16 JUMPI POP POP PUSH2 0x610 JUMP JUMPDEST PUSH1 0x0 DUP2 SSTORE PUSH1 0x1 ADD PUSH2 0xA00 JUMP JUMPDEST POP DUP1 PUSH2 0xA00 JUMP JUMPDEST PUSH4 0x4E487B71 PUSH1 0xE0 SHL PUSH1 0x0 MSTORE PUSH1 0x21 PUSH1 0x4 MSTORE PUSH1 0x24 PUSH1 0x0 REVERT JUMPDEST PUSH1 0x40 MLOAD PUSH3 0x461BCD PUSH1 0xE5 SHL DUP2 MSTORE PUSH1 0x20 PUSH1 0x4 DUP3 ADD MSTORE PUSH1 0x18 PUSH1 0x24 DUP3 ADD MSTORE PUSH32 0x4272696768746E657373206D75737420626520302D3130300000000000000000 PUSH1 0x44 DUP3 ADD MSTORE PUSH1 0x64 SWAP1 REVERT JUMPDEST PUSH1 0x40 MLOAD PUSH3 0x461BCD PUSH1 0xE5 SHL DUP2 MSTORE PUSH1 0x20 PUSH1 0x4 DUP3 ADD MSTORE PUSH1 0x18 PUSH1 0x24 DUP3 ADD MSTORE PUSH32 0x53617475726174696F6E206D75737420626520302D3130300000000000000000 PUSH1 0x44 DUP3 ADD MSTORE PUSH1 0x64 SWAP1 REVERT JUMPDEST PUSH1 0x40 MLOAD PUSH3 0x461BCD PUSH1 0xE5 SHL DUP2 MSTORE PUSH1 0x20 PUSH1 0x4 DUP3 ADD MSTORE PUSH1 0x17 PUSH1 0x24 DUP3 ADD MSTORE PUSH32 0x436F6C6F7220687565206D75737420626520302D333630000000000000000000 PUSH1 0x44 DUP3 ADD MSTORE PUSH1 0x64 SWAP1 REVERT JUMPDEST PUSH1 0x64 PUSH1 0x40 MLOAD PUSH3 0x461BCD PUSH1 0xE5 SHL DUP2 MSTORE PUSH1 0x20 PUSH1 0x4 DUP3 ADD MSTORE PUSH1 0x20 PUSH1 0x24 DUP3 ADD MSTORE PUSH32 0x506574616C20636F756E74206D757374206265206265747765656E20352D3130 PUSH1 0x44 DUP3 ADD MSTORE REVERT JUMPDEST POP PUSH1 0xA PUSH1 0x44 CALLDATALOAD GT ISZERO PUSH2 0x52D JUMP JUMPDEST CALLVALUE PUSH2 0x169 JUMPI PUSH1 0x0 CALLDATASIZE PUSH1 0x3 NOT ADD SLT PUSH2 0x169 JUMPI PUSH2 0xB78 PUSH2 0x2523 JUMP JUMPDEST PUSH1 0x7 DUP1 SLOAD PUSH1 0x1 PUSH1 0x1 PUSH1 0xA0 SHL SUB NOT DUP2 AND SWAP1 SWAP2 SSTORE PUSH1 0x0 SWAP1 PUSH1 0x1 PUSH1 0x1 PUSH1 0xA0 SHL SUB AND PUSH32 0x8BE0079C531659141344CD1FD0A4F28419497F9722A3DAAFE3B4186F6B6457E0 DUP3 DUP1 LOG3 STOP JUMPDEST CALLVALUE PUSH2 0x169 JUMPI PUSH1 0x20 CALLDATASIZE PUSH1 0x3 NOT ADD SLT PUSH2 0x169 JUMPI PUSH1 0x1 PUSH1 0x1 PUSH1 0xA0 SHL SUB PUSH2 0xBDD PUSH2 0x155F JUMP JUMPDEST AND DUP1 ISZERO PUSH2 0xBFC JUMPI PUSH1 0x0 MSTORE PUSH1 0x3 PUSH1 0x20 MSTORE PUSH1 0x20 PUSH1 0x40 PUSH1 0x0 KECCAK256 SLOAD PUSH1 0x40 MLOAD SWAP1 DUP2 MSTORE RETURN JUMPDEST PUSH1 0x40 MLOAD PUSH4 0x22718AD9 PUSH1 0xE2 SHL DUP2 MSTORE PUSH1 0x0 PUSH1 0x4 DUP3 ADD MSTORE PUSH1 0x24 SWAP1 REVERT JUMPDEST CALLVALUE PUSH2 0x169 JUMPI PUSH1 0x20 CALLDATASIZE PUSH1 0x3 NOT ADD SLT PUSH2 0x169 JUMPI PUSH1 0x20 PUSH2 0xC33 PUSH1 0x4 CALLDATALOAD PUSH2 0x195F JUMP JUMPDEST PUSH1 0x40 MLOAD PUSH1 0x1 PUSH1 0x1 PUSH1 0xA0 SHL SUB SWAP1 SWAP2 AND DUP2 MSTORE RETURN JUMPDEST CALLVALUE PUSH2 0x169 JUMPI PUSH1 0x60 CALLDATASIZE PUSH1 0x3 NOT ADD SLT PUSH2 0x169 JUMPI PUSH1 0x4 CALLDATALOAD PUSH1 0x24 CALLDATALOAD PUSH1 0x8 DUP2 LT ISZERO PUSH2 0x169 JUMPI PUSH8 0xFFFFFFFFFFFFFFFF PUSH1 0x44 CALLDATALOAD DUP2 DUP2 GT PUSH2 0x169 JUMPI PUSH2 0xC86 SWAP1 CALLDATASIZE SWAP1 PUSH1 0x4 ADD PUSH2 0x1613 JUMP JUMPDEST SWAP1 DUP4 ISZERO ISZERO DUP1 PUSH2 0xEAB JUMPI JUMPDEST PUSH2 0xC99 SWAP1 PUSH2 0x165F JUMP JUMPDEST PUSH2 0xCA2 DUP5 PUSH2 0x195F JUMP JUMPDEST CALLER PUSH1 0x1 PUSH1 0x1 PUSH1 0xA0 SHL SUB SWAP1 SWAP2 AND SUB PUSH2 0xE66 JUMPI PUSH2 0xCBF DUP3 MLOAD ISZERO ISZERO PUSH2 0x18B6 JUMP JUMPDEST DUP4 PUSH1 0x0 MSTORE PUSH1 0x20 PUSH1 0x9 DUP2 MSTORE PUSH1 0x40 PUSH1 0x0 KECCAK256 SWAP2 PUSH2 0xCD9 DUP6 DUP5 PUSH2 0x18F9 JUMP JUMPDEST PUSH1 0x2 DUP4 ADD SWAP2 DUP5 MLOAD SWAP2 DUP3 GT PUSH2 0x94F JUMPI PUSH2 0xCF1 DUP4 SLOAD PUSH2 0x13E0 JUMP JUMPDEST PUSH1 0x1F DUP2 GT PUSH2 0xE20 JUMPI JUMPDEST POP DUP1 PUSH1 0x1F DUP4 GT PUSH1 0x1 EQ PUSH2 0xD8C JUMPI POP PUSH32 0x7F6E084930FFFF5EF7B03E5CB05A8EEF2FAD24B2037997D4C0F8E951E0B4B7F4 SWAP6 SWAP5 SWAP4 PUSH2 0xD6B SWAP4 DUP4 PUSH2 0xD65 SWAP5 PUSH2 0xD60 SWAP5 PUSH1 0x0 SWAP2 PUSH2 0xD81 JUMPI JUMPDEST POP DUP2 PUSH1 0x1 SHL SWAP2 PUSH1 0x0 NOT SWAP1 PUSH1 0x3 SHL SHR NOT AND OR SWAP1 SSTORE JUMPDEST TIMESTAMP PUSH1 0x1 DUP3 ADD SSTORE PUSH2 0x16AE JUMP JUMPDEST PUSH2 0x19B1 JUMP JUMPDEST DUP6 PUSH2 0x23AD JUMP JUMPDEST PUSH2 0xD7C PUSH1 0x40 MLOAD SWAP3 DUP4 SWAP3 TIMESTAMP SWAP2 DUP5 PUSH2 0x1911 JUMP JUMPDEST SUB SWAP1 LOG2 STOP JUMPDEST SWAP1 POP DUP8 ADD MLOAD DUP12 PUSH2 0xD41 JUMP JUMPDEST SWAP1 PUSH1 0x1F NOT DUP4 AND DUP5 PUSH1 0x0 MSTORE DUP3 PUSH1 0x0 KECCAK256 SWAP3 PUSH1 0x0 SWAP1 JUMPDEST DUP3 DUP3 LT PUSH2 0xE08 JUMPI POP POP SWAP4 PUSH1 0x1 DUP5 PUSH2 0xD60 SWAP5 PUSH32 0x7F6E084930FFFF5EF7B03E5CB05A8EEF2FAD24B2037997D4C0F8E951E0B4B7F4 SWAP11 SWAP10 SWAP9 SWAP5 PUSH2 0xD65 SWAP8 PUSH2 0xD6B SWAP10 LT PUSH2 0xDEF JUMPI JUMPDEST POP POP DUP2 SHL ADD SWAP1 SSTORE PUSH2 0xD55 JUMP JUMPDEST DUP10 ADD MLOAD PUSH1 0x0 NOT PUSH1 0xF8 DUP5 PUSH1 0x3 SHL AND SHR NOT AND SWAP1 SSTORE DUP12 DUP1 PUSH2 0xDE3 JUMP JUMPDEST DUP1 PUSH1 0x1 DUP6 SWAP7 DUP3 SWAP5 SWAP7 DUP13 ADD MLOAD DUP2 SSTORE ADD SWAP6 ADD SWAP4 ADD SWAP1 PUSH2 0xD9F JUMP JUMPDEST DUP4 PUSH1 0x0 MSTORE DUP2 PUSH1 0x0 KECCAK256 PUSH1 0x1F DUP5 ADD PUSH1 0x5 SHR DUP2 ADD SWAP2 DUP4 DUP6 LT PUSH2 0xE5C JUMPI JUMPDEST PUSH1 0x1F ADD PUSH1 0x5 SHR ADD SWAP1 JUMPDEST DUP2 DUP2 LT PUSH2 0xE50 JUMPI POP PUSH2 0xCFA JUMP JUMPDEST PUSH1 0x0 DUP2 SSTORE PUSH1 0x1 ADD PUSH2 0xE43 JUMP JUMPDEST SWAP1 SWAP2 POP DUP2 SWAP1 PUSH2 0xE3A JUMP JUMPDEST PUSH1 0x40 MLOAD PUSH3 0x461BCD PUSH1 0xE5 SHL DUP2 MSTORE PUSH1 0x20 PUSH1 0x4 DUP3 ADD MSTORE PUSH1 0x1C PUSH1 0x24 DUP3 ADD MSTORE PUSH32 0x4E6F7420746865206F776E6572206F66207468697320666C6F77657200000000 PUSH1 0x44 DUP3 ADD MSTORE PUSH1 0x64 SWAP1 REVERT JUMPDEST POP PUSH1 0x8 SLOAD DUP5 GT ISZERO PUSH2 0xC90 JUMP JUMPDEST CALLVALUE PUSH2 0x169 JUMPI PUSH2 0x31B PUSH2 0xEC8 CALLDATASIZE PUSH2 0x158B JUMP JUMPDEST SWAP1 PUSH1 0x40 MLOAD SWAP3 PUSH2 0xED6 DUP5 PUSH2 0x1437 JUMP JUMPDEST PUSH1 0x0 DUP5 MSTORE PUSH2 0x315 DUP4 DUP4 DUP4 PUSH2 0x171D JUMP JUMPDEST CALLVALUE PUSH2 0x169 JUMPI PUSH1 0x20 DUP1 PUSH1 0x3 NOT CALLDATASIZE ADD SLT PUSH2 0x169 JUMPI PUSH1 0x1 PUSH1 0x1 PUSH1 0xA0 SHL SUB PUSH2 0xF07 PUSH2 0x155F JUMP JUMPDEST AND PUSH1 0x0 MSTORE PUSH1 0xA DUP2 MSTORE PUSH1 0x40 PUSH1 0x0 KECCAK256 PUSH1 0x40 MLOAD SWAP1 DUP2 DUP4 DUP3 SLOAD SWAP2 DUP3 DUP2 MSTORE ADD SWAP1 DUP2 SWAP3 PUSH1 0x0 MSTORE DUP5 PUSH1 0x0 KECCAK256 SWAP1 PUSH1 0x0 JUMPDEST DUP7 DUP3 DUP3 LT PUSH2 0xF85 JUMPI DUP7 DUP7 PUSH2 0xF45 DUP3 DUP9 SUB DUP4 PUSH2 0x148B JUMP JUMPDEST PUSH1 0x40 MLOAD SWAP3 DUP4 SWAP3 DUP2 DUP5 ADD SWAP1 DUP3 DUP6 MSTORE MLOAD DUP1 SWAP2 MSTORE PUSH1 0x40 DUP5 ADD SWAP3 SWAP2 PUSH1 0x0 JUMPDEST DUP3 DUP2 LT PUSH2 0xF6E JUMPI POP POP POP POP SUB SWAP1 RETURN JUMPDEST DUP4 MLOAD DUP6 MSTORE DUP7 SWAP6 POP SWAP4 DUP2 ADD SWAP4 SWAP3 DUP2 ADD SWAP3 PUSH1 0x1 ADD PUSH2 0xF5F JUMP JUMPDEST DUP4 SLOAD DUP6 MSTORE SWAP1 SWAP4 ADD SWAP3 PUSH1 0x1 SWAP3 DUP4 ADD SWAP3 ADD PUSH2 0xF2F JUMP JUMPDEST CALLVALUE PUSH2 0x169 JUMPI PUSH2 0x31B PUSH2 0xFAA CALLDATASIZE PUSH2 0x158B JUMP JUMPDEST SWAP2 PUSH2 0x171D JUMP JUMPDEST CALLVALUE PUSH2 0x169 JUMPI PUSH1 0x20 DUP1 PUSH1 0x3 NOT CALLDATASIZE ADD SLT PUSH2 0x169 JUMPI PUSH1 0x4 CALLDATALOAD PUSH1 0x0 PUSH1 0xE0 PUSH1 0x40 MLOAD PUSH2 0xFD5 DUP2 PUSH2 0x141A JUMP JUMPDEST DUP3 DUP2 MSTORE DUP3 DUP6 DUP3 ADD MSTORE PUSH1 0x60 PUSH1 0x40 DUP3 ADD MSTORE DUP3 PUSH1 0x60 DUP3 ADD MSTORE DUP3 PUSH1 0x80 DUP3 ADD MSTORE DUP3 PUSH1 0xA0 DUP3 ADD MSTORE DUP3 PUSH1 0xC0 DUP3 ADD MSTORE ADD MSTORE DUP1 ISZERO ISZERO DUP1 PUSH2 0x1096 JUMPI JUMPDEST PUSH2 0x1010 SWAP1 PUSH2 0x165F JUMP JUMPDEST PUSH1 0x0 MSTORE PUSH1 0x9 DUP2 MSTORE PUSH2 0x1024 PUSH1 0x40 PUSH1 0x0 KECCAK256 PUSH2 0x16AE JUMP JUMPDEST SWAP1 PUSH1 0x40 MLOAD SWAP2 DUP2 DUP4 SWAP3 DUP4 MSTORE PUSH2 0x103B DUP2 DUP5 ADD DUP4 MLOAD PUSH2 0x1552 JUMP JUMPDEST DUP2 ADD MLOAD PUSH1 0x40 DUP4 ADD MSTORE PUSH1 0x40 DUP2 ADD MLOAD PUSH1 0xE0 PUSH2 0x1062 PUSH2 0x100 SWAP3 DUP4 PUSH1 0x60 DUP8 ADD MSTORE PUSH2 0x120 DUP7 ADD SWAP1 PUSH2 0x13BB JUMP JUMPDEST SWAP3 PUSH1 0x60 DUP2 ADD MLOAD PUSH1 0x80 DUP7 ADD MSTORE PUSH1 0x80 DUP2 ADD MLOAD PUSH1 0xA0 DUP7 ADD MSTORE PUSH1 0xA0 DUP2 ADD MLOAD PUSH1 0xC0 DUP7 ADD MSTORE PUSH1 0xC0 DUP2 ADD MLOAD DUP3 DUP7 ADD MSTORE ADD MLOAD ISZERO ISZERO SWAP1 DUP4 ADD MSTORE SUB SWAP1 RETURN JUMPDEST POP PUSH1 0x8 SLOAD DUP2 GT ISZERO PUSH2 0x1007 JUMP JUMPDEST CALLVALUE PUSH2 0x169 JUMPI PUSH1 0x40 CALLDATASIZE PUSH1 0x3 NOT ADD SLT PUSH2 0x169 JUMPI PUSH2 0x10BB PUSH2 0x155F JUMP JUMPDEST PUSH1 0x24 CALLDATALOAD PUSH2 0x10C7 DUP2 PUSH2 0x195F JUMP JUMPDEST CALLER ISZERO ISZERO DUP1 PUSH2 0x1176 JUMPI JUMPDEST DUP1 PUSH2 0x1149 JUMPI JUMPDEST PUSH2 0x1131 JUMPI PUSH1 0x1 PUSH1 0x1 PUSH1 0xA0 SHL SUB SWAP3 DUP4 AND SWAP3 DUP3 SWAP2 DUP5 SWAP2 AND PUSH32 0x8C5BE1E5EBEC7D5BD14F71427D1E84F3DD0314C0F7B2291E5B200AC8C7C3B925 PUSH1 0x0 DUP1 LOG4 PUSH1 0x0 SWAP1 DUP2 MSTORE PUSH1 0x4 PUSH1 0x20 MSTORE PUSH1 0x40 SWAP1 KECCAK256 DUP1 SLOAD PUSH1 0x1 PUSH1 0x1 PUSH1 0xA0 SHL SUB NOT AND SWAP1 SWAP2 OR SWAP1 SSTORE STOP JUMPDEST PUSH1 0x40 MLOAD PUSH4 0xA9FBF51F PUSH1 0xE0 SHL DUP2 MSTORE CALLER PUSH1 0x4 DUP3 ADD MSTORE PUSH1 0x24 SWAP1 REVERT JUMPDEST POP PUSH1 0x1 DUP1 PUSH1 0xA0 SHL SUB DUP2 AND PUSH1 0x0 MSTORE PUSH1 0x5 PUSH1 0x20 MSTORE PUSH1 0x40 PUSH1 0x0 KECCAK256 CALLER PUSH1 0x0 MSTORE PUSH1 0x20 MSTORE PUSH1 0xFF PUSH1 0x40 PUSH1 0x0 KECCAK256 SLOAD AND ISZERO PUSH2 0x10D6 JUMP JUMPDEST POP PUSH1 0x1 PUSH1 0x1 PUSH1 0xA0 SHL SUB DUP2 AND CALLER EQ ISZERO PUSH2 0x10D0 JUMP JUMPDEST CALLVALUE PUSH2 0x169 JUMPI PUSH1 0x20 CALLDATASIZE PUSH1 0x3 NOT ADD SLT PUSH2 0x169 JUMPI PUSH1 0x4 CALLDATALOAD PUSH1 0x0 MSTORE PUSH1 0x9 PUSH1 0x20 MSTORE PUSH1 0x40 PUSH1 0x0 KECCAK256 PUSH1 0xFF DUP2 SLOAD AND SWAP1 PUSH1 0x1 DUP2 ADD SLOAD SWAP1 PUSH2 0x11C2 PUSH1 0x2 DUP3 ADD PUSH2 0x14AD JUMP JUMPDEST PUSH1 0x3 DUP3 ADD SLOAD SWAP2 PUSH1 0x4 DUP2 ADD SLOAD PUSH1 0x5 DUP3 ADD SLOAD SWAP1 PUSH2 0x120A PUSH1 0xFF PUSH1 0x7 PUSH1 0x6 DUP7 ADD SLOAD SWAP6 ADD SLOAD AND SWAP5 PUSH1 0x40 MLOAD SWAP9 DUP10 SWAP9 PUSH2 0x11F7 DUP11 PUSH2 0x100 SWAP4 PUSH2 0x1552 JUMP JUMPDEST PUSH1 0x20 DUP11 ADD MSTORE DUP1 PUSH1 0x40 DUP11 ADD MSTORE DUP9 ADD SWAP1 PUSH2 0x13BB JUMP JUMPDEST SWAP5 PUSH1 0x60 DUP8 ADD MSTORE PUSH1 0x80 DUP7 ADD MSTORE PUSH1 0xA0 DUP6 ADD MSTORE PUSH1 0xC0 DUP5 ADD MSTORE ISZERO ISZERO PUSH1 0xE0 DUP4 ADD MSTORE SUB SWAP1 RETURN JUMPDEST CALLVALUE PUSH2 0x169 JUMPI PUSH1 0x20 CALLDATASIZE PUSH1 0x3 NOT ADD SLT PUSH2 0x169 JUMPI PUSH1 0x4 CALLDATALOAD PUSH2 0x1247 DUP2 PUSH2 0x195F JUMP JUMPDEST POP PUSH1 0x0 MSTORE PUSH1 0x4 PUSH1 0x20 MSTORE PUSH1 0x20 PUSH1 0x1 DUP1 PUSH1 0xA0 SHL SUB PUSH1 0x40 PUSH1 0x0 KECCAK256 SLOAD AND PUSH1 0x40 MLOAD SWAP1 DUP2 MSTORE RETURN JUMPDEST CALLVALUE PUSH2 0x169 JUMPI PUSH1 0x0 CALLDATASIZE PUSH1 0x3 NOT ADD SLT PUSH2 0x169 JUMPI PUSH1 0x40 MLOAD PUSH1 0x0 DUP1 SLOAD SWAP1 DUP3 PUSH2 0x128B DUP4 PUSH2 0x13E0 JUMP JUMPDEST SWAP2 DUP3 DUP3 MSTORE PUSH1 0x20 SWAP4 PUSH1 0x1 SWAP1 DUP6 PUSH1 0x1 DUP3 AND SWAP2 DUP3 PUSH1 0x0 EQ PUSH2 0x48E JUMPI POP POP PUSH1 0x1 EQ PUSH2 0x12B9 JUMPI POP PUSH2 0x41D SWAP3 POP SUB DUP4 PUSH2 0x148B JUMP JUMPDEST PUSH1 0x0 DUP1 DUP1 MSTORE DUP6 SWAP3 POP SWAP1 PUSH32 0x290DECD9548B62A8D60345A988386FC84BA6BC95484008F6362F93160EF3E563 JUMPDEST DUP6 DUP4 LT PUSH2 0x12FB JUMPI POP POP PUSH2 0x41D SWAP4 POP DUP3 ADD ADD DUP6 PUSH2 0x410 JUMP JUMPDEST DUP1 SLOAD DUP4 DUP10 ADD DUP6 ADD MSTORE DUP8 SWAP5 POP DUP7 SWAP4 SWAP1 SWAP3 ADD SWAP2 DUP2 ADD PUSH2 0x12E4 JUMP JUMPDEST CALLVALUE PUSH2 0x169 JUMPI PUSH1 0x20 CALLDATASIZE PUSH1 0x3 NOT ADD SLT PUSH2 0x169 JUMPI PUSH1 0x4 CALLDATALOAD SWAP1 PUSH4 0xFFFFFFFF PUSH1 0xE0 SHL DUP3 AND DUP1 SWAP3 SUB PUSH2 0x169 JUMPI PUSH1 0x20 SWAP2 PUSH4 0x24832483 PUSH1 0xE1 SHL DUP2 EQ SWAP1 DUP2 ISZERO PUSH2 0x1355 JUMPI JUMPDEST POP ISZERO ISZERO DUP2 MSTORE RETURN JUMPDEST PUSH4 0x80AC58CD PUSH1 0xE0 SHL DUP2 EQ SWAP2 POP DUP2 ISZERO PUSH2 0x1387 JUMPI JUMPDEST DUP2 ISZERO PUSH2 0x1376 JUMPI JUMPDEST POP DUP4 PUSH2 0x134E JUMP JUMPDEST PUSH4 0x1FFC9A7 PUSH1 0xE0 SHL EQ SWAP1 POP DUP4 PUSH2 0x136F JUMP JUMPDEST PUSH4 0x5B5E139F PUSH1 0xE0 SHL DUP2 EQ SWAP2 POP PUSH2 0x1368 JUMP JUMPDEST PUSH1 0x0 JUMPDEST DUP4 DUP2 LT PUSH2 0x13AB JUMPI POP POP PUSH1 0x0 SWAP2 ADD MSTORE JUMP JUMPDEST DUP2 DUP2 ADD MLOAD DUP4 DUP3 ADD MSTORE PUSH1 0x20 ADD PUSH2 0x139B JUMP JUMPDEST SWAP1 PUSH1 0x20 SWAP2 PUSH2 0x13D4 DUP2 MLOAD DUP1 SWAP3 DUP2 DUP6 MSTORE DUP6 DUP1 DUP7 ADD SWAP2 ADD PUSH2 0x1398 JUMP JUMPDEST PUSH1 0x1F ADD PUSH1 0x1F NOT AND ADD ADD SWAP1 JUMP JUMPDEST SWAP1 PUSH1 0x1 DUP3 DUP2 SHR SWAP3 AND DUP1 ISZERO PUSH2 0x1410 JUMPI JUMPDEST PUSH1 0x20 DUP4 LT EQ PUSH2 0x13FA JUMPI JUMP JUMPDEST PUSH4 0x4E487B71 PUSH1 0xE0 SHL PUSH1 0x0 MSTORE PUSH1 0x22 PUSH1 0x4 MSTORE PUSH1 0x24 PUSH1 0x0 REVERT JUMPDEST SWAP2 PUSH1 0x7F AND SWAP2 PUSH2 0x13EF JUMP JUMPDEST PUSH2 0x100 DUP2 ADD SWAP1 DUP2 LT PUSH8 0xFFFFFFFFFFFFFFFF DUP3 GT OR PUSH2 0x94F JUMPI PUSH1 0x40 MSTORE JUMP JUMPDEST PUSH1 0x20 DUP2 ADD SWAP1 DUP2 LT PUSH8 0xFFFFFFFFFFFFFFFF DUP3 GT OR PUSH2 0x94F JUMPI PUSH1 0x40 MSTORE JUMP JUMPDEST PUSH1 0x40 DUP2 ADD SWAP1 DUP2 LT PUSH8 0xFFFFFFFFFFFFFFFF DUP3 GT OR PUSH2 0x94F JUMPI PUSH1 0x40 MSTORE JUMP JUMPDEST PUSH1 0xE0 DUP2 ADD SWAP1 DUP2 LT PUSH8 0xFFFFFFFFFFFFFFFF DUP3 GT OR PUSH2 0x94F JUMPI PUSH1 0x40 MSTORE JUMP JUMPDEST SWAP1 PUSH1 0x1F DUP1 NOT SWAP2 ADD AND DUP2 ADD SWAP1 DUP2 LT PUSH8 0xFFFFFFFFFFFFFFFF DUP3 GT OR PUSH2 0x94F JUMPI PUSH1 0x40 MSTORE JUMP JUMPDEST SWAP1 PUSH1 0x40 MLOAD SWAP2 DUP3 PUSH1 0x0 DUP3 SLOAD PUSH2 0x14C0 DUP2 PUSH2 0x13E0 JUMP JUMPDEST SWAP1 DUP2 DUP5 MSTORE PUSH1 0x20 SWAP5 PUSH1 0x1 SWAP2 PUSH1 0x1 DUP2 AND SWAP1 DUP2 PUSH1 0x0 EQ PUSH2 0x1530 JUMPI POP PUSH1 0x1 EQ PUSH2 0x14F1 JUMPI JUMPDEST POP POP POP PUSH2 0x14EF SWAP3 POP SUB DUP4 PUSH2 0x148B JUMP JUMPDEST JUMP JUMPDEST PUSH1 0x0 SWAP1 DUP2 MSTORE DUP6 DUP2 KECCAK256 SWAP6 SWAP4 POP SWAP2 SWAP1 JUMPDEST DUP2 DUP4 LT PUSH2 0x1518 JUMPI POP POP PUSH2 0x14EF SWAP4 POP DUP3 ADD ADD CODESIZE DUP1 DUP1 PUSH2 0x14E0 JUMP JUMPDEST DUP6 SLOAD DUP9 DUP5 ADD DUP6 ADD MSTORE SWAP5 DUP6 ADD SWAP5 DUP8 SWAP5 POP SWAP2 DUP4 ADD SWAP2 PUSH2 0x14FF JUMP JUMPDEST SWAP3 POP POP POP PUSH2 0x14EF SWAP5 SWAP3 POP PUSH1 0xFF NOT AND DUP3 DUP5 ADD MSTORE ISZERO ISZERO PUSH1 0x5 SHL DUP3 ADD ADD CODESIZE DUP1 DUP1 PUSH2 0x14E0 JUMP JUMPDEST SWAP1 PUSH1 0x8 DUP3 LT ISZERO PUSH2 0xA29 JUMPI MSTORE JUMP JUMPDEST PUSH1 0x4 CALLDATALOAD SWAP1 PUSH1 0x1 PUSH1 0x1 PUSH1 0xA0 SHL SUB DUP3 AND DUP3 SUB PUSH2 0x169 JUMPI JUMP JUMPDEST PUSH1 0x24 CALLDATALOAD SWAP1 PUSH1 0x1 PUSH1 0x1 PUSH1 0xA0 SHL SUB DUP3 AND DUP3 SUB PUSH2 0x169 JUMPI JUMP JUMPDEST PUSH1 0x60 SWAP1 PUSH1 0x3 NOT ADD SLT PUSH2 0x169 JUMPI PUSH1 0x1 PUSH1 0x1 PUSH1 0xA0 SHL SUB SWAP1 PUSH1 0x4 CALLDATALOAD DUP3 DUP2 AND DUP2 SUB PUSH2 0x169 JUMPI SWAP2 PUSH1 0x24 CALLDATALOAD SWAP1 DUP2 AND DUP2 SUB PUSH2 0x169 JUMPI SWAP1 PUSH1 0x44 CALLDATALOAD SWAP1 JUMP JUMPDEST PUSH8 0xFFFFFFFFFFFFFFFF DUP2 GT PUSH2 0x94F JUMPI PUSH1 0x1F ADD PUSH1 0x1F NOT AND PUSH1 0x20 ADD SWAP1 JUMP JUMPDEST SWAP3 SWAP2 SWAP3 PUSH2 0x15E8 DUP3 PUSH2 0x15C0 JUMP JUMPDEST SWAP2 PUSH2 0x15F6 PUSH1 0x40 MLOAD SWAP4 DUP5 PUSH2 0x148B JUMP JUMPDEST DUP3 SWAP5 DUP2 DUP5 MSTORE DUP2 DUP4 ADD GT PUSH2 0x169 JUMPI DUP3 DUP2 PUSH1 0x20 SWAP4 DUP5 PUSH1 0x0 SWAP7 ADD CALLDATACOPY ADD ADD MSTORE JUMP JUMPDEST SWAP1 DUP1 PUSH1 0x1F DUP4 ADD SLT ISZERO PUSH2 0x169 JUMPI DUP2 PUSH1 0x20 PUSH2 0x162E SWAP4 CALLDATALOAD SWAP2 ADD PUSH2 0x15DC JUMP JUMPDEST SWAP1 JUMP JUMPDEST DUP1 SLOAD DUP3 LT ISZERO PUSH2 0x1649 JUMPI PUSH1 0x0 MSTORE PUSH1 0x20 PUSH1 0x0 KECCAK256 ADD SWAP1 PUSH1 0x0 SWAP1 JUMP JUMPDEST PUSH4 0x4E487B71 PUSH1 0xE0 SHL PUSH1 0x0 MSTORE PUSH1 0x32 PUSH1 0x4 MSTORE PUSH1 0x24 PUSH1 0x0 REVERT JUMPDEST ISZERO PUSH2 0x1666 JUMPI JUMP JUMPDEST PUSH1 0x40 MLOAD PUSH3 0x461BCD PUSH1 0xE5 SHL DUP2 MSTORE PUSH1 0x20 PUSH1 0x4 DUP3 ADD MSTORE PUSH1 0x14 PUSH1 0x24 DUP3 ADD MSTORE PUSH20 0x151BDAD95B88191BD95CC81B9BDD08195E1A5CDD PUSH1 0x62 SHL PUSH1 0x44 DUP3 ADD MSTORE PUSH1 0x64 SWAP1 REVERT JUMPDEST PUSH1 0x8 DUP3 LT ISZERO PUSH2 0xA29 JUMPI MSTORE JUMP JUMPDEST SWAP1 PUSH1 0x40 MLOAD PUSH2 0x16BB DUP2 PUSH2 0x141A JUMP JUMPDEST PUSH1 0xE0 PUSH1 0xFF PUSH1 0x7 DUP4 SWAP6 PUSH2 0x16D0 DUP4 DUP3 SLOAD AND DUP7 PUSH2 0x16A2 JUMP JUMPDEST PUSH1 0x1 DUP2 ADD SLOAD PUSH1 0x20 DUP7 ADD MSTORE PUSH2 0x16E6 PUSH1 0x2 DUP3 ADD PUSH2 0x14AD JUMP JUMPDEST PUSH1 0x40 DUP7 ADD MSTORE PUSH1 0x3 DUP2 ADD SLOAD PUSH1 0x60 DUP7 ADD MSTORE PUSH1 0x4 DUP2 ADD SLOAD PUSH1 0x80 DUP7 ADD MSTORE PUSH1 0x5 DUP2 ADD SLOAD PUSH1 0xA0 DUP7 ADD MSTORE PUSH1 0x6 DUP2 ADD SLOAD PUSH1 0xC0 DUP7 ADD MSTORE ADD SLOAD AND ISZERO ISZERO SWAP2 ADD MSTORE JUMP JUMPDEST PUSH1 0x1 PUSH1 0x1 PUSH1 0xA0 SHL SUB SWAP2 DUP3 AND SWAP3 SWAP1 SWAP2 DUP4 ISZERO PUSH2 0x936 JUMPI PUSH1 0x0 SWAP3 DUP3 DUP5 MSTORE DUP3 PUSH1 0x20 SWAP6 PUSH1 0x2 DUP8 MSTORE PUSH1 0x40 SWAP7 DUP5 DUP9 DUP9 KECCAK256 SLOAD AND SWAP7 DUP8 SWAP2 CALLER ISZERO ISZERO DUP1 PUSH2 0x180D JUMPI JUMPDEST POP SWAP1 PUSH1 0x2 PUSH32 0xDDF252AD1BE2C89B69C2B068FC378DAA952BA7F163C4A11628F55A4DF523B3EF SWAP3 DUP5 PUSH2 0x17DA JUMPI JUMPDEST DUP6 DUP4 MSTORE PUSH1 0x3 DUP2 MSTORE DUP12 DUP4 KECCAK256 DUP1 SLOAD PUSH1 0x1 ADD SWAP1 SSTORE DUP7 DUP4 MSTORE MSTORE DUP10 DUP2 KECCAK256 DUP1 SLOAD PUSH1 0x1 PUSH1 0x1 PUSH1 0xA0 SHL SUB NOT AND DUP6 OR SWAP1 SSTORE DUP1 LOG4 AND SWAP3 DUP4 DUP4 SUB PUSH2 0x17B9 JUMPI POP POP POP POP JUMP JUMPDEST PUSH1 0x64 SWAP5 POP MLOAD SWAP3 PUSH4 0x64283D7B PUSH1 0xE0 SHL DUP5 MSTORE PUSH1 0x4 DUP5 ADD MSTORE PUSH1 0x24 DUP4 ADD MSTORE PUSH1 0x44 DUP3 ADD MSTORE REVERT JUMPDEST PUSH1 0x0 DUP8 DUP2 MSTORE PUSH1 0x4 PUSH1 0x20 MSTORE PUSH1 0x40 SWAP1 KECCAK256 DUP1 SLOAD PUSH1 0x1 PUSH1 0x1 PUSH1 0xA0 SHL SUB NOT AND SWAP1 SSTORE DUP5 DUP4 MSTORE PUSH1 0x3 DUP2 MSTORE DUP12 DUP4 KECCAK256 DUP1 SLOAD PUSH1 0x0 NOT ADD SWAP1 SSTORE PUSH2 0x1780 JUMP JUMPDEST SWAP2 SWAP4 SWAP5 POP SWAP2 POP DUP1 PUSH2 0x1862 JUMPI JUMPDEST ISZERO PUSH2 0x1829 JUMPI DUP6 SWAP3 SWAP2 DUP8 SWAP2 CODESIZE PUSH2 0x1754 JUMP JUMPDEST DUP8 DUP7 DUP9 PUSH2 0x1846 JUMPI PUSH1 0x24 SWAP2 MLOAD SWAP1 PUSH4 0x7E273289 PUSH1 0xE0 SHL DUP3 MSTORE PUSH1 0x4 DUP3 ADD MSTORE REVERT JUMPDEST PUSH1 0x44 SWAP2 MLOAD SWAP1 PUSH4 0x177E802F PUSH1 0xE0 SHL DUP3 MSTORE CALLER PUSH1 0x4 DUP4 ADD MSTORE PUSH1 0x24 DUP3 ADD MSTORE REVERT JUMPDEST POP CALLER DUP8 EQ DUP1 ISZERO PUSH2 0x1887 JUMPI JUMPDEST DUP1 PUSH2 0x1819 JUMPI POP DUP6 DUP3 MSTORE PUSH1 0x4 DUP2 MSTORE CALLER DUP6 DUP10 DUP5 KECCAK256 SLOAD AND EQ PUSH2 0x1819 JUMP JUMPDEST POP DUP7 DUP3 MSTORE PUSH1 0x5 DUP2 MSTORE DUP8 DUP3 KECCAK256 CALLER DUP4 MSTORE DUP2 MSTORE PUSH1 0xFF DUP9 DUP4 KECCAK256 SLOAD AND PUSH2 0x186D JUMP JUMPDEST PUSH1 0x40 MLOAD SWAP1 PUSH2 0x18B0 DUP3 PUSH2 0x1437 JUMP JUMPDEST PUSH1 0x0 DUP3 MSTORE JUMP JUMPDEST ISZERO PUSH2 0x18BD JUMPI JUMP JUMPDEST PUSH1 0x40 MLOAD PUSH3 0x461BCD PUSH1 0xE5 SHL DUP2 MSTORE PUSH1 0x20 PUSH1 0x4 DUP3 ADD MSTORE PUSH1 0x14 PUSH1 0x24 DUP3 ADD MSTORE PUSH20 0x4E616D652063616E6E6F7420626520656D707479 PUSH1 0x60 SHL PUSH1 0x44 DUP3 ADD MSTORE PUSH1 0x64 SWAP1 REVERT JUMPDEST SWAP1 PUSH1 0x8 DUP2 LT ISZERO PUSH2 0xA29 JUMPI PUSH1 0xFF DUP1 NOT DUP4 SLOAD AND SWAP2 AND OR SWAP1 SSTORE JUMP JUMPDEST SWAP4 SWAP3 SWAP2 PUSH2 0x1935 SWAP1 PUSH2 0x1924 DUP7 PUSH1 0x40 SWAP5 PUSH2 0x1552 JUMP JUMPDEST PUSH1 0x60 PUSH1 0x20 DUP8 ADD MSTORE PUSH1 0x60 DUP7 ADD SWAP1 PUSH2 0x13BB JUMP JUMPDEST SWAP4 ADD MSTORE JUMP JUMPDEST PUSH1 0x0 NOT DUP2 EQ PUSH2 0x1949 JUMPI PUSH1 0x1 ADD SWAP1 JUMP JUMPDEST PUSH4 0x4E487B71 PUSH1 0xE0 SHL PUSH1 0x0 MSTORE PUSH1 0x11 PUSH1 0x4 MSTORE PUSH1 0x24 PUSH1 0x0 REVERT JUMPDEST PUSH1 0x0 DUP2 DUP2 MSTORE PUSH1 0x2 PUSH1 0x20 MSTORE PUSH1 0x40 SWAP1 KECCAK256 SLOAD PUSH1 0x1 PUSH1 0x1 PUSH1 0xA0 SHL SUB AND SWAP1 DUP2 ISZERO PUSH2 0x1982 JUMPI POP SWAP1 JUMP JUMPDEST PUSH1 0x24 SWAP1 PUSH1 0x40 MLOAD SWAP1 PUSH4 0x7E273289 PUSH1 0xE0 SHL DUP3 MSTORE PUSH1 0x4 DUP3 ADD MSTORE REVERT JUMPDEST SWAP1 PUSH2 0x19AD PUSH1 0x20 SWAP3 DUP3 DUP2 MLOAD SWAP5 DUP6 SWAP3 ADD PUSH2 0x1398 JUMP JUMPDEST ADD SWAP1 JUMP JUMPDEST DUP1 MLOAD PUSH1 0x8 DUP2 LT ISZERO PUSH2 0xA29 JUMPI PUSH2 0x19C5 SWAP1 PUSH2 0x269D JUMP JUMPDEST PUSH1 0x40 DUP3 ADD MLOAD SWAP2 PUSH1 0xC0 DUP2 ADD MLOAD PUSH1 0xFF DUP2 MUL SWAP1 DUP1 DUP3 DIV PUSH1 0xFF EQ SWAP1 ISZERO OR ISZERO PUSH2 0x1949 JUMPI PUSH1 0x64 SWAP1 DIV PUSH2 0x1A62 PUSH1 0x21 PUSH2 0x19F5 DUP4 PUSH2 0x29BC JUMP JUMPDEST PUSH2 0x1A07 PUSH2 0x1A01 DUP6 PUSH2 0x29BC JUMP JUMPDEST SWAP5 PUSH2 0x29BC JUMP JUMPDEST PUSH1 0x40 MLOAD SWAP5 DUP6 SWAP3 PUSH1 0x23 PUSH1 0xF8 SHL PUSH1 0x20 DUP6 ADD MSTORE PUSH2 0x1A2A DUP2 MLOAD DUP1 SWAP3 PUSH1 0x20 DUP9 DUP9 ADD SWAP2 ADD PUSH2 0x1398 JUMP JUMPDEST DUP4 ADD PUSH2 0x1A3F DUP3 MLOAD DUP1 SWAP4 PUSH1 0x20 DUP9 DUP6 ADD SWAP2 ADD PUSH2 0x1398 JUMP JUMPDEST ADD PUSH2 0x1A53 DUP3 MLOAD DUP1 SWAP4 PUSH1 0x20 DUP8 DUP6 ADD SWAP2 ADD PUSH2 0x1398 JUMP JUMPDEST ADD SUB PUSH1 0x1 DUP2 ADD DUP5 MSTORE ADD DUP3 PUSH2 0x148B JUMP JUMPDEST PUSH1 0x40 MLOAD SWAP1 PUSH2 0x1A6F DUP3 PUSH2 0x1453 JUMP JUMPDEST PUSH1 0x7 DUP3 MSTORE PUSH7 0x2330303030303 PUSH1 0xCC SHL PUSH1 0x20 DUP4 ADD MSTORE PUSH1 0x60 DUP4 ADD MLOAD SWAP2 PUSH1 0x40 MLOAD PUSH2 0x1A95 DUP2 PUSH2 0x1437 JUMP JUMPDEST PUSH1 0x0 DUP2 MSTORE SWAP3 DUP1 ISZERO PUSH2 0x2397 JUMPI PUSH1 0x0 SWAP1 JUMPDEST DUP1 DUP3 LT PUSH2 0x220A JUMPI POP POP SWAP3 PUSH2 0x1D17 PUSH2 0x21D6 SWAP7 SWAP4 PUSH2 0x1A0 PUSH2 0x162E SWAP8 SWAP5 PUSH1 0x3D SWAP8 PUSH32 0x3C636972636C652063783D22323030222063793D223230302220723D22333022 PUSH1 0x40 MLOAD SWAP5 DUP6 SWAP4 PUSH32 0x3C73766720786D6C6E733D22687474703A2F2F7777772E77332E6F72672F3230 PUSH1 0x20 DUP7 ADD MSTORE PUSH32 0x30302F737667222076696577426F783D223020302034303020343030223E0000 PUSH1 0x40 DUP7 ADD MSTORE PUSH6 0x1E3232B3399F PUSH1 0xD1 SHL PUSH1 0x5E DUP7 ADD MSTORE PUSH32 0x3C72616469616C4772616469656E742069643D22666C6F776572477261646965 PUSH1 0x64 DUP7 ADD MSTORE PUSH32 0x6E74222063783D22353025222063793D223530252220723D22353025223E0000 PUSH1 0x84 DUP7 ADD MSTORE PUSH32 0x3C73746F70206F66667365743D22302522207374796C653D2273746F702D636F PUSH1 0xA2 DUP7 ADD MSTORE PUSH4 0x3637B91D PUSH1 0xE1 SHL PUSH1 0xC2 DUP7 ADD MSTORE PUSH2 0x1BD6 DUP2 MLOAD DUP1 SWAP3 PUSH1 0x20 PUSH1 0xC6 DUP10 ADD SWAP2 ADD PUSH2 0x1398 JUMP JUMPDEST DUP5 ADD SWAP3 PUSH19 0x1DB9BA37B816B7B830B1B4BA3C9D189110179F PUSH1 0x69 SHL SWAP4 DUP5 PUSH1 0xC6 DUP3 ADD MSTORE PUSH32 0x3C73746F70206F66667365743D223130302522207374796C653D2273746F702D PUSH1 0xD9 DUP3 ADD MSTORE PUSH6 0x31B7B637B91D PUSH1 0xD1 SHL PUSH1 0xF9 DUP3 ADD MSTORE PUSH2 0x1C40 DUP3 MLOAD DUP1 SWAP4 PUSH1 0x20 PUSH1 0xFF DUP6 ADD SWAP2 ADD PUSH2 0x1398 JUMP JUMPDEST ADD SWAP3 PUSH1 0xFF DUP5 ADD MSTORE PUSH17 0x1E17B930B234B0B623B930B234B2B73A1F PUSH1 0x79 SHL PUSH2 0x112 DUP5 ADD MSTORE PUSH7 0x1E17B232B3399F PUSH1 0xC9 SHL PUSH2 0x123 DUP5 ADD MSTORE PUSH32 0x3C636972636C652063783D22323030222063793D223230302220723D22323030 PUSH2 0x12A DUP5 ADD MSTORE PUSH32 0x222066696C6C3D2275726C2823666C6F7765724772616469656E7429222F3E00 PUSH2 0x14A DUP5 ADD MSTORE PUSH2 0x169 SWAP3 PUSH2 0x1CD8 DUP3 MLOAD DUP1 SWAP4 PUSH1 0x20 DUP8 DUP6 ADD SWAP2 ADD PUSH2 0x1398 JUMP JUMPDEST ADD SWAP2 DUP3 ADD MSTORE PUSH17 0x103334B6361E9111A323221B981811179F PUSH1 0x79 SHL PUSH2 0x189 DUP3 ADD MSTORE PUSH6 0x1E17B9BB339F PUSH1 0xD1 SHL PUSH2 0x19A DUP3 ADD MSTORE SUB PUSH2 0x180 DUP2 ADD DUP4 MSTORE ADD SWAP1 PUSH2 0x148B JUMP JUMPDEST PUSH1 0x40 MLOAD PUSH2 0x1D23 DUP2 PUSH2 0x146F JUMP JUMPDEST PUSH1 0xBA DUP2 MSTORE PUSH1 0x20 DUP2 ADD SWAP1 PUSH32 0x646174613A696D6167652F7376672B786D6C3B6261736536342C50484E325A79 SWAP4 DUP5 DUP4 MSTORE PUSH2 0x216D PUSH2 0x1EAD PUSH2 0x16C PUSH32 0x423462577875637A30696148523063446F764C336433647935334D793576636D SWAP9 DUP10 PUSH1 0x40 DUP8 ADD MSTORE PUSH32 0x63764D6A41774D43397A646D636949485A705A58644362336739496A41674D43 SWAP5 DUP6 PUSH1 0x60 DUP9 ADD MSTORE PUSH32 0x41304D4441674E444177496A343859326C795932786C49474E34505349794D44 SWAP7 DUP8 PUSH1 0x80 DUP3 ADD MSTORE PUSH32 0x416949474E35505349794D44416949484939496A49774D4349675A6D6C736244 SWAP9 DUP10 PUSH1 0xA0 DUP4 ADD MSTORE PUSH32 0x306949325A6D4D4441774D434976506A777663335A6E50673D3D000000000000 SWAP11 DUP12 PUSH1 0xC0 DUP5 ADD MSTORE PUSH2 0x1E2F PUSH1 0x60 DUP3 ADD MLOAD PUSH2 0x2826 JUMP JUMPDEST PUSH2 0x1E3C PUSH1 0x80 DUP4 ADD MLOAD PUSH2 0x2826 JUMP JUMPDEST SWAP3 PUSH2 0x1E4A PUSH1 0xA0 DUP5 ADD MLOAD PUSH2 0x2826 JUMP JUMPDEST SWAP5 PUSH1 0xE0 PUSH2 0x1E5A PUSH1 0xC0 DUP7 ADD MLOAD PUSH2 0x2826 JUMP JUMPDEST SWAP5 ADD MLOAD ISZERO PUSH2 0x21E6 JUMPI PUSH2 0x1FB2 PUSH1 0x40 MLOAD PUSH2 0x1E71 DUP2 PUSH2 0x1453 JUMP JUMPDEST PUSH1 0x3 DUP2 MSTORE PUSH3 0x596573 PUSH1 0xE8 SHL PUSH1 0x20 DUP3 ADD MSTORE SWAP8 JUMPDEST PUSH1 0x29 PUSH1 0x40 MLOAD SWAP13 DUP14 DUP1 SWAP13 PUSH9 0x3D913730B6B2911D11 PUSH1 0xB9 SHL PUSH1 0x20 DUP4 ADD MSTORE PUSH1 0x20 DUP2 MLOAD SWAP5 DUP6 SWAP4 ADD SWAP2 ADD PUSH2 0x1398 JUMP JUMPDEST DUP11 ADD SWAP4 PUSH2 0x88B PUSH1 0xF2 SHL SWAP4 DUP5 PUSH1 0x29 DUP8 ADD MSTORE PUSH32 0x226465736372697074696F6E223A224120756E6971756520666C6F7765722072 PUSH1 0x2B DUP8 ADD MSTORE PUSH12 0x32B83932B9B2B73A34B7339 PUSH1 0xA5 SHL PUSH1 0x4B DUP8 ADD MSTORE PUSH2 0x1F61 DUP4 MLOAD PUSH1 0x20 DUP6 ADD SWAP8 PUSH2 0x1F10 DUP3 PUSH1 0x57 DUP4 ADD DUP12 PUSH2 0x1398 JUMP JUMPDEST ADD SWAP2 PUSH7 0x81B5BDBD9088B PUSH1 0xCA SHL PUSH1 0x57 DUP5 ADD MSTORE PUSH32 0x22696D616765223A22646174613A696D6167652F7376672B786D6C3B62617365 PUSH1 0x5E DUP5 ADD MSTORE PUSH3 0xD8D0B PUSH1 0xEA SHL PUSH1 0x7E DUP5 ADD MSTORE MLOAD DUP1 SWAP4 PUSH1 0x81 DUP5 ADD SWAP1 PUSH2 0x1398 JUMP JUMPDEST ADD SWAP3 PUSH1 0x81 DUP5 ADD MSTORE PUSH14 0x2261747472696275746573223A5B PUSH1 0x90 SHL PUSH1 0x83 DUP5 ADD MSTORE PUSH32 0x7B2274726169745F74797065223A224D6F6F64222C2276616C7565223A220000 PUSH1 0x91 DUP5 ADD MSTORE MLOAD DUP1 SWAP4 PUSH1 0xAF DUP5 ADD SWAP1 PUSH2 0x1398 JUMP JUMPDEST ADD PUSH3 0x89F4B PUSH1 0xEA SHL PUSH1 0xAF DUP3 ADD MSTORE PUSH32 0x7B2274726169745F74797065223A22506574616C20436F756E74222C2276616C PUSH1 0xB2 DUP3 ADD MSTORE PUSH4 0x3AB2911D PUSH1 0xE1 SHL PUSH1 0xD2 DUP3 ADD MSTORE PUSH2 0x2006 DUP3 MLOAD DUP1 SWAP4 PUSH1 0x20 PUSH1 0xD6 DUP6 ADD SWAP2 ADD PUSH2 0x1398 JUMP JUMPDEST ADD SWAP2 PUSH2 0x1F4B PUSH1 0xF2 SHL SWAP3 DUP4 PUSH1 0xD6 DUP3 ADD MSTORE PUSH32 0x7B2274726169745F74797065223A22436F6C6F7220487565222C2276616C7565 PUSH1 0xD8 DUP3 ADD MSTORE PUSH2 0x111D PUSH1 0xF1 SHL PUSH1 0xF8 DUP3 ADD MSTORE PUSH2 0x205A DUP3 MLOAD DUP1 SWAP4 PUSH1 0x20 PUSH1 0xFA DUP6 ADD SWAP2 ADD PUSH2 0x1398 JUMP JUMPDEST ADD SWAP3 DUP3 PUSH1 0xFA DUP6 ADD MSTORE PUSH32 0x7B2274726169745F74797065223A2253617475726174696F6E222C2276616C75 PUSH1 0xFC DUP6 ADD MSTORE DUP3 PUSH3 0x32911D PUSH1 0xE9 SHL SWAP2 DUP3 PUSH2 0x11C DUP8 ADD MSTORE PUSH2 0x11F SWAP6 PUSH2 0x20AF DUP3 MLOAD DUP1 SWAP4 PUSH1 0x20 DUP11 DUP6 ADD SWAP2 ADD PUSH2 0x1398 JUMP JUMPDEST ADD SWAP5 DUP6 ADD MSTORE PUSH32 0x7B2274726169745F74797065223A224272696768746E657373222C2276616C75 PUSH2 0x121 DUP6 ADD MSTORE PUSH2 0x141 DUP5 ADD MSTORE PUSH2 0x144 SWAP3 PUSH2 0x20F8 DUP3 MLOAD DUP1 SWAP4 PUSH1 0x20 DUP8 DUP6 ADD SWAP2 ADD PUSH2 0x1398 JUMP JUMPDEST ADD SWAP2 DUP3 ADD MSTORE PUSH32 0x7B2274726169745F74797065223A22416E696D61746564222C2276616C756522 PUSH2 0x146 DUP3 ADD MSTORE PUSH2 0x1D11 PUSH1 0xF1 SHL PUSH2 0x166 DUP3 ADD MSTORE PUSH2 0x2145 DUP3 MLOAD DUP1 SWAP4 PUSH1 0x20 PUSH2 0x168 DUP6 ADD SWAP2 ADD PUSH2 0x1398 JUMP JUMPDEST ADD PUSH2 0x227D PUSH1 0xF0 SHL PUSH2 0x168 DUP3 ADD MSTORE PUSH2 0x5D7D PUSH1 0xF0 SHL PUSH2 0x16A DUP3 ADD MSTORE SUB PUSH2 0x14C DUP2 ADD DUP4 MSTORE ADD SWAP1 PUSH2 0x148B JUMP JUMPDEST PUSH1 0x40 MLOAD SWAP6 PUSH2 0x217A DUP8 PUSH2 0x146F JUMP JUMPDEST PUSH1 0xBA DUP8 MSTORE PUSH1 0x20 DUP8 ADD SWAP6 DUP7 MSTORE PUSH1 0x40 DUP8 ADD MSTORE PUSH1 0x60 DUP7 ADD MSTORE PUSH1 0x80 DUP6 ADD MSTORE PUSH1 0xA0 DUP5 ADD MSTORE PUSH1 0xC0 DUP4 ADD MSTORE PUSH1 0x40 MLOAD SWAP5 DUP6 SWAP3 PUSH32 0x646174613A6170706C69636174696F6E2F6A736F6E3B6261736536342C000000 PUSH1 0x20 DUP6 ADD MSTORE MLOAD DUP1 SWAP3 DUP6 DUP6 ADD SWAP1 PUSH2 0x1398 JUMP JUMPDEST DUP2 ADD SUB PUSH1 0x1D DUP2 ADD DUP5 MSTORE ADD DUP3 PUSH2 0x148B JUMP JUMPDEST PUSH2 0x1FB2 PUSH1 0x40 MLOAD PUSH2 0x21F5 DUP2 PUSH2 0x1453 JUMP JUMPDEST PUSH1 0x2 DUP2 MSTORE PUSH2 0x4E6F PUSH1 0xF0 SHL PUSH1 0x20 DUP3 ADD MSTORE SWAP8 PUSH2 0x1E83 JUMP JUMPDEST SWAP1 SWAP4 DUP5 DUP3 PUSH2 0x168 DIV DUP2 MUL DIV DUP3 PUSH2 0x168 DIV EQ DUP6 ISZERO OR ISZERO PUSH2 0x1949 JUMPI PUSH2 0x223A PUSH2 0x2235 DUP4 PUSH2 0x168 DIV DUP8 MUL PUSH2 0x2A81 JUMP JUMPDEST PUSH2 0x298F JUMP JUMPDEST SWAP1 PUSH1 0xC8 SWAP2 DUP1 DUP4 ADD DUP4 GT PUSH2 0x1949 JUMPI PUSH2 0x2259 PUSH2 0x2235 DUP6 PUSH2 0x168 DIV DUP10 MUL PUSH2 0x2AC1 JUMP JUMPDEST DUP4 ADD SWAP3 DUP4 DUP2 GT PUSH2 0x1949 JUMPI PUSH1 0x1 SWAP4 PUSH2 0x227F PUSH2 0x2279 PUSH2 0x238F SWAP5 PUSH1 0x6B SWAP5 ADD PUSH2 0x2826 JUMP JUMPDEST SWAP2 PUSH2 0x2826 JUMP JUMPDEST SWAP4 PUSH2 0x228F DUP8 PUSH2 0x168 DIV DUP12 MUL PUSH2 0x2826 JUMP JUMPDEST PUSH32 0x222072783D223235222072793D223430222066696C6C3D220000000000000000 PUSH1 0x40 MLOAD SWAP7 DUP4 PUSH2 0x22C9 DUP10 SWAP6 MLOAD DUP1 SWAP3 PUSH1 0x20 DUP1 DUP10 ADD SWAP2 ADD PUSH2 0x1398 JUMP JUMPDEST DUP5 ADD SWAP5 PUSH13 0x1E32B63634B839B29031BC1E91 PUSH1 0x99 SHL PUSH1 0x20 DUP8 ADD MSTORE PUSH1 0x2D SWAP6 PUSH2 0x22F8 DUP3 MLOAD DUP1 SWAP4 PUSH1 0x20 DUP11 DUP6 ADD SWAP2 ADD PUSH2 0x1398 JUMP JUMPDEST ADD SWAP5 PUSH6 0x111031BC9E91 PUSH1 0xD1 SHL SWAP1 DUP7 ADD MSTORE PUSH1 0x33 SWAP5 PUSH2 0x231E DUP3 MLOAD DUP1 SWAP4 PUSH1 0x20 DUP10 DUP6 ADD SWAP2 ADD PUSH2 0x1398 JUMP JUMPDEST ADD SWAP4 DUP5 ADD MSTORE DUP10 MLOAD PUSH1 0x4B SWAP4 PUSH2 0x2338 DUP3 DUP7 DUP4 ADD PUSH1 0x20 DUP16 ADD PUSH2 0x1398 JUMP JUMPDEST ADD SWAP1 PUSH20 0x4440E8E4C2DCE6CCDEE4DA7A44E4DEE8C2E8CA5 PUSH1 0x63 SHL DUP5 DUP4 ADD MSTORE PUSH1 0x5F SWAP2 PUSH2 0x236C DUP3 MLOAD DUP1 SWAP4 PUSH1 0x20 DUP7 DUP6 ADD SWAP2 ADD PUSH2 0x1398 JUMP JUMPDEST PUSH12 0x10191818101918181491179F PUSH1 0xA1 SHL SWAP2 ADD SWAP2 DUP3 ADD MSTORE SUB SWAP1 DUP2 ADD DUP5 MSTORE ADD DUP3 PUSH2 0x148B JUMP JUMPDEST SWAP5 ADD SWAP1 PUSH2 0x1AA4 JUMP JUMPDEST PUSH4 0x4E487B71 PUSH1 0xE0 SHL PUSH1 0x0 MSTORE PUSH1 0x12 PUSH1 0x4 MSTORE PUSH1 0x24 PUSH1 0x0 REVERT JUMPDEST SWAP2 SWAP1 SWAP2 PUSH1 0x0 SWAP1 DUP1 DUP3 MSTORE PUSH1 0x20 SWAP2 PUSH1 0x6 DUP4 MSTORE PUSH1 0x40 DUP2 KECCAK256 SWAP1 DUP6 MLOAD SWAP1 PUSH8 0xFFFFFFFFFFFFFFFF DUP3 GT PUSH2 0x250F JUMPI PUSH2 0x23DE DUP4 SLOAD PUSH2 0x13E0 JUMP JUMPDEST PUSH1 0x1F DUP2 GT PUSH2 0x24CC JUMPI JUMPDEST POP DUP5 SWAP1 PUSH1 0x1F DUP4 GT PUSH1 0x1 EQ PUSH2 0x2448 JUMPI SWAP1 PUSH32 0xF8E1A15ABA9398E019F0B49DF1A4FDE98EE17AE345CB5F6B5E2C27F5033E8CE7 SWAP7 SWAP8 DUP4 PUSH2 0x243D JUMPI JUMPDEST POP POP DUP2 PUSH1 0x1 SHL SWAP2 PUSH1 0x0 NOT SWAP1 PUSH1 0x3 SHL SHR NOT AND OR SWAP1 SSTORE JUMPDEST PUSH1 0x40 MLOAD SWAP1 DUP2 MSTORE LOG1 JUMP JUMPDEST ADD MLOAD SWAP1 POP CODESIZE DUP1 PUSH2 0x241F JUMP JUMPDEST SWAP2 SWAP7 PUSH1 0x1F NOT DUP9 AND DUP5 DUP5 MSTORE DUP7 DUP5 KECCAK256 SWAP4 JUMPDEST DUP2 DUP2 LT PUSH2 0x24B5 JUMPI POP SWAP2 PUSH1 0x1 SWAP4 SWAP2 DUP10 PUSH32 0xF8E1A15ABA9398E019F0B49DF1A4FDE98EE17AE345CB5F6B5E2C27F5033E8CE7 SWAP10 SWAP11 SWAP5 LT PUSH2 0x249C JUMPI JUMPDEST POP POP POP DUP2 SHL ADD SWAP1 SSTORE PUSH2 0x2434 JUMP JUMPDEST ADD MLOAD PUSH1 0x0 NOT PUSH1 0xF8 DUP5 PUSH1 0x3 SHL AND SHR NOT AND SWAP1 SSTORE CODESIZE DUP1 DUP1 PUSH2 0x248F JUMP JUMPDEST SWAP3 SWAP4 DUP8 PUSH1 0x1 DUP2 SWAP3 DUP8 DUP7 ADD MLOAD DUP2 SSTORE ADD SWAP6 ADD SWAP4 ADD PUSH2 0x2457 JUMP JUMPDEST DUP4 DUP3 MSTORE DUP6 DUP3 KECCAK256 PUSH1 0x1F DUP5 ADD PUSH1 0x5 SHR DUP2 ADD SWAP2 DUP8 DUP6 LT PUSH2 0x2505 JUMPI JUMPDEST PUSH1 0x1F ADD PUSH1 0x5 SHR ADD SWAP1 JUMPDEST DUP2 DUP2 LT PUSH2 0x24FA JUMPI POP PUSH2 0x23E7 JUMP JUMPDEST DUP3 DUP2 SSTORE PUSH1 0x1 ADD PUSH2 0x24ED JUMP JUMPDEST SWAP1 SWAP2 POP DUP2 SWAP1 PUSH2 0x24E4 JUMP JUMPDEST PUSH4 0x4E487B71 PUSH1 0xE0 SHL DUP2 MSTORE PUSH1 0x41 PUSH1 0x4 MSTORE PUSH1 0x24 SWAP1 REVERT JUMPDEST PUSH1 0x7 SLOAD PUSH1 0x1 PUSH1 0x1 PUSH1 0xA0 SHL SUB AND CALLER SUB PUSH2 0x2537 JUMPI JUMP JUMPDEST PUSH1 0x40 MLOAD PUSH4 0x118CDAA7 PUSH1 0xE0 SHL DUP2 MSTORE CALLER PUSH1 0x4 DUP3 ADD MSTORE PUSH1 0x24 SWAP1 REVERT JUMPDEST SWAP1 SWAP4 SWAP2 SWAP3 DUP4 EXTCODESIZE PUSH2 0x2561 JUMPI JUMPDEST POP POP POP POP POP JUMP JUMPDEST PUSH1 0x40 MLOAD PUSH4 0xA85BD01 PUSH1 0xE1 SHL DUP1 DUP3 MSTORE PUSH1 0x1 PUSH1 0x1 PUSH1 0xA0 SHL SUB SWAP4 DUP5 AND PUSH1 0x4 DUP4 ADD MSTORE SWAP6 DUP4 AND PUSH1 0x24 DUP3 ADD MSTORE PUSH1 0x44 DUP2 ADD SWAP2 SWAP1 SWAP2 MSTORE PUSH1 0x80 PUSH1 0x64 DUP3 ADD MSTORE SWAP5 SWAP3 AND SWAP3 PUSH1 0x20 SWAP3 SWAP2 DUP6 SWAP1 PUSH2 0x25AE SWAP1 PUSH1 0x84 DUP4 ADD SWAP1 PUSH2 0x13BB JUMP JUMPDEST SUB SWAP5 DUP4 DUP2 PUSH1 0x0 SWAP8 DUP2 DUP10 DUP10 GAS CALL DUP7 SWAP2 DUP2 PUSH2 0x2659 JUMPI JUMPDEST POP PUSH2 0x2623 JUMPI POP POP POP RETURNDATASIZE PUSH1 0x0 EQ PUSH2 0x261A JUMPI RETURNDATASIZE PUSH2 0x25DC DUP2 PUSH2 0x15C0 JUMP JUMPDEST SWAP1 PUSH2 0x25EA PUSH1 0x40 MLOAD SWAP3 DUP4 PUSH2 0x148B JUMP JUMPDEST DUP2 MSTORE DUP1 SWAP4 DUP3 RETURNDATASIZE SWAP3 ADD RETURNDATACOPY JUMPDEST DUP3 MLOAD SWAP3 DUP4 PUSH2 0x2615 JUMPI PUSH1 0x40 MLOAD PUSH4 0x32505749 PUSH1 0xE1 SHL DUP2 MSTORE PUSH1 0x4 DUP2 ADD DUP5 SWAP1 MSTORE PUSH1 0x24 SWAP1 REVERT JUMPDEST ADD SWAP1 POP REVERT JUMPDEST PUSH1 0x60 SWAP3 POP PUSH2 0x25F4 JUMP JUMPDEST SWAP2 SWAP5 POP SWAP2 POP PUSH4 0xFFFFFFFF PUSH1 0xE0 SHL AND SUB PUSH2 0x2641 JUMPI POP CODESIZE DUP1 DUP1 DUP1 DUP1 PUSH2 0x255A JUMP JUMPDEST PUSH1 0x24 SWAP1 PUSH1 0x40 MLOAD SWAP1 PUSH4 0x32505749 PUSH1 0xE1 SHL DUP3 MSTORE PUSH1 0x4 DUP3 ADD MSTORE REVERT JUMPDEST SWAP1 SWAP2 POP DUP5 DUP2 DUP2 RETURNDATASIZE DUP4 GT PUSH2 0x2696 JUMPI JUMPDEST PUSH2 0x2671 DUP2 DUP4 PUSH2 0x148B JUMP JUMPDEST DUP2 ADD SUB SLT PUSH2 0x2692 JUMPI MLOAD PUSH1 0x1 PUSH1 0x1 PUSH1 0xE0 SHL SUB NOT DUP2 AND DUP2 SUB PUSH2 0x2692 JUMPI SWAP1 CODESIZE PUSH2 0x25C2 JUMP JUMPDEST DUP7 DUP1 REVERT JUMPDEST POP RETURNDATASIZE PUSH2 0x2667 JUMP JUMPDEST PUSH1 0x8 DUP2 LT ISZERO PUSH2 0xA29 JUMPI DUP1 ISZERO PUSH2 0x2806 JUMPI PUSH1 0x1 DUP2 EQ PUSH2 0x27E5 JUMPI PUSH1 0x2 DUP2 EQ PUSH2 0x27BE JUMPI PUSH1 0x3 DUP2 EQ PUSH2 0x279B JUMPI PUSH1 0x4 DUP2 EQ PUSH2 0x2776 JUMPI PUSH1 0x5 DUP2 EQ PUSH2 0x2752 JUMPI PUSH1 0x6 DUP2 EQ PUSH2 0x2728 JUMPI PUSH1 0x7 EQ PUSH2 0x2706 JUMPI PUSH1 0x40 MLOAD PUSH2 0x26EF DUP2 PUSH2 0x1453 JUMP JUMPDEST PUSH1 0x7 DUP2 MSTORE PUSH7 0x2AB735B737BBB7 PUSH1 0xC9 SHL PUSH1 0x20 DUP3 ADD MSTORE SWAP1 JUMP JUMPDEST PUSH1 0x40 MLOAD PUSH2 0x2712 DUP2 PUSH2 0x1453 JUMP JUMPDEST PUSH1 0x6 DUP2 MSTORE PUSH6 0x2BB7B73232B9 PUSH1 0xD1 SHL PUSH1 0x20 DUP3 ADD MSTORE SWAP1 JUMP JUMPDEST POP PUSH1 0x40 MLOAD PUSH2 0x2735 DUP2 PUSH2 0x1453 JUMP JUMPDEST PUSH1 0xD DUP2 MSTORE PUSH13 0x21B7B73A32B6B83630BA34B7B7 PUSH1 0x99 SHL PUSH1 0x20 DUP3 ADD MSTORE SWAP1 JUMP JUMPDEST POP PUSH1 0x40 MLOAD PUSH2 0x275F DUP2 PUSH2 0x1453 JUMP JUMPDEST PUSH1 0x7 DUP2 MSTORE PUSH7 0x2830B9B9B4B7B7 PUSH1 0xC9 SHL PUSH1 0x20 DUP3 ADD MSTORE SWAP1 JUMP JUMPDEST POP PUSH1 0x40 MLOAD PUSH2 0x2783 DUP2 PUSH2 0x1453 JUMP JUMPDEST PUSH1 0x8 DUP2 MSTORE PUSH8 0x536572656E697479 PUSH1 0xC0 SHL PUSH1 0x20 DUP3 ADD MSTORE SWAP1 JUMP JUMPDEST POP PUSH1 0x40 MLOAD PUSH2 0x27A8 DUP2 PUSH2 0x1453 JUMP JUMPDEST PUSH1 0x6 DUP2 MSTORE PUSH6 0x456E65726779 PUSH1 0xD0 SHL PUSH1 0x20 DUP3 ADD MSTORE SWAP1 JUMP JUMPDEST POP PUSH1 0x40 MLOAD PUSH2 0x27CB DUP2 PUSH2 0x1453 JUMP JUMPDEST PUSH1 0xA DUP2 MSTORE PUSH10 0x4D656C616E63686F6C79 PUSH1 0xB0 SHL PUSH1 0x20 DUP3 ADD MSTORE SWAP1 JUMP JUMPDEST POP PUSH1 0x40 MLOAD PUSH2 0x27F2 DUP2 PUSH2 0x1453 JUMP JUMPDEST PUSH1 0x4 DUP2 MSTORE PUSH4 0x43616C6D PUSH1 0xE0 SHL PUSH1 0x20 DUP3 ADD MSTORE SWAP1 JUMP JUMPDEST POP PUSH1 0x40 MLOAD PUSH2 0x2813 DUP2 PUSH2 0x1453 JUMP JUMPDEST PUSH1 0x3 DUP2 MSTORE PUSH3 0x4A6F79 PUSH1 0xE8 SHL PUSH1 0x20 DUP3 ADD MSTORE SWAP1 JUMP JUMPDEST DUP1 PUSH1 0x0 SWAP2 PUSH27 0x184F03E93FF9F4DAA797ED6E38ED64BF6A1F010000000000000000 DUP1 DUP3 LT ISZERO PUSH2 0x2981 JUMPI JUMPDEST POP PUSH14 0x4EE2D6D415B85ACEF8100000000 DUP1 DUP4 LT ISZERO PUSH2 0x2972 JUMPI JUMPDEST POP PUSH7 0x2386F26FC10000 DUP1 DUP4 LT ISZERO PUSH2 0x2963 JUMPI JUMPDEST POP PUSH4 0x5F5E100 DUP1 DUP4 LT ISZERO PUSH2 0x2954 JUMPI JUMPDEST POP PUSH2 0x2710 DUP1 DUP4 LT ISZERO PUSH2 0x2945 JUMPI JUMPDEST POP PUSH1 0x64 DUP3 LT ISZERO PUSH2 0x2935 JUMPI JUMPDEST PUSH1 0xA DUP1 SWAP3 LT ISZERO PUSH2 0x292B JUMPI JUMPDEST PUSH1 0x1 SWAP1 DUP2 PUSH1 0x21 PUSH1 0x1 DUP7 ADD SWAP6 PUSH2 0x28C0 DUP8 PUSH2 0x15C0 JUMP JUMPDEST SWAP7 PUSH2 0x28CE PUSH1 0x40 MLOAD SWAP9 DUP10 PUSH2 0x148B JUMP JUMPDEST DUP1 DUP9 MSTORE PUSH2 0x28DD PUSH1 0x1F NOT SWAP2 PUSH2 0x15C0 JUMP JUMPDEST ADD CALLDATASIZE PUSH1 0x20 DUP10 ADD CALLDATACOPY DUP7 ADD ADD SWAP1 JUMPDEST PUSH2 0x28F5 JUMPI JUMPDEST POP POP POP POP SWAP1 JUMP JUMPDEST PUSH1 0x0 NOT ADD SWAP1 DUP4 SWAP1 PUSH16 0x181899199A1A9B1B9C1CB0B131B232B3 PUSH1 0x81 SHL DUP3 DUP3 MOD BYTE DUP4 MSTORE8 DIV SWAP2 DUP3 ISZERO PUSH2 0x2926 JUMPI SWAP2 SWAP1 DUP3 PUSH2 0x28E9 JUMP JUMPDEST PUSH2 0x28EE JUMP JUMPDEST SWAP2 PUSH1 0x1 ADD SWAP2 PUSH2 0x28AC JUMP JUMPDEST SWAP2 SWAP1 PUSH1 0x64 PUSH1 0x2 SWAP2 DIV SWAP2 ADD SWAP2 PUSH2 0x28A1 JUMP JUMPDEST PUSH1 0x4 SWAP2 SWAP4 SWAP3 DIV SWAP2 ADD SWAP2 CODESIZE PUSH2 0x2896 JUMP JUMPDEST PUSH1 0x8 SWAP2 SWAP4 SWAP3 DIV SWAP2 ADD SWAP2 CODESIZE PUSH2 0x2889 JUMP JUMPDEST PUSH1 0x10 SWAP2 SWAP4 SWAP3 DIV SWAP2 ADD SWAP2 CODESIZE PUSH2 0x287A JUMP JUMPDEST PUSH1 0x20 SWAP2 SWAP4 SWAP3 DIV SWAP2 ADD SWAP2 CODESIZE PUSH2 0x2868 JUMP JUMPDEST PUSH1 0x40 SWAP4 POP DUP2 DIV SWAP2 POP CODESIZE PUSH2 0x284F JUMP JUMPDEST SWAP1 DUP2 PUSH1 0x50 MUL SWAP2 PUSH1 0x50 DUP4 SDIV SUB PUSH2 0x1949 JUMPI JUMP JUMPDEST PUSH1 0x57 ADD SWAP1 DUP2 PUSH1 0x57 GT PUSH2 0x1949 JUMPI JUMP JUMPDEST PUSH1 0x30 ADD SWAP1 DUP2 PUSH1 0x30 GT PUSH2 0x1949 JUMPI JUMP JUMPDEST DUP1 ISZERO PUSH2 0x2A62 JUMPI PUSH1 0x0 DUP2 DUP1 JUMPDEST PUSH2 0x2A4E JUMPI POP PUSH1 0x20 PUSH2 0x29FF PUSH2 0x162E SWAP3 PUSH1 0x1 DUP2 EQ PUSH1 0x0 EQ PUSH2 0x2A38 JUMPI PUSH1 0x40 MLOAD PUSH2 0x29EC DUP2 PUSH2 0x1453 JUMP JUMPDEST PUSH1 0x1 DUP2 MSTORE PUSH1 0x3 PUSH1 0xFC SHL DUP5 DUP3 ADD MSTORE SWAP5 PUSH2 0x2AFE JUMP JUMPDEST SWAP3 PUSH1 0x40 MLOAD SWAP4 DUP2 PUSH2 0x2A18 DUP7 SWAP4 MLOAD DUP1 SWAP3 DUP7 DUP1 DUP8 ADD SWAP2 ADD PUSH2 0x1398 JUMP JUMPDEST DUP3 ADD PUSH2 0x2A2C DUP3 MLOAD DUP1 SWAP4 DUP7 DUP1 DUP6 ADD SWAP2 ADD PUSH2 0x1398 JUMP JUMPDEST ADD SUB DUP1 DUP5 MSTORE ADD DUP3 PUSH2 0x148B JUMP JUMPDEST PUSH1 0x40 MLOAD PUSH2 0x2A44 DUP2 PUSH2 0x1437 JUMP JUMPDEST PUSH1 0x0 DUP2 MSTORE SWAP5 PUSH2 0x2AFE JUMP JUMPDEST SWAP1 PUSH2 0x2A58 SWAP1 PUSH2 0x193A JUMP JUMPDEST SWAP1 PUSH1 0x4 SHR DUP1 PUSH2 0x29C7 JUMP JUMPDEST POP PUSH1 0x40 MLOAD PUSH2 0x2A6F DUP2 PUSH2 0x1453 JUMP JUMPDEST PUSH1 0x2 DUP2 MSTORE PUSH2 0x303 PUSH1 0xF4 SHL PUSH1 0x20 DUP3 ADD MSTORE SWAP1 JUMP JUMPDEST PUSH2 0x168 SWAP1 MOD DUP1 ISZERO PUSH2 0x2ABB JUMPI PUSH1 0x5A DUP2 EQ PUSH2 0x2AB5 JUMPI PUSH1 0xB4 DUP2 EQ PUSH2 0x2AAE JUMPI PUSH2 0x10E EQ PUSH2 0x2AA9 JUMPI PUSH1 0x0 SWAP1 JUMP JUMPDEST PUSH1 0x0 SWAP1 JUMP JUMPDEST POP PUSH1 0x0 NOT SWAP1 JUMP JUMPDEST POP PUSH1 0x0 SWAP1 JUMP JUMPDEST POP PUSH1 0x1 SWAP1 JUMP JUMPDEST PUSH2 0x168 SWAP1 MOD DUP1 ISZERO PUSH2 0x2AB5 JUMPI PUSH1 0x5A DUP2 EQ PUSH2 0x2ABB JUMPI PUSH1 0xB4 DUP2 EQ PUSH2 0x2AB5 JUMPI PUSH2 0x10E EQ PUSH2 0x2AE9 JUMPI PUSH1 0x0 SWAP1 JUMP JUMPDEST PUSH1 0x0 NOT SWAP1 JUMP JUMPDEST PUSH1 0x0 NOT DUP2 ADD SWAP2 SWAP1 DUP3 GT PUSH2 0x1949 JUMPI JUMP JUMPDEST DUP1 ISZERO PUSH2 0x2BA3 JUMPI PUSH2 0x2B6F SWAP1 PUSH2 0x2B66 PUSH1 0xF DUP3 AND PUSH1 0xA DUP2 LT ISZERO PUSH2 0x2B91 JUMPI PUSH2 0x2B60 PUSH2 0x2B30 PUSH2 0x2B2A PUSH2 0x2B52 SWAP4 PUSH2 0x29AE JUMP JUMPDEST PUSH1 0xFF AND SWAP1 JUMP JUMPDEST PUSH1 0x40 MLOAD PUSH1 0xF8 SWAP2 SWAP1 SWAP2 SHL PUSH1 0x1 PUSH1 0x1 PUSH1 0xF8 SHL SUB NOT AND PUSH1 0x20 DUP3 ADD MSTORE SWAP2 DUP3 SWAP1 PUSH1 0x21 DUP3 ADD SWAP1 JUMP JUMPDEST SUB PUSH1 0x1F NOT DUP2 ADD DUP4 MSTORE DUP3 PUSH2 0x148B JUMP JUMPDEST SWAP4 PUSH2 0x2AEF JUMP JUMPDEST SWAP1 PUSH1 0x4 SHR PUSH2 0x2AFE JUMP JUMPDEST PUSH2 0x2B8B SWAP2 PUSH2 0x2B52 PUSH2 0x162E SWAP3 SWAP2 PUSH1 0x40 MLOAD SWAP5 DUP6 SWAP4 PUSH1 0x20 DUP6 ADD SWAP1 PUSH2 0x199A JUMP JUMPDEST SWAP1 PUSH2 0x199A JUMP JUMPDEST PUSH2 0x2B60 PUSH2 0x2B30 PUSH2 0x2B2A PUSH2 0x2B52 SWAP4 PUSH2 0x29A0 JUMP JUMPDEST POP POP PUSH2 0x162E PUSH2 0x18A3 JUMP INVALID LOG2 PUSH5 0x6970667358 0x22 SLT KECCAK256 0x25 0x25 PUSH16 0x9DB41003739D551CCD68FB475B767100 0xBE DUP13 CALLDATASIZE 0xB7 MUL 0xBA 0xE5 SIGNEXTEND 0xD5 EXTCODECOPY SDIV BALANCE BLOBBASEFEE PUSH5 0x736F6C6343 STOP ADDMOD XOR STOP CALLER "},"methodIdentifiers":{"approve(address,uint256)":"095ea7b3","balanceOf(address)":"70a08231","flowerData(uint256)":"083760f1","getApproved(uint256)":"081812fc","getFlowerData(uint256)":"1f682187","getTokensByOwner(address)":"40398d67","isApprovedForAll(address,address)":"e985e9c5","mintFlower(uint8,string,uint256,uint256,uint256,uint256,bool)":"776a5a35","name()":"06fdde03","owner()":"8da5cb5b","ownerOf(uint256)":"6352211e","renounceOwnership()":"715018a6","safeTransferFrom(address,address,uint256)":"42842e0e","safeTransferFrom(address,address,uint256,bytes)":"b88d4fde","setApprovalForAll(address,bool)":"a22cb465","supportsInterface(bytes4)":"01ffc9a7","symbol()":"95d89b41","tokenURI(uint256)":"c87b56dd","transferFrom(address,address,uint256)":"23b872dd","transferOwnership(address)":"f2fde38b","updateFlower(uint256,uint8,string)":"5c2169e9","userTokens(address,uint256)":"f9f411d8"}}}}}