{"contracts/ShapeL2FlowerMoodJournal.sol":{"ShapeL2FlowerMoodJournal":{"abi":[{"inputs":[],"stateMutability":"nonpayable","type":"constructor"},{"inputs":[{"internalType":"address","name":"sender","type":"address"},{"internalType":"uint256","name":"tokenId","type":"uint256"},{"internalType":"address","name":"owner","type":"address"}],"name":"ERC721IncorrectOwner","type":"error"},{"inputs":[{"internalType":"address","name":"operator","type":"address"},{"internalType":"uint256","name":"tokenId","type":"uint256"}],"name":"ERC721InsufficientApproval","type":"error"},{"inputs":[{"internalType":"address","name":"approver","type":"address"}],"name":"ERC721InvalidApprover","type":"error"},{"inputs":[{"internalType":"address","name":"operator","type":"address"}],"name":"ERC721InvalidOperator","type":"error"},{"inputs":[{"internalType":"address","name":"owner","type":"address"}],"name":"ERC721InvalidOwner","type":"error"},{"inputs":[{"internalType":"address","name":"receiver","type":"address"}],"name":"ERC721InvalidReceiver","type":"error"},{"inputs":[{"internalType":"address","name":"sender","type":"address"}],"name":"ERC721InvalidSender","type":"error"},{"inputs":[{"internalType":"uint256","name":"tokenId","type":"uint256"}],"name":"ERC721NonexistentToken","type":"error"},{"inputs":[],"name":"EnforcedPause","type":"error"},{"inputs":[],"name":"ExpectedPause","type":"error"},{"inputs":[{"internalType":"address","name":"owner","type":"address"}],"name":"OwnableInvalidOwner","type":"error"},{"inputs":[{"internalType":"address","name":"account","type":"address"}],"name":"OwnableUnauthorizedAccount","type":"error"},{"anonymous":false,"inputs":[{"indexed":true,"internalType":"address","name":"owner","type":"address"},{"indexed":true,"internalType":"address","name":"approved","type":"address"},{"indexed":true,"internalType":"uint256","name":"tokenId","type":"uint256"}],"name":"Approval","type":"event"},{"anonymous":false,"inputs":[{"indexed":true,"internalType":"address","name":"owner","type":"address"},{"indexed":true,"internalType":"address","name":"operator","type":"address"},{"indexed":false,"internalType":"bool","name":"approved","type":"bool"}],"name":"ApprovalForAll","type":"event"},{"anonymous":false,"inputs":[],"name":"ArtFeaturesUpdated","type":"event"},{"anonymous":false,"inputs":[{"indexed":false,"internalType":"string","name":"version","type":"string"},{"indexed":false,"internalType":"uint256","name":"timestamp","type":"uint256"}],"name":"ArtVersionUpdated","type":"event"},{"anonymous":false,"inputs":[{"indexed":true,"internalType":"address","name":"user","type":"address"},{"indexed":false,"internalType":"uint256","name":"tokenId","type":"uint256"},{"indexed":false,"internalType":"uint256","name":"price","type":"uint256"}],"name":"FlowerMinted","type":"event"},{"anonymous":false,"inputs":[{"indexed":true,"internalType":"address","name":"user","type":"address"},{"indexed":false,"internalType":"uint256","name":"amount","type":"uint256"}],"name":"GasbackDistributed","type":"event"},{"anonymous":false,"inputs":[{"indexed":true,"internalType":"address","name":"user","type":"address"},{"indexed":false,"internalType":"uint8","name":"emotion","type":"uint8"},{"indexed":false,"internalType":"uint16","name":"conf","type":"uint16"},{"indexed":false,"internalType":"uint32","name":"ts","type":"uint32"}],"name":"MoodRecorded","type":"event"},{"anonymous":false,"inputs":[{"indexed":true,"internalType":"address","name":"previousOwner","type":"address"},{"indexed":true,"internalType":"address","name":"newOwner","type":"address"}],"name":"OwnershipTransferred","type":"event"},{"anonymous":false,"inputs":[{"indexed":false,"internalType":"address","name":"account","type":"address"}],"name":"Paused","type":"event"},{"anonymous":false,"inputs":[{"indexed":true,"internalType":"address","name":"user","type":"address"},{"indexed":false,"internalType":"uint16","name":"newStreak","type":"uint16"},{"indexed":false,"internalType":"uint16","name":"maxStreak","type":"uint16"}],"name":"StreakUpdated","type":"event"},{"anonymous":false,"inputs":[{"indexed":true,"internalType":"address","name":"from","type":"address"},{"indexed":true,"internalType":"address","name":"to","type":"address"},{"indexed":true,"internalType":"uint256","name":"tokenId","type":"uint256"}],"name":"Transfer","type":"event"},{"anonymous":false,"inputs":[{"indexed":false,"internalType":"address","name":"account","type":"address"}],"name":"Unpaused","type":"event"},{"anonymous":false,"inputs":[{"indexed":true,"internalType":"address","name":"user","type":"address"},{"indexed":false,"internalType":"uint256","name":"rank","type":"uint256"},{"indexed":false,"internalType":"uint256","name":"averageScore","type":"uint256"}],"name":"UserRankingUpdated","type":"event"},{"inputs":[],"name":"FREE_ENTRIES","outputs":[{"internalType":"uint256","name":"","type":"uint256"}],"stateMutability":"view","type":"function"},{"inputs":[],"name":"GASBACK_PERCENTAGE","outputs":[{"internalType":"uint256","name":"","type":"uint256"}],"stateMutability":"view","type":"function"},{"inputs":[],"name":"MAX_PER_WALLET","outputs":[{"internalType":"uint256","name":"","type":"uint256"}],"stateMutability":"view","type":"function"},{"inputs":[],"name":"MAX_SUPPLY","outputs":[{"internalType":"uint256","name":"","type":"uint256"}],"stateMutability":"view","type":"function"},{"inputs":[],"name":"PREMIUM_COST","outputs":[{"internalType":"uint256","name":"","type":"uint256"}],"stateMutability":"view","type":"function"},{"inputs":[{"internalType":"address","name":"to","type":"address"},{"internalType":"uint256","name":"tokenId","type":"uint256"}],"name":"approve","outputs":[],"stateMutability":"nonpayable","type":"function"},{"inputs":[],"name":"artFeatures","outputs":[{"internalType":"bool","name":"beeEnabled","type":"bool"},{"internalType":"bool","name":"soundEnabled","type":"bool"},{"internalType":"bool","name":"particleEffects","type":"bool"},{"internalType":"bool","name":"advancedLighting","type":"bool"},{"internalType":"bool","name":"weatherEffects","type":"bool"},{"internalType":"bool","name":"timeOfDay","type":"bool"},{"internalType":"bool","name":"communityInfluence","type":"bool"},{"internalType":"bool","name":"tradingActivity","type":"bool"},{"internalType":"uint256","name":"artComplexity","type":"uint256"},{"internalType":"uint256","name":"animationSpeed","type":"uint256"},{"internalType":"uint256","name":"colorPalette","type":"uint256"},{"internalType":"uint256","name":"specialEffects","type":"uint256"}],"stateMutability":"view","type":"function"},{"inputs":[{"internalType":"address","name":"owner","type":"address"}],"name":"balanceOf","outputs":[{"internalType":"uint256","name":"","type":"uint256"}],"stateMutability":"view","type":"function"},{"inputs":[],"name":"claimGasback","outputs":[],"stateMutability":"nonpayable","type":"function"},{"inputs":[],"name":"commStats","outputs":[{"internalType":"uint128","name":"totalScore","type":"uint128"},{"internalType":"uint64","name":"participants","type":"uint64"},{"internalType":"uint64","name":"lastUpdate","type":"uint64"},{"internalType":"uint128","name":"avgMood","type":"uint128"}],"stateMutability":"view","type":"function"},{"inputs":[],"name":"currentArt","outputs":[{"internalType":"string","name":"version","type":"string"},{"internalType":"string","name":"htmlArt","type":"string"},{"internalType":"string","name":"artAssets","type":"string"},{"internalType":"uint256","name":"timestamp","type":"uint256"},{"internalType":"bool","name":"active","type":"bool"}],"stateMutability":"view","type":"function"},{"inputs":[],"name":"emergencyPause","outputs":[],"stateMutability":"nonpayable","type":"function"},{"inputs":[{"internalType":"uint256","name":"tokenId","type":"uint256"}],"name":"getApproved","outputs":[{"internalType":"address","name":"","type":"address"}],"stateMutability":"view","type":"function"},{"inputs":[],"name":"getArtHTML","outputs":[{"internalType":"string","name":"","type":"string"}],"stateMutability":"view","type":"function"},{"inputs":[],"name":"getArtVersion","outputs":[{"internalType":"string","name":"version","type":"string"},{"internalType":"uint256","name":"timestamp","type":"uint256"}],"stateMutability":"view","type":"function"},{"inputs":[],"name":"getCommunityAverageMood","outputs":[{"internalType":"uint256","name":"","type":"uint256"}],"stateMutability":"view","type":"function"},{"inputs":[],"name":"getCommunityStats","outputs":[{"internalType":"uint256","name":"totalParticipants","type":"uint256"},{"internalType":"uint256","name":"averageCommunityMood","type":"uint256"},{"internalType":"uint256","name":"totalMoodEntries","type":"uint256"},{"internalType":"uint256","name":"averageStreakLength","type":"uint256"},{"internalType":"uint256","name":"highestStreak","type":"uint256"}],"stateMutability":"view","type":"function"},{"inputs":[],"name":"getContractBalance","outputs":[{"internalType":"uint256","name":"","type":"uint256"}],"stateMutability":"view","type":"function"},{"inputs":[],"name":"getCurrentMintPrice","outputs":[{"internalType":"uint256","name":"","type":"uint256"}],"stateMutability":"view","type":"function"},{"inputs":[{"internalType":"string","name":"emotion","type":"string"}],"name":"getEmotionCode","outputs":[{"internalType":"uint8","name":"","type":"uint8"}],"stateMutability":"pure","type":"function"},{"inputs":[{"internalType":"uint8","name":"emotionCode","type":"uint8"}],"name":"getEmotionString","outputs":[{"internalType":"string","name":"","type":"string"}],"stateMutability":"pure","type":"function"},{"inputs":[{"internalType":"address","name":"user","type":"address"},{"internalType":"uint256","name":"numDays","type":"uint256"}],"name":"getMoodTrend","outputs":[{"internalType":"uint256[]","name":"","type":"uint256[]"}],"stateMutability":"view","type":"function"},{"inputs":[{"internalType":"address","name":"user","type":"address"}],"name":"getStreakFeatures","outputs":[{"internalType":"bool","name":"beeAppearance","type":"bool"},{"internalType":"bool","name":"beeRangeControl","type":"bool"},{"internalType":"bool","name":"stalkGrowth","type":"bool"},{"internalType":"bool","name":"glowIntensity","type":"bool"},{"internalType":"bool","name":"rotationSpeed","type":"bool"}],"stateMutability":"view","type":"function"},{"inputs":[{"internalType":"uint256","name":"count","type":"uint256"}],"name":"getTopUsers","outputs":[{"internalType":"address[]","name":"users","type":"address[]"},{"internalType":"uint256[]","name":"ranks","type":"uint256[]"},{"internalType":"uint256[]","name":"scores","type":"uint256[]"}],"stateMutability":"view","type":"function"},{"inputs":[{"internalType":"address","name":"user","type":"address"}],"name":"getUserMoodHistory","outputs":[{"components":[{"internalType":"uint32","name":"ts","type":"uint32"},{"internalType":"uint16","name":"conf","type":"uint16"},{"internalType":"uint8","name":"emotion","type":"uint8"},{"internalType":"uint8","name":"entropy","type":"uint8"},{"internalType":"uint8","name":"gap","type":"uint8"},{"internalType":"uint8[5]","name":"probs","type":"uint8[5]"}],"internalType":"struct ShapeL2FlowerMoodJournal.MoodEntry[]","name":"entries","type":"tuple[]"},{"internalType":"uint16","name":"currentStreak","type":"uint16"},{"internalType":"uint16","name":"maxStreak","type":"uint16"},{"internalType":"uint16","name":"totalEntries","type":"uint16"}],"stateMutability":"view","type":"function"},{"inputs":[{"internalType":"address","name":"user","type":"address"}],"name":"getUserRanking","outputs":[{"internalType":"uint256","name":"rank","type":"uint256"},{"internalType":"uint256","name":"totalMoodScore","type":"uint256"},{"internalType":"uint256","name":"averageMoodScore","type":"uint256"},{"internalType":"uint256","name":"streakCount","type":"uint256"},{"internalType":"uint256","name":"maxStreak","type":"uint256"},{"internalType":"uint256","name":"totalEntries","type":"uint256"}],"stateMutability":"view","type":"function"},{"inputs":[{"internalType":"address","name":"owner","type":"address"},{"internalType":"address","name":"operator","type":"address"}],"name":"isApprovedForAll","outputs":[{"internalType":"bool","name":"","type":"bool"}],"stateMutability":"view","type":"function"},{"inputs":[{"internalType":"uint8","name":"emotion","type":"uint8"},{"internalType":"uint16","name":"conf","type":"uint16"},{"internalType":"uint8[5]","name":"probs","type":"uint8[5]"},{"internalType":"uint8","name":"entropy","type":"uint8"},{"internalType":"uint8","name":"gap","type":"uint8"}],"name":"mintFlowerNFT","outputs":[],"stateMutability":"payable","type":"function"},{"inputs":[],"name":"name","outputs":[{"internalType":"string","name":"","type":"string"}],"stateMutability":"view","type":"function"},{"inputs":[{"internalType":"uint256","name":"","type":"uint256"}],"name":"nftOwner","outputs":[{"internalType":"address","name":"","type":"address"}],"stateMutability":"view","type":"function"},{"inputs":[],"name":"owner","outputs":[{"internalType":"address","name":"","type":"address"}],"stateMutability":"view","type":"function"},{"inputs":[{"internalType":"uint256","name":"tokenId","type":"uint256"}],"name":"ownerOf","outputs":[{"internalType":"address","name":"","type":"address"}],"stateMutability":"view","type":"function"},{"inputs":[],"name":"paused","outputs":[{"internalType":"bool","name":"","type":"bool"}],"stateMutability":"view","type":"function"},{"inputs":[],"name":"pricing","outputs":[{"internalType":"uint128","name":"currentPrice","type":"uint128"},{"internalType":"uint64","name":"lastMint","type":"uint64"},{"internalType":"uint64","name":"totalMinted","type":"uint64"},{"internalType":"uint128","name":"basePrice","type":"uint128"},{"internalType":"uint128","name":"introPrice","type":"uint128"}],"stateMutability":"view","type":"function"},{"inputs":[{"internalType":"uint256","name":"","type":"uint256"}],"name":"rankedUsers","outputs":[{"internalType":"address","name":"","type":"address"}],"stateMutability":"view","type":"function"},{"inputs":[{"internalType":"uint8","name":"emotion","type":"uint8"},{"internalType":"uint16","name":"conf","type":"uint16"},{"internalType":"uint8[5]","name":"probs","type":"uint8[5]"},{"internalType":"uint8","name":"entropy","type":"uint8"},{"internalType":"uint8","name":"gap","type":"uint8"},{"internalType":"uint16","name":"nftId","type":"uint16"}],"name":"recordMood","outputs":[],"stateMutability":"payable","type":"function"},{"inputs":[],"name":"renounceOwnership","outputs":[],"stateMutability":"nonpayable","type":"function"},{"inputs":[{"internalType":"address","name":"from","type":"address"},{"internalType":"address","name":"to","type":"address"},{"internalType":"uint256","name":"tokenId","type":"uint256"}],"name":"safeTransferFrom","outputs":[],"stateMutability":"nonpayable","type":"function"},{"inputs":[{"internalType":"address","name":"from","type":"address"},{"internalType":"address","name":"to","type":"address"},{"internalType":"uint256","name":"tokenId","type":"uint256"},{"internalType":"bytes","name":"data","type":"bytes"}],"name":"safeTransferFrom","outputs":[],"stateMutability":"nonpayable","type":"function"},{"inputs":[{"internalType":"address","name":"operator","type":"address"},{"internalType":"bool","name":"approved","type":"bool"}],"name":"setApprovalForAll","outputs":[],"stateMutability":"nonpayable","type":"function"},{"inputs":[{"internalType":"bytes4","name":"interfaceId","type":"bytes4"}],"name":"supportsInterface","outputs":[{"internalType":"bool","name":"","type":"bool"}],"stateMutability":"view","type":"function"},{"inputs":[],"name":"symbol","outputs":[{"internalType":"string","name":"","type":"string"}],"stateMutability":"view","type":"function"},{"inputs":[{"internalType":"uint256","name":"tokenId","type":"uint256"}],"name":"tokenURI","outputs":[{"internalType":"string","name":"","type":"string"}],"stateMutability":"view","type":"function"},{"inputs":[],"name":"totalGasbackDistributed","outputs":[{"internalType":"uint256","name":"","type":"uint256"}],"stateMutability":"view","type":"function"},{"inputs":[{"internalType":"address","name":"from","type":"address"},{"internalType":"address","name":"to","type":"address"},{"internalType":"uint256","name":"tokenId","type":"uint256"}],"name":"transferFrom","outputs":[],"stateMutability":"nonpayable","type":"function"},{"inputs":[{"internalType":"address","name":"newOwner","type":"address"}],"name":"transferOwnership","outputs":[],"stateMutability":"nonpayable","type":"function"},{"inputs":[],"name":"unpause","outputs":[],"stateMutability":"nonpayable","type":"function"},{"inputs":[{"internalType":"bool","name":"beeEnabled","type":"bool"},{"internalType":"bool","name":"soundEnabled","type":"bool"},{"internalType":"bool","name":"particleEffects","type":"bool"},{"internalType":"bool","name":"advancedLighting","type":"bool"},{"internalType":"bool","name":"weatherEffects","type":"bool"},{"internalType":"bool","name":"timeOfDay","type":"bool"},{"internalType":"bool","name":"communityInfluence","type":"bool"},{"internalType":"bool","name":"tradingActivity","type":"bool"},{"internalType":"uint256","name":"artComplexity","type":"uint256"},{"internalType":"uint256","name":"animationSpeed","type":"uint256"},{"internalType":"uint256","name":"colorPalette","type":"uint256"},{"internalType":"uint256","name":"specialEffects","type":"uint256"}],"name":"updateArtFeatures","outputs":[],"stateMutability":"nonpayable","type":"function"},{"inputs":[{"internalType":"string","name":"version","type":"string"},{"internalType":"string","name":"htmlArt","type":"string"},{"internalType":"string","name":"artAssets","type":"string"}],"name":"updateArtVersion","outputs":[],"stateMutability":"nonpayable","type":"function"},{"inputs":[{"internalType":"address","name":"","type":"address"}],"name":"userGasbackBalance","outputs":[{"internalType":"uint256","name":"","type":"uint256"}],"stateMutability":"view","type":"function"},{"inputs":[{"internalType":"address","name":"","type":"address"}],"name":"userHist","outputs":[{"internalType":"uint32","name":"lastDate","type":"uint32"},{"internalType":"uint16","name":"dailyCount","type":"uint16"},{"internalType":"uint16","name":"total","type":"uint16"},{"internalType":"uint16","name":"streak","type":"uint16"},{"internalType":"uint16","name":"maxStreak","type":"uint16"},{"internalType":"uint16","name":"nftId","type":"uint16"}],"stateMutability":"view","type":"function"},{"inputs":[{"internalType":"address","name":"","type":"address"}],"name":"userMintCount","outputs":[{"internalType":"uint256","name":"","type":"uint256"}],"stateMutability":"view","type":"function"},{"inputs":[{"internalType":"address","name":"","type":"address"}],"name":"userRankings","outputs":[{"internalType":"uint256","name":"totalMoodScore","type":"uint256"},{"internalType":"uint256","name":"averageMoodScore","type":"uint256"},{"internalType":"uint256","name":"streakCount","type":"uint256"},{"internalType":"uint256","name":"maxStreak","type":"uint256"},{"internalType":"uint256","name":"totalEntries","type":"uint256"},{"internalType":"uint256","name":"lastUpdateTime","type":"uint256"},{"internalType":"uint256","name":"rank","type":"uint256"}],"stateMutability":"view","type":"function"},{"inputs":[],"name":"withdraw","outputs":[],"stateMutability":"nonpayable","type":"function"},{"stateMutability":"payable","type":"receive"}],"evm":{"bytecode":{"linkReferences":{},"object":"604060808152346200042a57620000156200042f565b600a8152602069119b1bddd95c8813919560b21b81830152620000376200042f565b6006815265232627aba2a960d11b8282015282516001600160401b0392909183831162000414576000928354906001968783811c9316801562000409575b8584101462000313578190601f93848111620003b6575b5085908483116001146200035257879262000346575b5050600019600383901b1c191690871b1784555b815191858311620003325786548781811c9116801562000327575b85821014620003135790818385949311620002be575b50849183116001146200025a5785926200024e575b5050600019600383901b1c191690851b1784555b3315620002365760068054336001600160a01b0319821681179092556001600160a01b03167f8be0079c531659141344cd1fd0a4f28419497f9722a3daafe3b4186f6b6457e08480a3760eebe0b40e800000000000000000000018838370f34000600e55600d80546001600160801b031916660eebe0b40e80001790558451926101808401908111848210176200022257918085949261016094885285845283015280868301528060608301528060808301528060a08301528360c083015260e0820152600561010082015282610120820152826101408201520152660100000000000160018060401b0319601654161760165560056017558060185580601955601a5551613eb49081620004508239f35b634e487b7160e01b83526041600452602483fd5b8451631e4fbdf760e01b815260048101839052602490fd5b015190503880620000fc565b8786528486208894509190601f198416875b87828210620002a757505084116200028d575b505050811b01845562000110565b015160001960f88460031b161c191690553880806200027f565b8385015186558b979095019493840193016200026c565b909192508786528486208380860160051c82019287871062000309575b9186958b929594930160051c01915b828110620002fa575050620000e7565b8881558695508a9101620002ea565b92508192620002db565b634e487b7160e01b86526022600452602486fd5b90607f1690620000d1565b634e487b7160e01b85526041600452602485fd5b015190503880620000a2565b8780528688208a94509190601f198416895b898282106200039f575050841162000385575b505050811b018455620000b6565b015160001960f88460031b161c1916905538808062000377565b8385015186558d9790950194938401930162000364565b9091508680528587208480850160051c820192888610620003ff575b918b91869594930160051c01915b828110620003f05750506200008c565b8981558594508b9101620003e0565b92508192620003d2565b92607f169262000075565b634e487b7160e01b600052604160045260246000fd5b600080fd5b60408051919082016001600160401b03811183821017620004145760405256fe60806040818152600480361015610021575b505050361561001f57600080fd5b005b600092833560e01c90816301ffc9a71461256b5750806306fdde03146124c3578063081812fc14612488578063095ea7b3146123ac5780630a137ffe1461238a5780630f2cdd6c1461236e578063174fab8f146122c75780631ad7595714611fb05780631fdf015014611f6a57806323b872dd14611f5257806328a1581914611df057806332cb6b0c14611dd35780633950891f14611d9b5780633a6dc2b714611d735780633ccfd60b14611d2d5780633d6931e814611cc05780633f4ba83a14611c5157806340f21be114611c1157806342842e0e14611be85780634c8bec8c14611b9b57806351858e2714611b3a5780635c975abb14611b13578063610359d9146119e05780636352211e146119af57806366fb782d146114e157806368ef5519146114225780636f2e178d146113a75780636f9fb98a1461138c57806370a0823114611337578063715018a6146112da57806377cdd5c51461129d5780637ce914111461124657806386865924146111dd5780638be523af146111b65780638da5cb5b1461118d57806395d89b41146110aa5780639d56e0471461108b578063a22cb46514610fee578063a88a68d514610fd2578063b2b4b8c314610f75578063b738f87e14610eef578063b88d4fde14610e88578063c075e3dd14610d6c578063c87b56dd146107fb578063d96b11f8146107c3578063db6b2a56146107a7578063dc41accc14610776578063de75aa6c1461060d578063e82ded21146105e9578063e985e9c51461059b578063ea2639d414610525578063f2fde38b14610496578063f78dc243146102b15763fd7318370361001157346102ad5760203660031901126102ad5735825260086020908152918190205490516001600160a01b039091168152f35b8280fd5b8284346104935760208060031936011261048f576001600160a01b036102d561261f565b168252600781528282209060019384830154908354946102f4866137ef565b9561030183519788612714565b808752848701809683528583208984925b8484106103ef5750505050508151956080808801918189525180925260a092838901979381925b8484106103685761ffff88881c81168c8b0152605089901c81168c890152603089901c1660608c01528a8a038bf35b909192939498888c918b5163ffffffff815116825261ffff8382015116838301528560ff91828c820151168c8501526060838183015116908501528287820151168785015201518683018589915b600583106103d6575050505050610140019a019401929190949394610339565b8351851681528f969384019392909101918791016103b6565b88600291889c979c51610401816126c3565b855463ffffffff8116825261ffff81851c16848301528a60ff808360301c168285015280606093818160381c16858701526080931c16828501528c805193898b0154918383168652838360081c1689870152838360101c1690860152828260181c1690850152861c169082015261047781612692565b60a08201528152019201920191908a90999499610312565b5080fd5b80fd5b50346102ad5760203660031901126102ad576104b061261f565b906104b9612a47565b6001600160a01b0391821692831561050f575050600654826bffffffffffffffffffffffff60a01b821617600655167f8be0079c531659141344cd1fd0a4f28419497f9722a3daafe3b4186f6b6457e08380a380f35b51631e4fbdf760e01b8152908101849052602490fd5b50346102ad5760203660031901126102ad5760e09282906001600160a01b0361054c61261f565b168152600f602052208054926001820154926002830154600384015491840154926006600586015495015495815197885260208801528601526060850152608084015260a083015260c0820152f35b50503461048f578060031936011261048f5760ff816020936105bb61261f565b6105c361263a565b6001600160a01b0391821683526005875283832091168252855220549151911615158152f35b50503461048f578160031936011261048f576020906106066137aa565b9051908152f35b5091903461048f57602092836003193601126102ad5760105490358181111561076f57505b61063b816137ef565b9261064883519485612714565b818452610654826137ef565b8486019590601f190136873761066983613806565b9161067384613806565b93815b8181106106e3575050845195606087019060608852518091526080870197915b8181106106c6578789038489015287806106c289896106b58e8b612a13565b9184830390850152612a13565b0390f35b82516001600160a01b031689529783019791830191600101610696565b806106f361076792999499612835565b90546003916001600160a01b039190831b1c81166107118488613838565b528061071c84612835565b905490841b1c168b52600f9182885260068b8d20015461073c858b613838565b5261074684612835565b9054911b1c168a5285526001888a2001546107618289613838565b5261378e565b969196610676565b9050610632565b50503461048f578160031936011261048f576106c29061079461297a565b90519182916020835260208301906125fa565b50503461048f578160031936011261048f576020905160038152f35b50503461048f57602036600319011261048f5760209181906001600160a01b036107eb61261f565b168152600a845220549051908152f35b508234610493576020918260031936011261048f5780356001600160a01b038061082483612d63565b1615610d325761083382612d63565b16835260078452848320600f855261084d86852092613db9565b81549092811580159290610d26576000198101818111610d13578861088360ff6108788d9489612e6e565b505460301c1661384c565b9415610cfb5750506000198101908111610ce857878461019094610945989794606461ffff6108b68f97610bfd9b612e6e565b5054861c1604915b60016108ce61ffff809516613db9565b940154936108fb6108e285878a1c16613db9565b946108f1818860501c16613db9565b9660301c16613db9565b91603161091860016109106006880154613db9565b960154613db9565b98519d8e809b707b226e616d65223a22466c6f776572202360781b8b8301528a81519485930191016125d7565b61088b60f21b6031918b01918201527f226465736372697074696f6e223a2241492d67656e65726174656420666c6f7760338201527f6572206261736564206f6e206d6f6f6420616e616c79736973222c000000000060538201526d2261747472696275746573223a5b60901b606e8201527f7b2274726169745f74797065223a22456d6f74696f6e222c2276616c7565223a607c820152601160f91b609c8201528151916109fc908390609d8401908b016125d7565b0162089f4b60ea1b94859283609d8401527f7b2274726169745f74797065223a22436f6e666964656e6365222c2276616c7560a08401526332911d1160e11b928360c0820152610a55825180938c60c4850191016125d7565b016309489f4b60e21b60c48201527f7b2274726169745f74797065223a2243757272656e742053747265616b222c2260c8820152673b30b63ab2911d1160c11b60e8820152610aad825180938b60f0850191016125d7565b01908260f08301527f7b2274726169745f74797065223a224d61782053747265616b222c2276616c7560f3830152610113820152855190610af782610117988a8a850191016125d7565b01948501527f7b2274726169745f74797065223a22546f74616c20456e7472696573222c227661011a850152826630b63ab2911d1160c91b948561013a820152825190610b4d82610141958a87850191016125d7565b01918201527f7b2274726169745f74797065223a2252616e6b222c2276616c7565223a220000610144820152610b8e825180936101629788850191016125d7565b01928301527f7b2274726169745f74797065223a22417665726167652053636f7265222c2276610165830152610185820152815190610bd68261018c948c86850191016125d7565b019061227d60f01b90820152615d7d60f01b61018e82015203610170810185520183612714565b84519260608401918483106001600160401b03841117610cd557505084528382527f4142434445464748494a4b4c4d4e4f505152535455565758595a616263646566838301527f6768696a6b6c6d6e6f707172737475767778797a303132333435363738392b2f848301526106c291610c7591613ca0565b92610cc6603d825180967f646174613a6170706c69636174696f6e2f6a736f6e3b6261736536342c00000087830152610cb6815180928986860191016125d7565b810103601d810187520185612714565b519282849384528301906125fa565b634e487b7160e01b825260419052602490fd5b634e487b7160e01b875260118652602487fd5b909150610bfd94610190946109459897948a916108be565b634e487b7160e01b885260118752602488fd5b8888610883600861384c565b855162461bcd60e51b81528084018690526014602482015273151bdad95b88191bd95cc81b9bdd08195e1a5cdd60621b6044820152606490fd5b50503461048f578160031936011261048f57600b54916001600160801b0380600c541692829183928493601054945b858110610e3c57508015610e3357610db291612e4e565b925b84805b828110610dec5750505060a0958251956001600160401b038260801c1687526020870152169084015260608301526080820152f35b610df581612835565b9054600391821b1c6001600160a01b03168352600f6020528583200154878111610e29575b50610e249061378e565b610db7565b9650610e24610e1a565b50508392610db4565b9091610e7d610e77610e8392610e5185612835565b905460039190911b1c6001600160a01b03168a52600f602052878a2060020154906137e2565b9361378e565b9161378e565b610d9b565b83823461048f57608036600319011261048f57610ea361261f565b610eab61263a565b906064356001600160401b038111610eeb5736602382011215610eeb57610ee893816024610ede9336930135910161279c565b9160443591612c12565b80f35b8480fd5b50346102ad57826003193601126102ad57338352600a60205281832054908115610f3c57508280808093338252600a60205281868120553382f115610f32575080f35b51903d90823e3d90fd5b606490602084519162461bcd60e51b835282015260136024820152724e6f206761736261636b20746f20636c61696d60681b6044820152fd5b8361014036600319011261049357610f8b612650565b610f93612681565b610f9c36612735565b610fa4612660565b610fac612670565b91610124359361ffff85168503610fce57610ee895610fc9612d9e565b612ee2565b8680fd5b50503461048f578160031936011261048f576020905160508152f35b5090346102ad57806003193601126102ad5761100861261f565b90611011612826565b6001600160a01b03909216928315611076575033845260056020528084208385526020528084209115159160ff1981541660ff8416179055519081527f17307eab39ab6107e8899845ad3d59bd9653f200f220920489ca2b5937696c3160203392a380f35b836024925191630b61174360e31b8352820152fd5b50503461048f578160031936011261048f57602090601b549051908152f35b50503461048f578160031936011261048f578051908260018054916110ce83612882565b808652928281169081156111655750600114611109575b5050506110f7826106c2940383612714565b519182916020835260208301906125fa565b94508085527fb10e2d527612073b26eecdfd717e6a320cf44b4afac2b0732d9fcbe2b7fa0cf65b82861061114d575050506110f78260206106c295820101946110e5565b80546020878701810191909152909501948101611130565b6106c29750869350602092506110f794915060ff191682840152151560051b820101946110e5565b50503461048f578160031936011261048f5760065490516001600160a01b039091168152602090f35b50503461048f57602036600319011261048f576106c2906107946111d8612650565b61384c565b50503461048f57602036600319011261048f57600f61ffff60018360a0958280881b0361120861261f565b1681526007602052200154831c168251926003821015845260058210156020850152600782101590840152600a811015606084015210156080820152f35b50503461048f578160031936011261048f5760a090600d54600e54908251926001600160801b039182811685526001600160401b038160801c16602086015260c01c908401528116606083015260801c6080820152f35b82843461049357806003193601126104935750601454906112bc6128bc565b916112d082519383859485528401906125fa565b9060208301520390f35b83346104935780600319360112610493576112f3612a47565b600680546001600160a01b0319811690915581906001600160a01b03167f8be0079c531659141344cd1fd0a4f28419497f9722a3daafe3b4186f6b6457e08280a380f35b509134610493576020366003190112610493576001600160a01b0361135a61261f565b169283156113775750806020938392526003845220549051908152f35b91516322718ad960e21b815291820152602490fd5b50503461048f578160031936011261048f5751478152602090f35b50503461048f57602036600319011261048f5760c09160019082906001600160a01b036113d261261f565b16815260076020522001548082519263ffffffff8216845261ffff928391828260201c166020870152828260301c16818701521c166060840152818160501c16608084015260601c1660a0820152f35b5082903461048f578260031936011261048f5761143d61261f565b6001600160a01b03168252600760209081528383209093602480359461146286613806565b9481855494600019860195808711925b8a8110806114d8575b156114c657836114b4578061ffff8d6114a061149a6114af958d61379d565b8d612e6e565b5054901c16610761828d613838565b611472565b634e487b7160e01b8652601185528686fd5b82518c8152806106c2818f018d612a13565b5081811061147b565b5082903461048f57606036600319011261048f576001600160401b039281358481116119ab5761151490369084016127d3565b91602435858111610eeb5761152c90369083016127d3565b906044358681116119a75761154490369083016127d3565b61154c612a47565b83519061155882612692565b8582526020938483019081528583019182526080606084019342855201936001928386528851928b841161199457611591601154612882565b938b601f95868111611949575b505080898d8783116001146118bd57916118b2575b50600019600383901b1c191690861b176011555b518051908c821161189f5781908c8a6115e1601254612882565b888111611853575b50505089908d8784116001146117d457926117c9575b5050600019600383901b1c191690851b176012555b519081519a8b116117b6575061162b601354612882565b8a838211611760575b505085918a116001146116c25798809281928a9b7f3f251cd499fdf1e44467b3d827cb0bbc5dcb6a6e51dd9a56899232f7b909bc799b946116b7575b50501b916000199060031b1c1916176013555b5160145551151560ff8019601554169116176015556116ab82519383859485528401906125fa565b9042908301520390a180f35b015192508b80611670565b6013895298907f66de8ffda797e3de9c05e8fc57b3bf0ec28a930d40b0d285d93c06501cf6a09090601f1983168a5b81811061174b57509a837f3f251cd499fdf1e44467b3d827cb0bbc5dcb6a6e51dd9a56899232f7b909bc799b9c10611732575b505050811b01601355611683565b015160001960f88460031b161c19169055898080611724565b8c8301518455928501929188019188016116f1565b6117a69160138c52847f66de8ffda797e3de9c05e8fc57b3bf0ec28a930d40b0d285d93c06501cf6a090918a82850160051c840194106117ad575b0160051c0190612e8a565b8a8a611634565b9250819261179b565b634e487b7160e01b8a5260419052602489fd5b015190508d806115ff565b9190889450601f198416601284527fbb8a6a4669ba250d26cd7a459eca9d215f8307e33aebe50379bc5a3617ec3444935b8d82821061183d5750508411611824575b505050811b01601255611614565b015160001960f88460031b161c191690558d8080611816565b8385015186558b97909501949384019301611805565b60126118979352887fbb8a6a4669ba250d26cd7a459eca9d215f8307e33aebe50379bc5a3617ec34449181870160051c83019387106117ad570160051c0190612e8a565b8c8a386115e9565b634e487b7160e01b8c526041845260248cfd5b90508b01518e6115b3565b908893508d601f19841690601184528d7f31ecc21a745e3968a04e9570e4425bc18fa8019c68028196b546d1669c200c6894915b83831061192857505050831161190f575b5050811b016011556115c7565b8d015160001960f88460031b161c191690558e80611902565b948482949597989293960151815501940192019089949392918f8e906118f1565b601161198d92527f31ecc21a745e3968a04e9570e4425bc18fa8019c68028196b546d1669c200c688780850160051c8201928d86106117ad570160051c0190612e8a565b8b8e61159e565b634e487b7160e01b8b526041835260248bfd5b8580fd5b8380fd5b50913461049357602036600319011261049357506119cf60209235612d63565b90516001600160a01b039091168152f35b8284346104935780600319360112610493576119fa6128bc565b90611a0361297a565b83519180601354611a1381612882565b80865291600191808316908115611ae95750600114611a90575b505050611a6494611a4384611a7f930385612714565b60145493611a7260ff6015541694835198899860a08a5260a08a01906125fa565b9088820360208a01526125fa565b91868303908701526125fa565b916060840152151560808301520390f35b9250601383527f66de8ffda797e3de9c05e8fc57b3bf0ec28a930d40b0d285d93c06501cf6a0905b828410611ad157505050820160200184611a4384611a2d565b80546020858801810191909152909301928101611ab8565b60ff191660208089019190915293151560051b87019093019350879250611a439150859050611a2d565b50503461048f578160031936011261048f5760209060ff60065460a01c1690519015158152f35b50503461048f578160031936011261048f5760207f62e78cea01bee320cd4e420270b5ea74000d11b0c9f74754ebdbfc544b05a25891611b78612a47565b611b80612d9e565b6006805460ff60a01b1916600160a01b17905551338152a180f35b50503461048f578160031936011261048f57608090600b546001600160801b039182600c541691815193811684526001600160401b0381861c16602085015260c01c908301526060820152f35b50503461048f57610ee890611bfc366127f1565b91925192611c09846126de565b858452612c12565b50346102ad5760203660031901126102ad5735916010548310156104935750611c3b602092612835565b905491519160018060a01b039160031b1c168152f35b50346102ad57826003193601126102ad57611c6a612a47565b6006549060ff8260a01c1615611cb2575060ff60a01b1916600655513381527f5db9ee0a495bf2e6ff9c91a7834c1ba4fdd244a5e8aa4e537bd38aeae4b073aa90602090a180f35b8251638dfc202b60e01b8152fd5b5090346102ad5760203660031901126102ad5760c09281906001600160a01b03611ce861261f565b168152600f60205220600681015492815492600183015490600284015492600385015494015494815196875260208701528501526060840152608083015260a0820152f35b50503461048f578160031936011261048f57611d47612a47565b8180808060018060a01b03600654164790828215611d6a575bf115610f32575080f35b506108fc611d60565b50503461048f578160031936011261048f576020906001600160801b03600c54169051908152f35b50503461048f57602036600319011261048f5760209181906001600160a01b03611dc361261f565b1681526009845220549051908152f35b50503461048f578160031936011261048f57602090516104578152f35b50346102ad5761018090816003193601126119ab57803592831515809403610eeb57611e1a612826565b604435801515809103610fce5760643591821515809303611f4e5760843593841515809503611f4a5760a43595861515809703611f465760c43597881515809903611f425760e43592831515809403611f3e576001600160401b0390611e7e612a47565b519182019182109111176117b657509263ff00000066ff00000000000096959362ff000064ff000000009461ff0065ff00000000009860ff60ff60381b6016549260381b169e16906001600160401b0319161791151560081b16179160101b16179160181b16179160201b16179160281b16179160301b16171760165561010435601755610124356018556101443560195561016435601a557f09af9654a0e5a81a7c6ebd4adbcde173624784c0594a0fd86704381c2ce495a18180a180f35b8b80fd5b8a80fd5b8980fd5b8880fd5b8780fd5b833461049357610ee8611f64366127f1565b91612a73565b509134610493576020366003190112610493578235906001600160401b0382116104935750611fa8611fa360209460ff933691016127d3565b6139ea565b915191168152f35b50906101203660031901126102ad57611fc7612650565b611fcf612681565b90611fd936612735565b611fe1612660565b611fe9612670565b91611ff2612d9e565b600d54946104578660c01c101561228f57338952602095600987526002888b2054101561225357612029600860ff88161115612dbf565b61ffff9061203d6127108385161115612e02565b6120456137aa565b8034106122195734116121fb575b50600d544260801b67ffffffffffffffff60801b166001600160801b036001600160c01b031961209567ffffffffffffffff60801b198516841760c01c612eca565b60c01b1692161717600d55338a5260098752878a206120b4815461378e565b9055600d5460c01c9833156121e457898b5260028852888b20546001600160a01b031690811515806121b1575b338d5260038a528a8d20600181540190558b8d5260028a528b8d8c8120946bffffffffffffffffffffffff60a01b9533878254161790557fddf252ad1be2c89b69c2b068fc378daa952ba7f163c4a11628f55a4df523b3ef339280a461219a57509161218a9593917ff1798eafcccc08cce1f26d9dec4b74d6060e0affab206d84df660133cd947abb99989795938b8d5260088952898d209033908254161790558a1694612ee2565b815193845234908401523392a280f35b89516339e3563760e11b81529081018c9052602490fd5b60008c815260046020526040902080546001600160a01b0319169055828d5260038a528a8d2080546000190190556120e1565b8851633250574960e11b81529081018b9052602490fd5b6001600160801b031916346001600160801b031617600d5538612053565b895162461bcd60e51b8152808c018a90526014602482015273125b9cdd59999a58da595b9d081c185e5b595b9d60621b6044820152606490fd5b875162461bcd60e51b8152808a01889052601660248201527513585e081c195c881dd85b1b195d081c995858da195960521b6044820152606490fd5b865162461bcd60e51b81526020818a0152601260248201527113585e081cdd5c1c1b1e481c995858da195960721b6044820152606490fd5b50503461048f578160031936011261048f57610180906016549060175460185460195491601a549380519560ff9182821615158852828260081c1615156020890152828260101c16151590880152818160181c1615156060880152818160201c1615156080880152818160281c16151560a0880152818160301c16151560c088015260381c16151560e0860152610100850152610120840152610140830152610160820152f35b50503461048f578160031936011261048f576020905160028152f35b50503461048f578160031936011261048f576020905166038d7ea4c680008152f35b5090346102ad57806003193601126102ad576123c661261f565b916024356123d381612d63565b33151580612475575b8061244c575b612436576001600160a01b039485169482918691167f8c5be1e5ebec7d5bd14f71427d1e84f3dd0314c0f7b2291e5b200ac8c7c3b9258880a48452602052822080546001600160a01b031916909117905580f35b835163a9fbf51f60e01b81523381850152602490fd5b506001600160a01b03811686526005602090815284872033885290528386205460ff16156123e2565b506001600160a01b0381163314156123dc565b50346102ad5760203660031901126102ad579182602093356124a981612d63565b50825283528190205490516001600160a01b039091168152f35b50503461048f578160031936011261048f578051908280546124e481612882565b80855291600191808316908115611165575060011461250f575050506110f7826106c2940383612714565b80809650527f290decd9548b62a8d60345a988386fc84ba6bc95484008f6362f93160ef3e5635b828610612553575050506110f78260206106c295820101946110e5565b80546020878701810191909152909501948101612536565b925050346102ad5760203660031901126102ad573563ffffffff60e01b81168091036102ad57602092506380ac58cd60e01b81149081156125c6575b81156125b5575b5015158152f35b6301ffc9a760e01b149050386125ae565b635b5e139f60e01b811491506125a7565b60005b8381106125ea5750506000910152565b81810151838201526020016125da565b90602091612613815180928185528580860191016125d7565b601f01601f1916010190565b600435906001600160a01b038216820361263557565b600080fd5b602435906001600160a01b038216820361263557565b6004359060ff8216820361263557565b60e4359060ff8216820361263557565b610104359060ff8216820361263557565b6024359061ffff8216820361263557565b60a081019081106001600160401b038211176126ad57604052565b634e487b7160e01b600052604160045260246000fd5b60c081019081106001600160401b038211176126ad57604052565b602081019081106001600160401b038211176126ad57604052565b604081019081106001600160401b038211176126ad57604052565b90601f801991011681019081106001600160401b038211176126ad57604052565b8060631215612635576040519061274b82612692565b819060e4908111612635576044915b8183106127675750505090565b823560ff811681036126355781526020928301920161275a565b6001600160401b0381116126ad57601f01601f191660200190565b9291926127a882612781565b916127b66040519384612714565b829481845281830111612635578281602093846000960137010152565b9080601f83011215612635578160206127ee9335910161279c565b90565b6060906003190112612635576001600160a01b0390600435828116810361263557916024359081168103612635579060443590565b60243590811515820361263557565b60105481101561286c5760106000527f1b6847dc741a1b0cd08d278845f9d819d87b734759afb55fe2de5cb82a9ae6720190600090565b634e487b7160e01b600052603260045260246000fd5b90600182811c921680156128b2575b602083101461289c57565b634e487b7160e01b600052602260045260246000fd5b91607f1691612891565b60405190600082601154916128d083612882565b8083529260019081811690811561295857506001146128f9575b506128f792500383612714565b565b6011600090815291507f31ecc21a745e3968a04e9570e4425bc18fa8019c68028196b546d1669c200c685b84831061293d57506128f79350508101602001386128ea565b81935090816020925483858a01015201910190918592612924565b9050602092506128f794915060ff191682840152151560051b820101386128ea565b604051906000826012549161298e83612882565b8083529260019081811690811561295857506001146129b457506128f792500383612714565b6012600090815291507fbb8a6a4669ba250d26cd7a459eca9d215f8307e33aebe50379bc5a3617ec34445b8483106129f857506128f79350508101602001386128ea565b81935090816020925483858a010152019101909185926129df565b90815180825260208080930193019160005b828110612a33575050505090565b835185529381019392810192600101612a25565b6006546001600160a01b03163303612a5b57565b60405163118cdaa760e01b8152336004820152602490fd5b6001600160a01b039182169290918315612bf957600092828452826020956002875260409684888820541696879133151580612b63575b509060027fddf252ad1be2c89b69c2b068fc378daa952ba7f163c4a11628f55a4df523b3ef9284612b30575b858352600381528b8320805460010190558683525289812080546001600160a01b0319168517905580a41692838303612b0f5750505050565b6064945051926364283d7b60e01b8452600484015260248301526044820152fd5b600087815260046020526040902080546001600160a01b0319169055848352600381528b83208054600019019055612ad6565b91939450915080612bb8575b15612b7f57859291879138612aaa565b878688612b9c576024915190637e27328960e01b82526004820152fd5b604491519063177e802f60e01b82523360048301526024820152fd5b503387148015612bdd575b80612b6f5750858252600481523385898420541614612b6f565b5086825260058152878220338352815260ff8883205416612bc3565b604051633250574960e11b815260006004820152602490fd5b929092612c20838583612a73565b833b612c2d575b50505050565b604051630a85bd0160e11b8082523360048301526001600160a01b0392831660248301526044820194909452608060648201529493169260209290918590612c799060848301906125fa565b039483816000978189895af1869181612d23575b50612cee575050503d600014612ce5573d612ca781612781565b90612cb56040519283612714565b81528093823d92013e5b82519283612ce057604051633250574960e11b815260048101849052602490fd5b019050fd5b60609250612cbf565b919450915063ffffffff60e01b1603612d0b575038808080612c27565b60249060405190633250574960e11b82526004820152fd5b9091508481813d8311612d5c575b612d3b8183612714565b81010312610fce57516001600160e01b031981168103610fce579038612c8d565b503d612d31565b6000818152600260205260409020546001600160a01b0316908115612d86575090565b60249060405190637e27328960e01b82526004820152fd5b60ff60065460a01c16612dad57565b60405163d93c066560e01b8152600490fd5b15612dc657565b60405162461bcd60e51b8152602060048201526014602482015273496e76616c696420656d6f74696f6e20636f646560601b6044820152606490fd5b15612e0957565b60405162461bcd60e51b815260206004820152601b60248201527f436f6e666964656e6365206d757374206265203c3d20313030303000000000006044820152606490fd5b8115612e58570490565b634e487b7160e01b600052601260045260246000fd5b805482101561286c5760005260206000209060011b0190600090565b818110612e95575050565b60008155600101612e8a565b61ffff809116908114612eb45760010190565b634e487b7160e01b600052601160045260246000fd5b6001600160401b03809116908114612eb45760010190565b949291909593612ef8600860ff88161115612dbf565b612f0a61271061ffff89161115612e02565b606460ff84161161375057606460ff8216116137165733600052600760205260406000209363ffffffff620151804204169061ffff811660005260086020526040600020805460018060a01b038116156136df575b50505060018501548163ffffffff8216036136c9575b5050600361ffff600186015460201c161015613675575b60ff908160405194612f9d866126c3565b63ffffffff4216865261ffff8a166020870152818916604087015216606085015216608083015260a08201528154600160401b8110156126ad57806001612fe79201845583612e6e565b61365f578151815460208085015165ffff00000000911b1663ffffffff90921665ffffffffffff199091161717815560408281015182546060850151608086015168ffffff0000000000001990921660309390931b66ff000000000000169290921760389290921b60ff60381b1691909117911b68ff00000000000000001617815560a0919091015167ffff0000000000001991600091825b6005811061363b57505090600180939201556130c96130a861ffff8486015460201c16612ea1565b8385019065ffff0000000082549160201b169065ffff000000001916179055565b818301549067ffff0000000000006130e761ffff8460301c16612ea1565b60301b16911617910155600b5461ffff84166001600160801b03821601906001600160801b038211612eb4576001600160401b039067ffffffffffffffff60801b61314b6001600160801b031983166001600160801b0386161760801c8416612eca565b60801b169180836001600160801b0386166001600160401b0360c01b8516171760801c1615612e5857826001600160801b0392838616906001600160401b0360c01b16171760801c1681841604166001600160801b0319600c541617600c556001600160801b036001600160401b0360c01b4260c01b1692161717600b553360005260076020526001604060002060ff841615801561362f575b8015613622575b1561360957818101805461ffff60401b61320c61ffff8360401c16612ea1565b60401b168061ffff60401b1983161780845561ffff8160501c1661ffff8260401c16116135e1575b505050505b015461ffff60405191818160401c16835260501c1660208201527f1e35e45cd67424d1a85f4c008126abbdd100bcdd9f79cef99206274d1d18f3b460403392a233600052600f60205260406000209160048301805415613596575b6132c1906132ac61ffff8795979694961684546137e2565b8084556132b9825461378e565b809255612e4e565b600182015542600582015533600052600760205261ffff600160406000200181815460401c1660028401555460501c1660038201556000935b60105485101561344d5760018501808611612eb4575b6010548110156134345761338c9061332787612835565b60018060a01b0391549060031b1c16600052600f602052604060002061334c82612835565b60018060a01b0391549060031b1c16600052600f602052604060002060018201549160018201549182841415600014613403575050115b6133915761378e565b613310565b6133fe61339d88612835565b905460039190911b1c6001600160a01b03166133f56133bb84612835565b905460039190911b1c6001600160a01b03166133d68b612835565b90919082549060031b9160018060a01b03809116831b921b1916179055565b6133d683612835565b61378e565b60048083015490820154909450925082841461342157505011613383565b6003925082919350015491015410613383565b5091936134439093919361378e565b93919290926132fa565b929190935060005b6010548110156134a2576001810190818111612eb45761349d9161347882612835565b60018060a01b0391549060031b1c16600052600f60205260066040600020015561378e565b613455565b509091926001600682015491015460405191825260208201527fa11b2b4799af248f05608433e2085b8e46cebe8d9a84a6e4b9cba46cf70d568360403392a25a90605082029180830460501490151715612eb457606461ffff920433600052600a60205260406000206135168282546137e2565b905561352481601b546137e2565b601b556040519081527fda80a58dc472c12ab62365ba335d011f59d72427a4acba7720aea0bd4700200160203392a260ff6040519316835216602082015263ffffffff421660408201527f1b1bd41983cf5dad74eaaf9b9ad475ec0f2f3f3487e7247de2bce1234dafb2a760603392a2565b60105490600160401b8210156126ad576135da6135bc8360016132c19501601055612835565b81546001600160a01b0360039290921b91821b19163390911b179055565b9050613294565b61ffff60501b9060101b16916bffffffff000000000000000019161717905538808080613234565b808201805469ffff000000000000000019169055613239565b50600760ff8516146131ec565b508160ff8516146131e5565b9092602060019160ff8651169060ff8560031b92831b921b19161794019101613080565b634e487b7160e01b600052600060045260246000fd5b66038d7ea4c68000341015612f8c5760405162461bcd60e51b815260206004820152601b60248201527f5072656d69756d20656e74727920636f737420726571756972656400000000006044820152606490fd5b65ffffffffffff19161760018501553880612f75565b6001600160a01b0319163317905560018601805461ffff60601b191660609290921b61ffff60601b16919091179055388080612f5f565b60405162461bcd60e51b81526020600482015260126024820152710476170206d757374206265203c3d203130360741b6044820152606490fd5b60405162461bcd60e51b81526020600482015260166024820152750456e74726f7079206d757374206265203c3d203130360541b6044820152606490fd5b6000198114612eb45760010190565b91908203918211612eb457565b600d546202a3006137c76001600160401b038360801c164261379d565b116137d8576001600160801b031690565b50600e5460801c90565b91908201809211612eb457565b6001600160401b0381116126ad5760051b60200190565b90613810826137ef565b61381d6040519182612714565b828152809261382e601f19916137ef565b0190602036910137565b805182101561286c5760209160051b010190565b60ff1680156139c857600181146139a8576002811461398857600381146139675760048114613945576005811461392157600681146138ff57600781146138da576008146138b7576040516138a0816126f9565b60078152663ab735b737bbb760c91b602082015290565b6040516138c3816126f9565b60078152661b995d5d1c985b60ca1b602082015290565b506040516138e7816126f9565b6008815267737572707269736560c01b602082015290565b5060405161390c816126f9565b60058152647368616d6560d81b602082015290565b5060405161392e816126f9565b6007815266191a5cd9dd5cdd60ca1b602082015290565b50604051613952816126f9565b600581526430b733b2b960d91b602082015290565b50604051613974816126f9565b60048152633332b0b960e11b602082015290565b50604051613995816126f9565b60038152621cd85960ea1b602082015290565b506040516139b5816126f9565b60038152626a6f7960e81b602082015290565b506040516139d5816126f9565b6005815264686170707960d81b602082015290565b6040908151602091828201815192613a19858281860196613a0c81878a6125d7565b8101038084520182612714565b51902084518481019064686170707960d81b825260058152613a3a816126f9565b51902014613c9757835183810190613a5a85828551613a0c81878a6125d7565b519020845184810190626a6f7960e81b825260038152613a79816126f9565b51902014613c8e57835183810190613a9985828551613a0c81878a6125d7565b519020845184810190621cd85960ea1b825260038152613ab8816126f9565b51902014613c8557835183810190613ad885828551613a0c81878a6125d7565b519020845184810190633332b0b960e11b825260048152613af8816126f9565b51902014613c7c57835183810190613b1885828551613a0c81878a6125d7565b5190208451848101906430b733b2b960d91b825260058152613b39816126f9565b51902014613c7357835183810190613b5985828551613a0c81878a6125d7565b51902084518481019066191a5cd9dd5cdd60ca1b825260078152613b7c816126f9565b51902014613c6a57835183810190613b9c85828551613a0c81878a6125d7565b519020845184810190647368616d6560d81b825260058152613bbd816126f9565b51902014613c6157835183810190613bdd85828551613a0c81878a6125d7565b51902084518481019067737572707269736560c01b825260088152613c01816126f9565b51902014613c5857613c238385518093613a0c838301968792519283916125d7565b519020915190810190661b995d5d1c985b60ca1b825260078152613c46816126f9565b51902014613c5357600890565b600890565b50505050600790565b50505050600690565b50505050600590565b50505050600490565b50505050600390565b50505050600290565b50505050600190565b50505050600090565b805115613da4578051600291828201809211612eb45760039182900480841b94906001600160fe1b03811603612eb45792613cf3613cdd86612781565b95613ceb6040519788612714565b808752612781565b6020860190601f190136823793829183518401906020820192835194600085525b838110613d53575050505052510680600114613d4057600214613d35575090565b603d90600019015390565b50603d9081600019820153600119015390565b87600491999293949901918251600190603f9082828260121c16880101518453828282600c1c16880101518385015382828260061c1688010151888501531685010151898201530197929190613d14565b5050604051613db2816126de565b6000815290565b8015613e6057600081805b613e4c5750613dd281612781565b90613de06040519283612714565b808252601f19613def82612781565b013660208401375b80928015613e45576000198201918211612eb4578193600a926030908484068201809211612eb4578551111561286c5760f81b6001600160f81b03191660001a908401601f01530491613df7565b5050905090565b90613e58600a9161378e565b910480613dc4565b50604051613e6d816126f9565b60018152600360fc1b60208201529056fea264697066735822122054f27a4b7e5882789a4261cd6f3b4e41c867b6ff0c16bf7949b67282cc5073df64736f6c63430008140033","opcodes":"PUSH1 0x40 PUSH1 0x80 DUP2 MSTORE CALLVALUE PUSH3 0x42A JUMPI PUSH3 0x15 PUSH3 0x42F JUMP JUMPDEST PUSH1 0xA DUP2 MSTORE PUSH1 0x20 PUSH10 0x119B1BDDD95C88139195 PUSH1 0xB2 SHL DUP2 DUP4 ADD MSTORE PUSH3 0x37 PUSH3 0x42F JUMP JUMPDEST PUSH1 0x6 DUP2 MSTORE PUSH6 0x232627ABA2A9 PUSH1 0xD1 SHL DUP3 DUP3 ADD MSTORE DUP3 MLOAD PUSH1 0x1 PUSH1 0x1 PUSH1 0x40 SHL SUB SWAP3 SWAP1 SWAP2 DUP4 DUP4 GT PUSH3 0x414 JUMPI PUSH1 0x0 SWAP3 DUP4 SLOAD SWAP1 PUSH1 0x1 SWAP7 DUP8 DUP4 DUP2 SHR SWAP4 AND DUP1 ISZERO PUSH3 0x409 JUMPI JUMPDEST DUP6 DUP5 LT EQ PUSH3 0x313 JUMPI DUP2 SWAP1 PUSH1 0x1F SWAP4 DUP5 DUP2 GT PUSH3 0x3B6 JUMPI JUMPDEST POP DUP6 SWAP1 DUP5 DUP4 GT PUSH1 0x1 EQ PUSH3 0x352 JUMPI DUP8 SWAP3 PUSH3 0x346 JUMPI JUMPDEST POP POP PUSH1 0x0 NOT PUSH1 0x3 DUP4 SWAP1 SHL SHR NOT AND SWAP1 DUP8 SHL OR DUP5 SSTORE JUMPDEST DUP2 MLOAD SWAP2 DUP6 DUP4 GT PUSH3 0x332 JUMPI DUP7 SLOAD DUP8 DUP2 DUP2 SHR SWAP2 AND DUP1 ISZERO PUSH3 0x327 JUMPI JUMPDEST DUP6 DUP3 LT EQ PUSH3 0x313 JUMPI SWAP1 DUP2 DUP4 DUP6 SWAP5 SWAP4 GT PUSH3 0x2BE JUMPI JUMPDEST POP DUP5 SWAP2 DUP4 GT PUSH1 0x1 EQ PUSH3 0x25A JUMPI DUP6 SWAP3 PUSH3 0x24E JUMPI JUMPDEST POP POP PUSH1 0x0 NOT PUSH1 0x3 DUP4 SWAP1 SHL SHR NOT AND SWAP1 DUP6 SHL OR DUP5 SSTORE JUMPDEST CALLER ISZERO PUSH3 0x236 JUMPI PUSH1 0x6 DUP1 SLOAD CALLER PUSH1 0x1 PUSH1 0x1 PUSH1 0xA0 SHL SUB NOT DUP3 AND DUP2 OR SWAP1 SWAP3 SSTORE PUSH1 0x1 PUSH1 0x1 PUSH1 0xA0 SHL SUB AND PUSH32 0x8BE0079C531659141344CD1FD0A4F28419497F9722A3DAAFE3B4186F6B6457E0 DUP5 DUP1 LOG3 PUSH23 0xEEBE0B40E800000000000000000000018838370F34000 PUSH1 0xE SSTORE PUSH1 0xD DUP1 SLOAD PUSH1 0x1 PUSH1 0x1 PUSH1 0x80 SHL SUB NOT AND PUSH7 0xEEBE0B40E8000 OR SWAP1 SSTORE DUP5 MLOAD SWAP3 PUSH2 0x180 DUP5 ADD SWAP1 DUP2 GT DUP5 DUP3 LT OR PUSH3 0x222 JUMPI SWAP2 DUP1 DUP6 SWAP5 SWAP3 PUSH2 0x160 SWAP5 DUP9 MSTORE DUP6 DUP5 MSTORE DUP4 ADD MSTORE DUP1 DUP7 DUP4 ADD MSTORE DUP1 PUSH1 0x60 DUP4 ADD MSTORE DUP1 PUSH1 0x80 DUP4 ADD MSTORE DUP1 PUSH1 0xA0 DUP4 ADD MSTORE DUP4 PUSH1 0xC0 DUP4 ADD MSTORE PUSH1 0xE0 DUP3 ADD MSTORE PUSH1 0x5 PUSH2 0x100 DUP3 ADD MSTORE DUP3 PUSH2 0x120 DUP3 ADD MSTORE DUP3 PUSH2 0x140 DUP3 ADD MSTORE ADD MSTORE PUSH7 0x1000000000001 PUSH1 0x1 DUP1 PUSH1 0x40 SHL SUB NOT PUSH1 0x16 SLOAD AND OR PUSH1 0x16 SSTORE PUSH1 0x5 PUSH1 0x17 SSTORE DUP1 PUSH1 0x18 SSTORE DUP1 PUSH1 0x19 SSTORE PUSH1 0x1A SSTORE MLOAD PUSH2 0x3EB4 SWAP1 DUP2 PUSH3 0x450 DUP3 CODECOPY RETURN JUMPDEST PUSH4 0x4E487B71 PUSH1 0xE0 SHL DUP4 MSTORE PUSH1 0x41 PUSH1 0x4 MSTORE PUSH1 0x24 DUP4 REVERT JUMPDEST DUP5 MLOAD PUSH4 0x1E4FBDF7 PUSH1 0xE0 SHL DUP2 MSTORE PUSH1 0x4 DUP2 ADD DUP4 SWAP1 MSTORE PUSH1 0x24 SWAP1 REVERT JUMPDEST ADD MLOAD SWAP1 POP CODESIZE DUP1 PUSH3 0xFC JUMP JUMPDEST DUP8 DUP7 MSTORE DUP5 DUP7 KECCAK256 DUP9 SWAP5 POP SWAP2 SWAP1 PUSH1 0x1F NOT DUP5 AND DUP8 JUMPDEST DUP8 DUP3 DUP3 LT PUSH3 0x2A7 JUMPI POP POP DUP5 GT PUSH3 0x28D JUMPI JUMPDEST POP POP POP DUP2 SHL ADD DUP5 SSTORE PUSH3 0x110 JUMP JUMPDEST ADD MLOAD PUSH1 0x0 NOT PUSH1 0xF8 DUP5 PUSH1 0x3 SHL AND SHR NOT AND SWAP1 SSTORE CODESIZE DUP1 DUP1 PUSH3 0x27F JUMP JUMPDEST DUP4 DUP6 ADD MLOAD DUP7 SSTORE DUP12 SWAP8 SWAP1 SWAP6 ADD SWAP5 SWAP4 DUP5 ADD SWAP4 ADD PUSH3 0x26C JUMP JUMPDEST SWAP1 SWAP2 SWAP3 POP DUP8 DUP7 MSTORE DUP5 DUP7 KECCAK256 DUP4 DUP1 DUP7 ADD PUSH1 0x5 SHR DUP3 ADD SWAP3 DUP8 DUP8 LT PUSH3 0x309 JUMPI JUMPDEST SWAP2 DUP7 SWAP6 DUP12 SWAP3 SWAP6 SWAP5 SWAP4 ADD PUSH1 0x5 SHR ADD SWAP2 JUMPDEST DUP3 DUP2 LT PUSH3 0x2FA JUMPI POP POP PUSH3 0xE7 JUMP JUMPDEST DUP9 DUP2 SSTORE DUP7 SWAP6 POP DUP11 SWAP2 ADD PUSH3 0x2EA JUMP JUMPDEST SWAP3 POP DUP2 SWAP3 PUSH3 0x2DB JUMP JUMPDEST PUSH4 0x4E487B71 PUSH1 0xE0 SHL DUP7 MSTORE PUSH1 0x22 PUSH1 0x4 MSTORE PUSH1 0x24 DUP7 REVERT JUMPDEST SWAP1 PUSH1 0x7F AND SWAP1 PUSH3 0xD1 JUMP JUMPDEST PUSH4 0x4E487B71 PUSH1 0xE0 SHL DUP6 MSTORE PUSH1 0x41 PUSH1 0x4 MSTORE PUSH1 0x24 DUP6 REVERT JUMPDEST ADD MLOAD SWAP1 POP CODESIZE DUP1 PUSH3 0xA2 JUMP JUMPDEST DUP8 DUP1 MSTORE DUP7 DUP9 KECCAK256 DUP11 SWAP5 POP SWAP2 SWAP1 PUSH1 0x1F NOT DUP5 AND DUP10 JUMPDEST DUP10 DUP3 DUP3 LT PUSH3 0x39F JUMPI POP POP DUP5 GT PUSH3 0x385 JUMPI JUMPDEST POP POP POP DUP2 SHL ADD DUP5 SSTORE PUSH3 0xB6 JUMP JUMPDEST ADD MLOAD PUSH1 0x0 NOT PUSH1 0xF8 DUP5 PUSH1 0x3 SHL AND SHR NOT AND SWAP1 SSTORE CODESIZE DUP1 DUP1 PUSH3 0x377 JUMP JUMPDEST DUP4 DUP6 ADD MLOAD DUP7 SSTORE DUP14 SWAP8 SWAP1 SWAP6 ADD SWAP5 SWAP4 DUP5 ADD SWAP4 ADD PUSH3 0x364 JUMP JUMPDEST SWAP1 SWAP2 POP DUP7 DUP1 MSTORE DUP6 DUP8 KECCAK256 DUP5 DUP1 DUP6 ADD PUSH1 0x5 SHR DUP3 ADD SWAP3 DUP9 DUP7 LT PUSH3 0x3FF JUMPI JUMPDEST SWAP2 DUP12 SWAP2 DUP7 SWAP6 SWAP5 SWAP4 ADD PUSH1 0x5 SHR ADD SWAP2 JUMPDEST DUP3 DUP2 LT PUSH3 0x3F0 JUMPI POP POP PUSH3 0x8C JUMP JUMPDEST DUP10 DUP2 SSTORE DUP6 SWAP5 POP DUP12 SWAP2 ADD PUSH3 0x3E0 JUMP JUMPDEST SWAP3 POP DUP2 SWAP3 PUSH3 0x3D2 JUMP JUMPDEST SWAP3 PUSH1 0x7F AND SWAP3 PUSH3 0x75 JUMP JUMPDEST PUSH4 0x4E487B71 PUSH1 0xE0 SHL PUSH1 0x0 MSTORE PUSH1 0x41 PUSH1 0x4 MSTORE PUSH1 0x24 PUSH1 0x0 REVERT JUMPDEST PUSH1 0x0 DUP1 REVERT JUMPDEST PUSH1 0x40 DUP1 MLOAD SWAP2 SWAP1 DUP3 ADD PUSH1 0x1 PUSH1 0x1 PUSH1 0x40 SHL SUB DUP2 GT DUP4 DUP3 LT OR PUSH3 0x414 JUMPI PUSH1 0x40 MSTORE JUMP INVALID PUSH1 0x80 PUSH1 0x40 DUP2 DUP2 MSTORE PUSH1 0x4 DUP1 CALLDATASIZE LT ISZERO PUSH2 0x21 JUMPI JUMPDEST POP POP POP CALLDATASIZE ISZERO PUSH2 0x1F JUMPI PUSH1 0x0 DUP1 REVERT JUMPDEST STOP JUMPDEST PUSH1 0x0 SWAP3 DUP4 CALLDATALOAD PUSH1 0xE0 SHR SWAP1 DUP2 PUSH4 0x1FFC9A7 EQ PUSH2 0x256B JUMPI POP DUP1 PUSH4 0x6FDDE03 EQ PUSH2 0x24C3 JUMPI DUP1 PUSH4 0x81812FC EQ PUSH2 0x2488 JUMPI DUP1 PUSH4 0x95EA7B3 EQ PUSH2 0x23AC JUMPI DUP1 PUSH4 0xA137FFE EQ PUSH2 0x238A JUMPI DUP1 PUSH4 0xF2CDD6C EQ PUSH2 0x236E JUMPI DUP1 PUSH4 0x174FAB8F EQ PUSH2 0x22C7 JUMPI DUP1 PUSH4 0x1AD75957 EQ PUSH2 0x1FB0 JUMPI DUP1 PUSH4 0x1FDF0150 EQ PUSH2 0x1F6A JUMPI DUP1 PUSH4 0x23B872DD EQ PUSH2 0x1F52 JUMPI DUP1 PUSH4 0x28A15819 EQ PUSH2 0x1DF0 JUMPI DUP1 PUSH4 0x32CB6B0C EQ PUSH2 0x1DD3 JUMPI DUP1 PUSH4 0x3950891F EQ PUSH2 0x1D9B JUMPI DUP1 PUSH4 0x3A6DC2B7 EQ PUSH2 0x1D73 JUMPI DUP1 PUSH4 0x3CCFD60B EQ PUSH2 0x1D2D JUMPI DUP1 PUSH4 0x3D6931E8 EQ PUSH2 0x1CC0 JUMPI DUP1 PUSH4 0x3F4BA83A EQ PUSH2 0x1C51 JUMPI DUP1 PUSH4 0x40F21BE1 EQ PUSH2 0x1C11 JUMPI DUP1 PUSH4 0x42842E0E EQ PUSH2 0x1BE8 JUMPI DUP1 PUSH4 0x4C8BEC8C EQ PUSH2 0x1B9B JUMPI DUP1 PUSH4 0x51858E27 EQ PUSH2 0x1B3A JUMPI DUP1 PUSH4 0x5C975ABB EQ PUSH2 0x1B13 JUMPI DUP1 PUSH4 0x610359D9 EQ PUSH2 0x19E0 JUMPI DUP1 PUSH4 0x6352211E EQ PUSH2 0x19AF JUMPI DUP1 PUSH4 0x66FB782D EQ PUSH2 0x14E1 JUMPI DUP1 PUSH4 0x68EF5519 EQ PUSH2 0x1422 JUMPI DUP1 PUSH4 0x6F2E178D EQ PUSH2 0x13A7 JUMPI DUP1 PUSH4 0x6F9FB98A EQ PUSH2 0x138C JUMPI DUP1 PUSH4 0x70A08231 EQ PUSH2 0x1337 JUMPI DUP1 PUSH4 0x715018A6 EQ PUSH2 0x12DA JUMPI DUP1 PUSH4 0x77CDD5C5 EQ PUSH2 0x129D JUMPI DUP1 PUSH4 0x7CE91411 EQ PUSH2 0x1246 JUMPI DUP1 PUSH4 0x86865924 EQ PUSH2 0x11DD JUMPI DUP1 PUSH4 0x8BE523AF EQ PUSH2 0x11B6 JUMPI DUP1 PUSH4 0x8DA5CB5B EQ PUSH2 0x118D JUMPI DUP1 PUSH4 0x95D89B41 EQ PUSH2 0x10AA JUMPI DUP1 PUSH4 0x9D56E047 EQ PUSH2 0x108B JUMPI DUP1 PUSH4 0xA22CB465 EQ PUSH2 0xFEE JUMPI DUP1 PUSH4 0xA88A68D5 EQ PUSH2 0xFD2 JUMPI DUP1 PUSH4 0xB2B4B8C3 EQ PUSH2 0xF75 JUMPI DUP1 PUSH4 0xB738F87E EQ PUSH2 0xEEF JUMPI DUP1 PUSH4 0xB88D4FDE EQ PUSH2 0xE88 JUMPI DUP1 PUSH4 0xC075E3DD EQ PUSH2 0xD6C JUMPI DUP1 PUSH4 0xC87B56DD EQ PUSH2 0x7FB JUMPI DUP1 PUSH4 0xD96B11F8 EQ PUSH2 0x7C3 JUMPI DUP1 PUSH4 0xDB6B2A56 EQ PUSH2 0x7A7 JUMPI DUP1 PUSH4 0xDC41ACCC EQ PUSH2 0x776 JUMPI DUP1 PUSH4 0xDE75AA6C EQ PUSH2 0x60D JUMPI DUP1 PUSH4 0xE82DED21 EQ PUSH2 0x5E9 JUMPI DUP1 PUSH4 0xE985E9C5 EQ PUSH2 0x59B JUMPI DUP1 PUSH4 0xEA2639D4 EQ PUSH2 0x525 JUMPI DUP1 PUSH4 0xF2FDE38B EQ PUSH2 0x496 JUMPI DUP1 PUSH4 0xF78DC243 EQ PUSH2 0x2B1 JUMPI PUSH4 0xFD731837 SUB PUSH2 0x11 JUMPI CALLVALUE PUSH2 0x2AD JUMPI PUSH1 0x20 CALLDATASIZE PUSH1 0x3 NOT ADD SLT PUSH2 0x2AD JUMPI CALLDATALOAD DUP3 MSTORE PUSH1 0x8 PUSH1 0x20 SWAP1 DUP2 MSTORE SWAP2 DUP2 SWAP1 KECCAK256 SLOAD SWAP1 MLOAD PUSH1 0x1 PUSH1 0x1 PUSH1 0xA0 SHL SUB SWAP1 SWAP2 AND DUP2 MSTORE RETURN JUMPDEST DUP3 DUP1 REVERT JUMPDEST DUP3 DUP5 CALLVALUE PUSH2 0x493 JUMPI PUSH1 0x20 DUP1 PUSH1 0x3 NOT CALLDATASIZE ADD SLT PUSH2 0x48F JUMPI PUSH1 0x1 PUSH1 0x1 PUSH1 0xA0 SHL SUB PUSH2 0x2D5 PUSH2 0x261F JUMP JUMPDEST AND DUP3 MSTORE PUSH1 0x7 DUP2 MSTORE DUP3 DUP3 KECCAK256 SWAP1 PUSH1 0x1 SWAP4 DUP5 DUP4 ADD SLOAD SWAP1 DUP4 SLOAD SWAP5 PUSH2 0x2F4 DUP7 PUSH2 0x37EF JUMP JUMPDEST SWAP6 PUSH2 0x301 DUP4 MLOAD SWAP8 DUP9 PUSH2 0x2714 JUMP JUMPDEST DUP1 DUP8 MSTORE DUP5 DUP8 ADD DUP1 SWAP7 DUP4 MSTORE DUP6 DUP4 KECCAK256 DUP10 DUP5 SWAP3 JUMPDEST DUP5 DUP5 LT PUSH2 0x3EF JUMPI POP POP POP POP POP DUP2 MLOAD SWAP6 PUSH1 0x80 DUP1 DUP9 ADD SWAP2 DUP2 DUP10 MSTORE MLOAD DUP1 SWAP3 MSTORE PUSH1 0xA0 SWAP3 DUP4 DUP10 ADD SWAP8 SWAP4 DUP2 SWAP3 JUMPDEST DUP5 DUP5 LT PUSH2 0x368 JUMPI PUSH2 0xFFFF DUP9 DUP9 SHR DUP2 AND DUP13 DUP12 ADD MSTORE PUSH1 0x50 DUP10 SWAP1 SHR DUP2 AND DUP13 DUP10 ADD MSTORE PUSH1 0x30 DUP10 SWAP1 SHR AND PUSH1 0x60 DUP13 ADD MSTORE DUP11 DUP11 SUB DUP12 RETURN JUMPDEST SWAP1 SWAP2 SWAP3 SWAP4 SWAP5 SWAP9 DUP9 DUP13 SWAP2 DUP12 MLOAD PUSH4 0xFFFFFFFF DUP2 MLOAD AND DUP3 MSTORE PUSH2 0xFFFF DUP4 DUP3 ADD MLOAD AND DUP4 DUP4 ADD MSTORE DUP6 PUSH1 0xFF SWAP2 DUP3 DUP13 DUP3 ADD MLOAD AND DUP13 DUP6 ADD MSTORE PUSH1 0x60 DUP4 DUP2 DUP4 ADD MLOAD AND SWAP1 DUP6 ADD MSTORE DUP3 DUP8 DUP3 ADD MLOAD AND DUP8 DUP6 ADD MSTORE ADD MLOAD DUP7 DUP4 ADD DUP6 DUP10 SWAP2 JUMPDEST PUSH1 0x5 DUP4 LT PUSH2 0x3D6 JUMPI POP POP POP POP POP PUSH2 0x140 ADD SWAP11 ADD SWAP5 ADD SWAP3 SWAP2 SWAP1 SWAP5 SWAP4 SWAP5 PUSH2 0x339 JUMP JUMPDEST DUP4 MLOAD DUP6 AND DUP2 MSTORE DUP16 SWAP7 SWAP4 DUP5 ADD SWAP4 SWAP3 SWAP1 SWAP2 ADD SWAP2 DUP8 SWAP2 ADD PUSH2 0x3B6 JUMP JUMPDEST DUP9 PUSH1 0x2 SWAP2 DUP9 SWAP13 SWAP8 SWAP13 MLOAD PUSH2 0x401 DUP2 PUSH2 0x26C3 JUMP JUMPDEST DUP6 SLOAD PUSH4 0xFFFFFFFF DUP2 AND DUP3 MSTORE PUSH2 0xFFFF DUP2 DUP6 SHR AND DUP5 DUP4 ADD MSTORE DUP11 PUSH1 0xFF DUP1 DUP4 PUSH1 0x30 SHR AND DUP3 DUP6 ADD MSTORE DUP1 PUSH1 0x60 SWAP4 DUP2 DUP2 PUSH1 0x38 SHR AND DUP6 DUP8 ADD MSTORE PUSH1 0x80 SWAP4 SHR AND DUP3 DUP6 ADD MSTORE DUP13 DUP1 MLOAD SWAP4 DUP10 DUP12 ADD SLOAD SWAP2 DUP4 DUP4 AND DUP7 MSTORE DUP4 DUP4 PUSH1 0x8 SHR AND DUP10 DUP8 ADD MSTORE DUP4 DUP4 PUSH1 0x10 SHR AND SWAP1 DUP7 ADD MSTORE DUP3 DUP3 PUSH1 0x18 SHR AND SWAP1 DUP6 ADD MSTORE DUP7 SHR AND SWAP1 DUP3 ADD MSTORE PUSH2 0x477 DUP2 PUSH2 0x2692 JUMP JUMPDEST PUSH1 0xA0 DUP3 ADD MSTORE DUP2 MSTORE ADD SWAP3 ADD SWAP3 ADD SWAP2 SWAP1 DUP11 SWAP1 SWAP10 SWAP5 SWAP10 PUSH2 0x312 JUMP JUMPDEST POP DUP1 REVERT JUMPDEST DUP1 REVERT JUMPDEST POP CALLVALUE PUSH2 0x2AD JUMPI PUSH1 0x20 CALLDATASIZE PUSH1 0x3 NOT ADD SLT PUSH2 0x2AD JUMPI PUSH2 0x4B0 PUSH2 0x261F JUMP JUMPDEST SWAP1 PUSH2 0x4B9 PUSH2 0x2A47 JUMP JUMPDEST PUSH1 0x1 PUSH1 0x1 PUSH1 0xA0 SHL SUB SWAP2 DUP3 AND SWAP3 DUP4 ISZERO PUSH2 0x50F JUMPI POP POP PUSH1 0x6 SLOAD DUP3 PUSH12 0xFFFFFFFFFFFFFFFFFFFFFFFF PUSH1 0xA0 SHL DUP3 AND OR PUSH1 0x6 SSTORE AND PUSH32 0x8BE0079C531659141344CD1FD0A4F28419497F9722A3DAAFE3B4186F6B6457E0 DUP4 DUP1 LOG3 DUP1 RETURN JUMPDEST MLOAD PUSH4 0x1E4FBDF7 PUSH1 0xE0 SHL DUP2 MSTORE SWAP1 DUP2 ADD DUP5 SWAP1 MSTORE PUSH1 0x24 SWAP1 REVERT JUMPDEST POP CALLVALUE PUSH2 0x2AD JUMPI PUSH1 0x20 CALLDATASIZE PUSH1 0x3 NOT ADD SLT PUSH2 0x2AD JUMPI PUSH1 0xE0 SWAP3 DUP3 SWAP1 PUSH1 0x1 PUSH1 0x1 PUSH1 0xA0 SHL SUB PUSH2 0x54C PUSH2 0x261F JUMP JUMPDEST AND DUP2 MSTORE PUSH1 0xF PUSH1 0x20 MSTORE KECCAK256 DUP1 SLOAD SWAP3 PUSH1 0x1 DUP3 ADD SLOAD SWAP3 PUSH1 0x2 DUP4 ADD SLOAD PUSH1 0x3 DUP5 ADD SLOAD SWAP2 DUP5 ADD SLOAD SWAP3 PUSH1 0x6 PUSH1 0x5 DUP7 ADD SLOAD SWAP6 ADD SLOAD SWAP6 DUP2 MLOAD SWAP8 DUP9 MSTORE PUSH1 0x20 DUP9 ADD MSTORE DUP7 ADD MSTORE PUSH1 0x60 DUP6 ADD MSTORE PUSH1 0x80 DUP5 ADD MSTORE PUSH1 0xA0 DUP4 ADD MSTORE PUSH1 0xC0 DUP3 ADD MSTORE RETURN JUMPDEST POP POP CALLVALUE PUSH2 0x48F JUMPI DUP1 PUSH1 0x3 NOT CALLDATASIZE ADD SLT PUSH2 0x48F JUMPI PUSH1 0xFF DUP2 PUSH1 0x20 SWAP4 PUSH2 0x5BB PUSH2 0x261F JUMP JUMPDEST PUSH2 0x5C3 PUSH2 0x263A JUMP JUMPDEST PUSH1 0x1 PUSH1 0x1 PUSH1 0xA0 SHL SUB SWAP2 DUP3 AND DUP4 MSTORE PUSH1 0x5 DUP8 MSTORE DUP4 DUP4 KECCAK256 SWAP2 AND DUP3 MSTORE DUP6 MSTORE KECCAK256 SLOAD SWAP2 MLOAD SWAP2 AND ISZERO ISZERO DUP2 MSTORE RETURN JUMPDEST POP POP CALLVALUE PUSH2 0x48F JUMPI DUP2 PUSH1 0x3 NOT CALLDATASIZE ADD SLT PUSH2 0x48F JUMPI PUSH1 0x20 SWAP1 PUSH2 0x606 PUSH2 0x37AA JUMP JUMPDEST SWAP1 MLOAD SWAP1 DUP2 MSTORE RETURN JUMPDEST POP SWAP2 SWAP1 CALLVALUE PUSH2 0x48F JUMPI PUSH1 0x20 SWAP3 DUP4 PUSH1 0x3 NOT CALLDATASIZE ADD SLT PUSH2 0x2AD JUMPI PUSH1 0x10 SLOAD SWAP1 CALLDATALOAD DUP2 DUP2 GT ISZERO PUSH2 0x76F JUMPI POP JUMPDEST PUSH2 0x63B DUP2 PUSH2 0x37EF JUMP JUMPDEST SWAP3 PUSH2 0x648 DUP4 MLOAD SWAP5 DUP6 PUSH2 0x2714 JUMP JUMPDEST DUP2 DUP5 MSTORE PUSH2 0x654 DUP3 PUSH2 0x37EF JUMP JUMPDEST DUP5 DUP7 ADD SWAP6 SWAP1 PUSH1 0x1F NOT ADD CALLDATASIZE DUP8 CALLDATACOPY PUSH2 0x669 DUP4 PUSH2 0x3806 JUMP JUMPDEST SWAP2 PUSH2 0x673 DUP5 PUSH2 0x3806 JUMP JUMPDEST SWAP4 DUP2 JUMPDEST DUP2 DUP2 LT PUSH2 0x6E3 JUMPI POP POP DUP5 MLOAD SWAP6 PUSH1 0x60 DUP8 ADD SWAP1 PUSH1 0x60 DUP9 MSTORE MLOAD DUP1 SWAP2 MSTORE PUSH1 0x80 DUP8 ADD SWAP8 SWAP2 JUMPDEST DUP2 DUP2 LT PUSH2 0x6C6 JUMPI DUP8 DUP10 SUB DUP5 DUP10 ADD MSTORE DUP8 DUP1 PUSH2 0x6C2 DUP10 DUP10 PUSH2 0x6B5 DUP15 DUP12 PUSH2 0x2A13 JUMP JUMPDEST SWAP2 DUP5 DUP4 SUB SWAP1 DUP6 ADD MSTORE PUSH2 0x2A13 JUMP JUMPDEST SUB SWAP1 RETURN JUMPDEST DUP3 MLOAD PUSH1 0x1 PUSH1 0x1 PUSH1 0xA0 SHL SUB AND DUP10 MSTORE SWAP8 DUP4 ADD SWAP8 SWAP2 DUP4 ADD SWAP2 PUSH1 0x1 ADD PUSH2 0x696 JUMP JUMPDEST DUP1 PUSH2 0x6F3 PUSH2 0x767 SWAP3 SWAP10 SWAP5 SWAP10 PUSH2 0x2835 JUMP JUMPDEST SWAP1 SLOAD PUSH1 0x3 SWAP2 PUSH1 0x1 PUSH1 0x1 PUSH1 0xA0 SHL SUB SWAP2 SWAP1 DUP4 SHL SHR DUP2 AND PUSH2 0x711 DUP5 DUP9 PUSH2 0x3838 JUMP JUMPDEST MSTORE DUP1 PUSH2 0x71C DUP5 PUSH2 0x2835 JUMP JUMPDEST SWAP1 SLOAD SWAP1 DUP5 SHL SHR AND DUP12 MSTORE PUSH1 0xF SWAP2 DUP3 DUP9 MSTORE PUSH1 0x6 DUP12 DUP14 KECCAK256 ADD SLOAD PUSH2 0x73C DUP6 DUP12 PUSH2 0x3838 JUMP JUMPDEST MSTORE PUSH2 0x746 DUP5 PUSH2 0x2835 JUMP JUMPDEST SWAP1 SLOAD SWAP2 SHL SHR AND DUP11 MSTORE DUP6 MSTORE PUSH1 0x1 DUP9 DUP11 KECCAK256 ADD SLOAD PUSH2 0x761 DUP3 DUP10 PUSH2 0x3838 JUMP JUMPDEST MSTORE PUSH2 0x378E JUMP JUMPDEST SWAP7 SWAP2 SWAP7 PUSH2 0x676 JUMP JUMPDEST SWAP1 POP PUSH2 0x632 JUMP JUMPDEST POP POP CALLVALUE PUSH2 0x48F JUMPI DUP2 PUSH1 0x3 NOT CALLDATASIZE ADD SLT PUSH2 0x48F JUMPI PUSH2 0x6C2 SWAP1 PUSH2 0x794 PUSH2 0x297A JUMP JUMPDEST SWAP1 MLOAD SWAP2 DUP3 SWAP2 PUSH1 0x20 DUP4 MSTORE PUSH1 0x20 DUP4 ADD SWAP1 PUSH2 0x25FA JUMP JUMPDEST POP POP CALLVALUE PUSH2 0x48F JUMPI DUP2 PUSH1 0x3 NOT CALLDATASIZE ADD SLT PUSH2 0x48F JUMPI PUSH1 0x20 SWAP1 MLOAD PUSH1 0x3 DUP2 MSTORE RETURN JUMPDEST POP POP CALLVALUE PUSH2 0x48F JUMPI PUSH1 0x20 CALLDATASIZE PUSH1 0x3 NOT ADD SLT PUSH2 0x48F JUMPI PUSH1 0x20 SWAP2 DUP2 SWAP1 PUSH1 0x1 PUSH1 0x1 PUSH1 0xA0 SHL SUB PUSH2 0x7EB PUSH2 0x261F JUMP JUMPDEST AND DUP2 MSTORE PUSH1 0xA DUP5 MSTORE KECCAK256 SLOAD SWAP1 MLOAD SWAP1 DUP2 MSTORE RETURN JUMPDEST POP DUP3 CALLVALUE PUSH2 0x493 JUMPI PUSH1 0x20 SWAP2 DUP3 PUSH1 0x3 NOT CALLDATASIZE ADD SLT PUSH2 0x48F JUMPI DUP1 CALLDATALOAD PUSH1 0x1 PUSH1 0x1 PUSH1 0xA0 SHL SUB DUP1 PUSH2 0x824 DUP4 PUSH2 0x2D63 JUMP JUMPDEST AND ISZERO PUSH2 0xD32 JUMPI PUSH2 0x833 DUP3 PUSH2 0x2D63 JUMP JUMPDEST AND DUP4 MSTORE PUSH1 0x7 DUP5 MSTORE DUP5 DUP4 KECCAK256 PUSH1 0xF DUP6 MSTORE PUSH2 0x84D DUP7 DUP6 KECCAK256 SWAP3 PUSH2 0x3DB9 JUMP JUMPDEST DUP2 SLOAD SWAP1 SWAP3 DUP2 ISZERO DUP1 ISZERO SWAP3 SWAP1 PUSH2 0xD26 JUMPI PUSH1 0x0 NOT DUP2 ADD DUP2 DUP2 GT PUSH2 0xD13 JUMPI DUP9 PUSH2 0x883 PUSH1 0xFF PUSH2 0x878 DUP14 SWAP5 DUP10 PUSH2 0x2E6E JUMP JUMPDEST POP SLOAD PUSH1 0x30 SHR AND PUSH2 0x384C JUMP JUMPDEST SWAP5 ISZERO PUSH2 0xCFB JUMPI POP POP PUSH1 0x0 NOT DUP2 ADD SWAP1 DUP2 GT PUSH2 0xCE8 JUMPI DUP8 DUP5 PUSH2 0x190 SWAP5 PUSH2 0x945 SWAP9 SWAP8 SWAP5 PUSH1 0x64 PUSH2 0xFFFF PUSH2 0x8B6 DUP16 SWAP8 PUSH2 0xBFD SWAP12 PUSH2 0x2E6E JUMP JUMPDEST POP SLOAD DUP7 SHR AND DIV SWAP2 JUMPDEST PUSH1 0x1 PUSH2 0x8CE PUSH2 0xFFFF DUP1 SWAP6 AND PUSH2 0x3DB9 JUMP JUMPDEST SWAP5 ADD SLOAD SWAP4 PUSH2 0x8FB PUSH2 0x8E2 DUP6 DUP8 DUP11 SHR AND PUSH2 0x3DB9 JUMP JUMPDEST SWAP5 PUSH2 0x8F1 DUP2 DUP9 PUSH1 0x50 SHR AND PUSH2 0x3DB9 JUMP JUMPDEST SWAP7 PUSH1 0x30 SHR AND PUSH2 0x3DB9 JUMP JUMPDEST SWAP2 PUSH1 0x31 PUSH2 0x918 PUSH1 0x1 PUSH2 0x910 PUSH1 0x6 DUP9 ADD SLOAD PUSH2 0x3DB9 JUMP JUMPDEST SWAP7 ADD SLOAD PUSH2 0x3DB9 JUMP JUMPDEST SWAP9 MLOAD SWAP14 DUP15 DUP1 SWAP12 PUSH17 0x7B226E616D65223A22466C6F7765722023 PUSH1 0x78 SHL DUP12 DUP4 ADD MSTORE DUP11 DUP2 MLOAD SWAP5 DUP6 SWAP4 ADD SWAP2 ADD PUSH2 0x25D7 JUMP JUMPDEST PUSH2 0x88B PUSH1 0xF2 SHL PUSH1 0x31 SWAP2 DUP12 ADD SWAP2 DUP3 ADD MSTORE PUSH32 0x226465736372697074696F6E223A2241492D67656E65726174656420666C6F77 PUSH1 0x33 DUP3 ADD MSTORE PUSH32 0x6572206261736564206F6E206D6F6F6420616E616C79736973222C0000000000 PUSH1 0x53 DUP3 ADD MSTORE PUSH14 0x2261747472696275746573223A5B PUSH1 0x90 SHL PUSH1 0x6E DUP3 ADD MSTORE PUSH32 0x7B2274726169745F74797065223A22456D6F74696F6E222C2276616C7565223A PUSH1 0x7C DUP3 ADD MSTORE PUSH1 0x11 PUSH1 0xF9 SHL PUSH1 0x9C DUP3 ADD MSTORE DUP2 MLOAD SWAP2 PUSH2 0x9FC SWAP1 DUP4 SWAP1 PUSH1 0x9D DUP5 ADD SWAP1 DUP12 ADD PUSH2 0x25D7 JUMP JUMPDEST ADD PUSH3 0x89F4B PUSH1 0xEA SHL SWAP5 DUP6 SWAP3 DUP4 PUSH1 0x9D DUP5 ADD MSTORE PUSH32 0x7B2274726169745F74797065223A22436F6E666964656E6365222C2276616C75 PUSH1 0xA0 DUP5 ADD MSTORE PUSH4 0x32911D11 PUSH1 0xE1 SHL SWAP3 DUP4 PUSH1 0xC0 DUP3 ADD MSTORE PUSH2 0xA55 DUP3 MLOAD DUP1 SWAP4 DUP13 PUSH1 0xC4 DUP6 ADD SWAP2 ADD PUSH2 0x25D7 JUMP JUMPDEST ADD PUSH4 0x9489F4B PUSH1 0xE2 SHL PUSH1 0xC4 DUP3 ADD MSTORE PUSH32 0x7B2274726169745F74797065223A2243757272656E742053747265616B222C22 PUSH1 0xC8 DUP3 ADD MSTORE PUSH8 0x3B30B63AB2911D11 PUSH1 0xC1 SHL PUSH1 0xE8 DUP3 ADD MSTORE PUSH2 0xAAD DUP3 MLOAD DUP1 SWAP4 DUP12 PUSH1 0xF0 DUP6 ADD SWAP2 ADD PUSH2 0x25D7 JUMP JUMPDEST ADD SWAP1 DUP3 PUSH1 0xF0 DUP4 ADD MSTORE PUSH32 0x7B2274726169745F74797065223A224D61782053747265616B222C2276616C75 PUSH1 0xF3 DUP4 ADD MSTORE PUSH2 0x113 DUP3 ADD MSTORE DUP6 MLOAD SWAP1 PUSH2 0xAF7 DUP3 PUSH2 0x117 SWAP9 DUP11 DUP11 DUP6 ADD SWAP2 ADD PUSH2 0x25D7 JUMP JUMPDEST ADD SWAP5 DUP6 ADD MSTORE PUSH32 0x7B2274726169745F74797065223A22546F74616C20456E7472696573222C2276 PUSH2 0x11A DUP6 ADD MSTORE DUP3 PUSH7 0x30B63AB2911D11 PUSH1 0xC9 SHL SWAP5 DUP6 PUSH2 0x13A DUP3 ADD MSTORE DUP3 MLOAD SWAP1 PUSH2 0xB4D DUP3 PUSH2 0x141 SWAP6 DUP11 DUP8 DUP6 ADD SWAP2 ADD PUSH2 0x25D7 JUMP JUMPDEST ADD SWAP2 DUP3 ADD MSTORE PUSH32 0x7B2274726169745F74797065223A2252616E6B222C2276616C7565223A220000 PUSH2 0x144 DUP3 ADD MSTORE PUSH2 0xB8E DUP3 MLOAD DUP1 SWAP4 PUSH2 0x162 SWAP8 DUP9 DUP6 ADD SWAP2 ADD PUSH2 0x25D7 JUMP JUMPDEST ADD SWAP3 DUP4 ADD MSTORE PUSH32 0x7B2274726169745F74797065223A22417665726167652053636F7265222C2276 PUSH2 0x165 DUP4 ADD MSTORE PUSH2 0x185 DUP3 ADD MSTORE DUP2 MLOAD SWAP1 PUSH2 0xBD6 DUP3 PUSH2 0x18C SWAP5 DUP13 DUP7 DUP6 ADD SWAP2 ADD PUSH2 0x25D7 JUMP JUMPDEST ADD SWAP1 PUSH2 0x227D PUSH1 0xF0 SHL SWAP1 DUP3 ADD MSTORE PUSH2 0x5D7D PUSH1 0xF0 SHL PUSH2 0x18E DUP3 ADD MSTORE SUB PUSH2 0x170 DUP2 ADD DUP6 MSTORE ADD DUP4 PUSH2 0x2714 JUMP JUMPDEST DUP5 MLOAD SWAP3 PUSH1 0x60 DUP5 ADD SWAP2 DUP5 DUP4 LT PUSH1 0x1 PUSH1 0x1 PUSH1 0x40 SHL SUB DUP5 GT OR PUSH2 0xCD5 JUMPI POP POP DUP5 MSTORE DUP4 DUP3 MSTORE PUSH32 0x4142434445464748494A4B4C4D4E4F505152535455565758595A616263646566 DUP4 DUP4 ADD MSTORE PUSH32 0x6768696A6B6C6D6E6F707172737475767778797A303132333435363738392B2F DUP5 DUP4 ADD MSTORE PUSH2 0x6C2 SWAP2 PUSH2 0xC75 SWAP2 PUSH2 0x3CA0 JUMP JUMPDEST SWAP3 PUSH2 0xCC6 PUSH1 0x3D DUP3 MLOAD DUP1 SWAP7 PUSH32 0x646174613A6170706C69636174696F6E2F6A736F6E3B6261736536342C000000 DUP8 DUP4 ADD MSTORE PUSH2 0xCB6 DUP2 MLOAD DUP1 SWAP3 DUP10 DUP7 DUP7 ADD SWAP2 ADD PUSH2 0x25D7 JUMP JUMPDEST DUP2 ADD SUB PUSH1 0x1D DUP2 ADD DUP8 MSTORE ADD DUP6 PUSH2 0x2714 JUMP JUMPDEST MLOAD SWAP3 DUP3 DUP5 SWAP4 DUP5 MSTORE DUP4 ADD SWAP1 PUSH2 0x25FA JUMP JUMPDEST PUSH4 0x4E487B71 PUSH1 0xE0 SHL DUP3 MSTORE PUSH1 0x41 SWAP1 MSTORE PUSH1 0x24 SWAP1 REVERT JUMPDEST PUSH4 0x4E487B71 PUSH1 0xE0 SHL DUP8 MSTORE PUSH1 0x11 DUP7 MSTORE PUSH1 0x24 DUP8 REVERT JUMPDEST SWAP1 SWAP2 POP PUSH2 0xBFD SWAP5 PUSH2 0x190 SWAP5 PUSH2 0x945 SWAP9 SWAP8 SWAP5 DUP11 SWAP2 PUSH2 0x8BE JUMP JUMPDEST PUSH4 0x4E487B71 PUSH1 0xE0 SHL DUP9 MSTORE PUSH1 0x11 DUP8 MSTORE PUSH1 0x24 DUP9 REVERT JUMPDEST DUP9 DUP9 PUSH2 0x883 PUSH1 0x8 PUSH2 0x384C JUMP JUMPDEST DUP6 MLOAD PUSH3 0x461BCD PUSH1 0xE5 SHL DUP2 MSTORE DUP1 DUP5 ADD DUP7 SWAP1 MSTORE PUSH1 0x14 PUSH1 0x24 DUP3 ADD MSTORE PUSH20 0x151BDAD95B88191BD95CC81B9BDD08195E1A5CDD PUSH1 0x62 SHL PUSH1 0x44 DUP3 ADD MSTORE PUSH1 0x64 SWAP1 REVERT JUMPDEST POP POP CALLVALUE PUSH2 0x48F JUMPI DUP2 PUSH1 0x3 NOT CALLDATASIZE ADD SLT PUSH2 0x48F JUMPI PUSH1 0xB SLOAD SWAP2 PUSH1 0x1 PUSH1 0x1 PUSH1 0x80 SHL SUB DUP1 PUSH1 0xC SLOAD AND SWAP3 DUP3 SWAP2 DUP4 SWAP3 DUP5 SWAP4 PUSH1 0x10 SLOAD SWAP5 JUMPDEST DUP6 DUP2 LT PUSH2 0xE3C JUMPI POP DUP1 ISZERO PUSH2 0xE33 JUMPI PUSH2 0xDB2 SWAP2 PUSH2 0x2E4E JUMP JUMPDEST SWAP3 JUMPDEST DUP5 DUP1 JUMPDEST DUP3 DUP2 LT PUSH2 0xDEC JUMPI POP POP POP PUSH1 0xA0 SWAP6 DUP3 MLOAD SWAP6 PUSH1 0x1 PUSH1 0x1 PUSH1 0x40 SHL SUB DUP3 PUSH1 0x80 SHR AND DUP8 MSTORE PUSH1 0x20 DUP8 ADD MSTORE AND SWAP1 DUP5 ADD MSTORE PUSH1 0x60 DUP4 ADD MSTORE PUSH1 0x80 DUP3 ADD MSTORE RETURN JUMPDEST PUSH2 0xDF5 DUP2 PUSH2 0x2835 JUMP JUMPDEST SWAP1 SLOAD PUSH1 0x3 SWAP2 DUP3 SHL SHR PUSH1 0x1 PUSH1 0x1 PUSH1 0xA0 SHL SUB AND DUP4 MSTORE PUSH1 0xF PUSH1 0x20 MSTORE DUP6 DUP4 KECCAK256 ADD SLOAD DUP8 DUP2 GT PUSH2 0xE29 JUMPI JUMPDEST POP PUSH2 0xE24 SWAP1 PUSH2 0x378E JUMP JUMPDEST PUSH2 0xDB7 JUMP JUMPDEST SWAP7 POP PUSH2 0xE24 PUSH2 0xE1A JUMP JUMPDEST POP POP DUP4 SWAP3 PUSH2 0xDB4 JUMP JUMPDEST SWAP1 SWAP2 PUSH2 0xE7D PUSH2 0xE77 PUSH2 0xE83 SWAP3 PUSH2 0xE51 DUP6 PUSH2 0x2835 JUMP JUMPDEST SWAP1 SLOAD PUSH1 0x3 SWAP2 SWAP1 SWAP2 SHL SHR PUSH1 0x1 PUSH1 0x1 PUSH1 0xA0 SHL SUB AND DUP11 MSTORE PUSH1 0xF PUSH1 0x20 MSTORE DUP8 DUP11 KECCAK256 PUSH1 0x2 ADD SLOAD SWAP1 PUSH2 0x37E2 JUMP JUMPDEST SWAP4 PUSH2 0x378E JUMP JUMPDEST SWAP2 PUSH2 0x378E JUMP JUMPDEST PUSH2 0xD9B JUMP JUMPDEST DUP4 DUP3 CALLVALUE PUSH2 0x48F JUMPI PUSH1 0x80 CALLDATASIZE PUSH1 0x3 NOT ADD SLT PUSH2 0x48F JUMPI PUSH2 0xEA3 PUSH2 0x261F JUMP JUMPDEST PUSH2 0xEAB PUSH2 0x263A JUMP JUMPDEST SWAP1 PUSH1 0x64 CALLDATALOAD PUSH1 0x1 PUSH1 0x1 PUSH1 0x40 SHL SUB DUP2 GT PUSH2 0xEEB JUMPI CALLDATASIZE PUSH1 0x23 DUP3 ADD SLT ISZERO PUSH2 0xEEB JUMPI PUSH2 0xEE8 SWAP4 DUP2 PUSH1 0x24 PUSH2 0xEDE SWAP4 CALLDATASIZE SWAP4 ADD CALLDATALOAD SWAP2 ADD PUSH2 0x279C JUMP JUMPDEST SWAP2 PUSH1 0x44 CALLDATALOAD SWAP2 PUSH2 0x2C12 JUMP JUMPDEST DUP1 RETURN JUMPDEST DUP5 DUP1 REVERT JUMPDEST POP CALLVALUE PUSH2 0x2AD JUMPI DUP3 PUSH1 0x3 NOT CALLDATASIZE ADD SLT PUSH2 0x2AD JUMPI CALLER DUP4 MSTORE PUSH1 0xA PUSH1 0x20 MSTORE DUP2 DUP4 KECCAK256 SLOAD SWAP1 DUP2 ISZERO PUSH2 0xF3C JUMPI POP DUP3 DUP1 DUP1 DUP1 SWAP4 CALLER DUP3 MSTORE PUSH1 0xA PUSH1 0x20 MSTORE DUP2 DUP7 DUP2 KECCAK256 SSTORE CALLER DUP3 CALL ISZERO PUSH2 0xF32 JUMPI POP DUP1 RETURN JUMPDEST MLOAD SWAP1 RETURNDATASIZE SWAP1 DUP3 RETURNDATACOPY RETURNDATASIZE SWAP1 REVERT JUMPDEST PUSH1 0x64 SWAP1 PUSH1 0x20 DUP5 MLOAD SWAP2 PUSH3 0x461BCD PUSH1 0xE5 SHL DUP4 MSTORE DUP3 ADD MSTORE PUSH1 0x13 PUSH1 0x24 DUP3 ADD MSTORE PUSH19 0x4E6F206761736261636B20746F20636C61696D PUSH1 0x68 SHL PUSH1 0x44 DUP3 ADD MSTORE REVERT JUMPDEST DUP4 PUSH2 0x140 CALLDATASIZE PUSH1 0x3 NOT ADD SLT PUSH2 0x493 JUMPI PUSH2 0xF8B PUSH2 0x2650 JUMP JUMPDEST PUSH2 0xF93 PUSH2 0x2681 JUMP JUMPDEST PUSH2 0xF9C CALLDATASIZE PUSH2 0x2735 JUMP JUMPDEST PUSH2 0xFA4 PUSH2 0x2660 JUMP JUMPDEST PUSH2 0xFAC PUSH2 0x2670 JUMP JUMPDEST SWAP2 PUSH2 0x124 CALLDATALOAD SWAP4 PUSH2 0xFFFF DUP6 AND DUP6 SUB PUSH2 0xFCE JUMPI PUSH2 0xEE8 SWAP6 PUSH2 0xFC9 PUSH2 0x2D9E JUMP JUMPDEST PUSH2 0x2EE2 JUMP JUMPDEST DUP7 DUP1 REVERT JUMPDEST POP POP CALLVALUE PUSH2 0x48F JUMPI DUP2 PUSH1 0x3 NOT CALLDATASIZE ADD SLT PUSH2 0x48F JUMPI PUSH1 0x20 SWAP1 MLOAD PUSH1 0x50 DUP2 MSTORE RETURN JUMPDEST POP SWAP1 CALLVALUE PUSH2 0x2AD JUMPI DUP1 PUSH1 0x3 NOT CALLDATASIZE ADD SLT PUSH2 0x2AD JUMPI PUSH2 0x1008 PUSH2 0x261F JUMP JUMPDEST SWAP1 PUSH2 0x1011 PUSH2 0x2826 JUMP JUMPDEST PUSH1 0x1 PUSH1 0x1 PUSH1 0xA0 SHL SUB SWAP1 SWAP3 AND SWAP3 DUP4 ISZERO PUSH2 0x1076 JUMPI POP CALLER DUP5 MSTORE PUSH1 0x5 PUSH1 0x20 MSTORE DUP1 DUP5 KECCAK256 DUP4 DUP6 MSTORE PUSH1 0x20 MSTORE DUP1 DUP5 KECCAK256 SWAP2 ISZERO ISZERO SWAP2 PUSH1 0xFF NOT DUP2 SLOAD AND PUSH1 0xFF DUP5 AND OR SWAP1 SSTORE MLOAD SWAP1 DUP2 MSTORE PUSH32 0x17307EAB39AB6107E8899845AD3D59BD9653F200F220920489CA2B5937696C31 PUSH1 0x20 CALLER SWAP3 LOG3 DUP1 RETURN JUMPDEST DUP4 PUSH1 0x24 SWAP3 MLOAD SWAP2 PUSH4 0xB611743 PUSH1 0xE3 SHL DUP4 MSTORE DUP3 ADD MSTORE REVERT JUMPDEST POP POP CALLVALUE PUSH2 0x48F JUMPI DUP2 PUSH1 0x3 NOT CALLDATASIZE ADD SLT PUSH2 0x48F JUMPI PUSH1 0x20 SWAP1 PUSH1 0x1B SLOAD SWAP1 MLOAD SWAP1 DUP2 MSTORE RETURN JUMPDEST POP POP CALLVALUE PUSH2 0x48F JUMPI DUP2 PUSH1 0x3 NOT CALLDATASIZE ADD SLT PUSH2 0x48F JUMPI DUP1 MLOAD SWAP1 DUP3 PUSH1 0x1 DUP1 SLOAD SWAP2 PUSH2 0x10CE DUP4 PUSH2 0x2882 JUMP JUMPDEST DUP1 DUP7 MSTORE SWAP3 DUP3 DUP2 AND SWAP1 DUP2 ISZERO PUSH2 0x1165 JUMPI POP PUSH1 0x1 EQ PUSH2 0x1109 JUMPI JUMPDEST POP POP POP PUSH2 0x10F7 DUP3 PUSH2 0x6C2 SWAP5 SUB DUP4 PUSH2 0x2714 JUMP JUMPDEST MLOAD SWAP2 DUP3 SWAP2 PUSH1 0x20 DUP4 MSTORE PUSH1 0x20 DUP4 ADD SWAP1 PUSH2 0x25FA JUMP JUMPDEST SWAP5 POP DUP1 DUP6 MSTORE PUSH32 0xB10E2D527612073B26EECDFD717E6A320CF44B4AFAC2B0732D9FCBE2B7FA0CF6 JUMPDEST DUP3 DUP7 LT PUSH2 0x114D JUMPI POP POP POP PUSH2 0x10F7 DUP3 PUSH1 0x20 PUSH2 0x6C2 SWAP6 DUP3 ADD ADD SWAP5 PUSH2 0x10E5 JUMP JUMPDEST DUP1 SLOAD PUSH1 0x20 DUP8 DUP8 ADD DUP2 ADD SWAP2 SWAP1 SWAP2 MSTORE SWAP1 SWAP6 ADD SWAP5 DUP2 ADD PUSH2 0x1130 JUMP JUMPDEST PUSH2 0x6C2 SWAP8 POP DUP7 SWAP4 POP PUSH1 0x20 SWAP3 POP PUSH2 0x10F7 SWAP5 SWAP2 POP PUSH1 0xFF NOT AND DUP3 DUP5 ADD MSTORE ISZERO ISZERO PUSH1 0x5 SHL DUP3 ADD ADD SWAP5 PUSH2 0x10E5 JUMP JUMPDEST POP POP CALLVALUE PUSH2 0x48F JUMPI DUP2 PUSH1 0x3 NOT CALLDATASIZE ADD SLT PUSH2 0x48F JUMPI PUSH1 0x6 SLOAD SWAP1 MLOAD PUSH1 0x1 PUSH1 0x1 PUSH1 0xA0 SHL SUB SWAP1 SWAP2 AND DUP2 MSTORE PUSH1 0x20 SWAP1 RETURN JUMPDEST POP POP CALLVALUE PUSH2 0x48F JUMPI PUSH1 0x20 CALLDATASIZE PUSH1 0x3 NOT ADD SLT PUSH2 0x48F JUMPI PUSH2 0x6C2 SWAP1 PUSH2 0x794 PUSH2 0x11D8 PUSH2 0x2650 JUMP JUMPDEST PUSH2 0x384C JUMP JUMPDEST POP POP CALLVALUE PUSH2 0x48F JUMPI PUSH1 0x20 CALLDATASIZE PUSH1 0x3 NOT ADD SLT PUSH2 0x48F JUMPI PUSH1 0xF PUSH2 0xFFFF PUSH1 0x1 DUP4 PUSH1 0xA0 SWAP6 DUP3 DUP1 DUP9 SHL SUB PUSH2 0x1208 PUSH2 0x261F JUMP JUMPDEST AND DUP2 MSTORE PUSH1 0x7 PUSH1 0x20 MSTORE KECCAK256 ADD SLOAD DUP4 SHR AND DUP3 MLOAD SWAP3 PUSH1 0x3 DUP3 LT ISZERO DUP5 MSTORE PUSH1 0x5 DUP3 LT ISZERO PUSH1 0x20 DUP6 ADD MSTORE PUSH1 0x7 DUP3 LT ISZERO SWAP1 DUP5 ADD MSTORE PUSH1 0xA DUP2 LT ISZERO PUSH1 0x60 DUP5 ADD MSTORE LT ISZERO PUSH1 0x80 DUP3 ADD MSTORE RETURN JUMPDEST POP POP CALLVALUE PUSH2 0x48F JUMPI DUP2 PUSH1 0x3 NOT CALLDATASIZE ADD SLT PUSH2 0x48F JUMPI PUSH1 0xA0 SWAP1 PUSH1 0xD SLOAD PUSH1 0xE SLOAD SWAP1 DUP3 MLOAD SWAP3 PUSH1 0x1 PUSH1 0x1 PUSH1 0x80 SHL SUB SWAP2 DUP3 DUP2 AND DUP6 MSTORE PUSH1 0x1 PUSH1 0x1 PUSH1 0x40 SHL SUB DUP2 PUSH1 0x80 SHR AND PUSH1 0x20 DUP7 ADD MSTORE PUSH1 0xC0 SHR SWAP1 DUP5 ADD MSTORE DUP2 AND PUSH1 0x60 DUP4 ADD MSTORE PUSH1 0x80 SHR PUSH1 0x80 DUP3 ADD MSTORE RETURN JUMPDEST DUP3 DUP5 CALLVALUE PUSH2 0x493 JUMPI DUP1 PUSH1 0x3 NOT CALLDATASIZE ADD SLT PUSH2 0x493 JUMPI POP PUSH1 0x14 SLOAD SWAP1 PUSH2 0x12BC PUSH2 0x28BC JUMP JUMPDEST SWAP2 PUSH2 0x12D0 DUP3 MLOAD SWAP4 DUP4 DUP6 SWAP5 DUP6 MSTORE DUP5 ADD SWAP1 PUSH2 0x25FA JUMP JUMPDEST SWAP1 PUSH1 0x20 DUP4 ADD MSTORE SUB SWAP1 RETURN JUMPDEST DUP4 CALLVALUE PUSH2 0x493 JUMPI DUP1 PUSH1 0x3 NOT CALLDATASIZE ADD SLT PUSH2 0x493 JUMPI PUSH2 0x12F3 PUSH2 0x2A47 JUMP JUMPDEST PUSH1 0x6 DUP1 SLOAD PUSH1 0x1 PUSH1 0x1 PUSH1 0xA0 SHL SUB NOT DUP2 AND SWAP1 SWAP2 SSTORE DUP2 SWAP1 PUSH1 0x1 PUSH1 0x1 PUSH1 0xA0 SHL SUB AND PUSH32 0x8BE0079C531659141344CD1FD0A4F28419497F9722A3DAAFE3B4186F6B6457E0 DUP3 DUP1 LOG3 DUP1 RETURN JUMPDEST POP SWAP2 CALLVALUE PUSH2 0x493 JUMPI PUSH1 0x20 CALLDATASIZE PUSH1 0x3 NOT ADD SLT PUSH2 0x493 JUMPI PUSH1 0x1 PUSH1 0x1 PUSH1 0xA0 SHL SUB PUSH2 0x135A PUSH2 0x261F JUMP JUMPDEST AND SWAP3 DUP4 ISZERO PUSH2 0x1377 JUMPI POP DUP1 PUSH1 0x20 SWAP4 DUP4 SWAP3 MSTORE PUSH1 0x3 DUP5 MSTORE KECCAK256 SLOAD SWAP1 MLOAD SWAP1 DUP2 MSTORE RETURN JUMPDEST SWAP2 MLOAD PUSH4 0x22718AD9 PUSH1 0xE2 SHL DUP2 MSTORE SWAP2 DUP3 ADD MSTORE PUSH1 0x24 SWAP1 REVERT JUMPDEST POP POP CALLVALUE PUSH2 0x48F JUMPI DUP2 PUSH1 0x3 NOT CALLDATASIZE ADD SLT PUSH2 0x48F JUMPI MLOAD SELFBALANCE DUP2 MSTORE PUSH1 0x20 SWAP1 RETURN JUMPDEST POP POP CALLVALUE PUSH2 0x48F JUMPI PUSH1 0x20 CALLDATASIZE PUSH1 0x3 NOT ADD SLT PUSH2 0x48F JUMPI PUSH1 0xC0 SWAP2 PUSH1 0x1 SWAP1 DUP3 SWAP1 PUSH1 0x1 PUSH1 0x1 PUSH1 0xA0 SHL SUB PUSH2 0x13D2 PUSH2 0x261F JUMP JUMPDEST AND DUP2 MSTORE PUSH1 0x7 PUSH1 0x20 MSTORE KECCAK256 ADD SLOAD DUP1 DUP3 MLOAD SWAP3 PUSH4 0xFFFFFFFF DUP3 AND DUP5 MSTORE PUSH2 0xFFFF SWAP3 DUP4 SWAP2 DUP3 DUP3 PUSH1 0x20 SHR AND PUSH1 0x20 DUP8 ADD MSTORE DUP3 DUP3 PUSH1 0x30 SHR AND DUP2 DUP8 ADD MSTORE SHR AND PUSH1 0x60 DUP5 ADD MSTORE DUP2 DUP2 PUSH1 0x50 SHR AND PUSH1 0x80 DUP5 ADD MSTORE PUSH1 0x60 SHR AND PUSH1 0xA0 DUP3 ADD MSTORE RETURN JUMPDEST POP DUP3 SWAP1 CALLVALUE PUSH2 0x48F JUMPI DUP3 PUSH1 0x3 NOT CALLDATASIZE ADD SLT PUSH2 0x48F JUMPI PUSH2 0x143D PUSH2 0x261F JUMP JUMPDEST PUSH1 0x1 PUSH1 0x1 PUSH1 0xA0 SHL SUB AND DUP3 MSTORE PUSH1 0x7 PUSH1 0x20 SWAP1 DUP2 MSTORE DUP4 DUP4 KECCAK256 SWAP1 SWAP4 PUSH1 0x24 DUP1 CALLDATALOAD SWAP5 PUSH2 0x1462 DUP7 PUSH2 0x3806 JUMP JUMPDEST SWAP5 DUP2 DUP6 SLOAD SWAP5 PUSH1 0x0 NOT DUP7 ADD SWAP6 DUP1 DUP8 GT SWAP3 JUMPDEST DUP11 DUP2 LT DUP1 PUSH2 0x14D8 JUMPI JUMPDEST ISZERO PUSH2 0x14C6 JUMPI DUP4 PUSH2 0x14B4 JUMPI DUP1 PUSH2 0xFFFF DUP14 PUSH2 0x14A0 PUSH2 0x149A PUSH2 0x14AF SWAP6 DUP14 PUSH2 0x379D JUMP JUMPDEST DUP14 PUSH2 0x2E6E JUMP JUMPDEST POP SLOAD SWAP1 SHR AND PUSH2 0x761 DUP3 DUP14 PUSH2 0x3838 JUMP JUMPDEST PUSH2 0x1472 JUMP JUMPDEST PUSH4 0x4E487B71 PUSH1 0xE0 SHL DUP7 MSTORE PUSH1 0x11 DUP6 MSTORE DUP7 DUP7 REVERT JUMPDEST DUP3 MLOAD DUP13 DUP2 MSTORE DUP1 PUSH2 0x6C2 DUP2 DUP16 ADD DUP14 PUSH2 0x2A13 JUMP JUMPDEST POP DUP2 DUP2 LT PUSH2 0x147B JUMP JUMPDEST POP DUP3 SWAP1 CALLVALUE PUSH2 0x48F JUMPI PUSH1 0x60 CALLDATASIZE PUSH1 0x3 NOT ADD SLT PUSH2 0x48F JUMPI PUSH1 0x1 PUSH1 0x1 PUSH1 0x40 SHL SUB SWAP3 DUP2 CALLDATALOAD DUP5 DUP2 GT PUSH2 0x19AB JUMPI PUSH2 0x1514 SWAP1 CALLDATASIZE SWAP1 DUP5 ADD PUSH2 0x27D3 JUMP JUMPDEST SWAP2 PUSH1 0x24 CALLDATALOAD DUP6 DUP2 GT PUSH2 0xEEB JUMPI PUSH2 0x152C SWAP1 CALLDATASIZE SWAP1 DUP4 ADD PUSH2 0x27D3 JUMP JUMPDEST SWAP1 PUSH1 0x44 CALLDATALOAD DUP7 DUP2 GT PUSH2 0x19A7 JUMPI PUSH2 0x1544 SWAP1 CALLDATASIZE SWAP1 DUP4 ADD PUSH2 0x27D3 JUMP JUMPDEST PUSH2 0x154C PUSH2 0x2A47 JUMP JUMPDEST DUP4 MLOAD SWAP1 PUSH2 0x1558 DUP3 PUSH2 0x2692 JUMP JUMPDEST DUP6 DUP3 MSTORE PUSH1 0x20 SWAP4 DUP5 DUP4 ADD SWAP1 DUP2 MSTORE DUP6 DUP4 ADD SWAP2 DUP3 MSTORE PUSH1 0x80 PUSH1 0x60 DUP5 ADD SWAP4 TIMESTAMP DUP6 MSTORE ADD SWAP4 PUSH1 0x1 SWAP3 DUP4 DUP7 MSTORE DUP9 MLOAD SWAP3 DUP12 DUP5 GT PUSH2 0x1994 JUMPI PUSH2 0x1591 PUSH1 0x11 SLOAD PUSH2 0x2882 JUMP JUMPDEST SWAP4 DUP12 PUSH1 0x1F SWAP6 DUP7 DUP2 GT PUSH2 0x1949 JUMPI JUMPDEST POP POP DUP1 DUP10 DUP14 DUP8 DUP4 GT PUSH1 0x1 EQ PUSH2 0x18BD JUMPI SWAP2 PUSH2 0x18B2 JUMPI JUMPDEST POP PUSH1 0x0 NOT PUSH1 0x3 DUP4 SWAP1 SHL SHR NOT AND SWAP1 DUP7 SHL OR PUSH1 0x11 SSTORE JUMPDEST MLOAD DUP1 MLOAD SWAP1 DUP13 DUP3 GT PUSH2 0x189F JUMPI DUP2 SWAP1 DUP13 DUP11 PUSH2 0x15E1 PUSH1 0x12 SLOAD PUSH2 0x2882 JUMP JUMPDEST DUP9 DUP2 GT PUSH2 0x1853 JUMPI JUMPDEST POP POP POP DUP10 SWAP1 DUP14 DUP8 DUP5 GT PUSH1 0x1 EQ PUSH2 0x17D4 JUMPI SWAP3 PUSH2 0x17C9 JUMPI JUMPDEST POP POP PUSH1 0x0 NOT PUSH1 0x3 DUP4 SWAP1 SHL SHR NOT AND SWAP1 DUP6 SHL OR PUSH1 0x12 SSTORE JUMPDEST MLOAD SWAP1 DUP2 MLOAD SWAP11 DUP12 GT PUSH2 0x17B6 JUMPI POP PUSH2 0x162B PUSH1 0x13 SLOAD PUSH2 0x2882 JUMP JUMPDEST DUP11 DUP4 DUP3 GT PUSH2 0x1760 JUMPI JUMPDEST POP POP DUP6 SWAP2 DUP11 GT PUSH1 0x1 EQ PUSH2 0x16C2 JUMPI SWAP9 DUP1 SWAP3 DUP2 SWAP3 DUP11 SWAP12 PUSH32 0x3F251CD499FDF1E44467B3D827CB0BBC5DCB6A6E51DD9A56899232F7B909BC79 SWAP12 SWAP5 PUSH2 0x16B7 JUMPI JUMPDEST POP POP SHL SWAP2 PUSH1 0x0 NOT SWAP1 PUSH1 0x3 SHL SHR NOT AND OR PUSH1 0x13 SSTORE JUMPDEST MLOAD PUSH1 0x14 SSTORE MLOAD ISZERO ISZERO PUSH1 0xFF DUP1 NOT PUSH1 0x15 SLOAD AND SWAP2 AND OR PUSH1 0x15 SSTORE PUSH2 0x16AB DUP3 MLOAD SWAP4 DUP4 DUP6 SWAP5 DUP6 MSTORE DUP5 ADD SWAP1 PUSH2 0x25FA JUMP JUMPDEST SWAP1 TIMESTAMP SWAP1 DUP4 ADD MSTORE SUB SWAP1 LOG1 DUP1 RETURN JUMPDEST ADD MLOAD SWAP3 POP DUP12 DUP1 PUSH2 0x1670 JUMP JUMPDEST PUSH1 0x13 DUP10 MSTORE SWAP9 SWAP1 PUSH32 0x66DE8FFDA797E3DE9C05E8FC57B3BF0EC28A930D40B0D285D93C06501CF6A090 SWAP1 PUSH1 0x1F NOT DUP4 AND DUP11 JUMPDEST DUP2 DUP2 LT PUSH2 0x174B JUMPI POP SWAP11 DUP4 PUSH32 0x3F251CD499FDF1E44467B3D827CB0BBC5DCB6A6E51DD9A56899232F7B909BC79 SWAP12 SWAP13 LT PUSH2 0x1732 JUMPI JUMPDEST POP POP POP DUP2 SHL ADD PUSH1 0x13 SSTORE PUSH2 0x1683 JUMP JUMPDEST ADD MLOAD PUSH1 0x0 NOT PUSH1 0xF8 DUP5 PUSH1 0x3 SHL AND SHR NOT AND SWAP1 SSTORE DUP10 DUP1 DUP1 PUSH2 0x1724 JUMP JUMPDEST DUP13 DUP4 ADD MLOAD DUP5 SSTORE SWAP3 DUP6 ADD SWAP3 SWAP2 DUP9 ADD SWAP2 DUP9 ADD PUSH2 0x16F1 JUMP JUMPDEST PUSH2 0x17A6 SWAP2 PUSH1 0x13 DUP13 MSTORE DUP5 PUSH32 0x66DE8FFDA797E3DE9C05E8FC57B3BF0EC28A930D40B0D285D93C06501CF6A090 SWAP2 DUP11 DUP3 DUP6 ADD PUSH1 0x5 SHR DUP5 ADD SWAP5 LT PUSH2 0x17AD JUMPI JUMPDEST ADD PUSH1 0x5 SHR ADD SWAP1 PUSH2 0x2E8A JUMP JUMPDEST DUP11 DUP11 PUSH2 0x1634 JUMP JUMPDEST SWAP3 POP DUP2 SWAP3 PUSH2 0x179B JUMP JUMPDEST PUSH4 0x4E487B71 PUSH1 0xE0 SHL DUP11 MSTORE PUSH1 0x41 SWAP1 MSTORE PUSH1 0x24 DUP10 REVERT JUMPDEST ADD MLOAD SWAP1 POP DUP14 DUP1 PUSH2 0x15FF JUMP JUMPDEST SWAP2 SWAP1 DUP9 SWAP5 POP PUSH1 0x1F NOT DUP5 AND PUSH1 0x12 DUP5 MSTORE PUSH32 0xBB8A6A4669BA250D26CD7A459ECA9D215F8307E33AEBE50379BC5A3617EC3444 SWAP4 JUMPDEST DUP14 DUP3 DUP3 LT PUSH2 0x183D JUMPI POP POP DUP5 GT PUSH2 0x1824 JUMPI JUMPDEST POP POP POP DUP2 SHL ADD PUSH1 0x12 SSTORE PUSH2 0x1614 JUMP JUMPDEST ADD MLOAD PUSH1 0x0 NOT PUSH1 0xF8 DUP5 PUSH1 0x3 SHL AND SHR NOT AND SWAP1 SSTORE DUP14 DUP1 DUP1 PUSH2 0x1816 JUMP JUMPDEST DUP4 DUP6 ADD MLOAD DUP7 SSTORE DUP12 SWAP8 SWAP1 SWAP6 ADD SWAP5 SWAP4 DUP5 ADD SWAP4 ADD PUSH2 0x1805 JUMP JUMPDEST PUSH1 0x12 PUSH2 0x1897 SWAP4 MSTORE DUP9 PUSH32 0xBB8A6A4669BA250D26CD7A459ECA9D215F8307E33AEBE50379BC5A3617EC3444 SWAP2 DUP2 DUP8 ADD PUSH1 0x5 SHR DUP4 ADD SWAP4 DUP8 LT PUSH2 0x17AD JUMPI ADD PUSH1 0x5 SHR ADD SWAP1 PUSH2 0x2E8A JUMP JUMPDEST DUP13 DUP11 CODESIZE PUSH2 0x15E9 JUMP JUMPDEST PUSH4 0x4E487B71 PUSH1 0xE0 SHL DUP13 MSTORE PUSH1 0x41 DUP5 MSTORE PUSH1 0x24 DUP13 REVERT JUMPDEST SWAP1 POP DUP12 ADD MLOAD DUP15 PUSH2 0x15B3 JUMP JUMPDEST SWAP1 DUP9 SWAP4 POP DUP14 PUSH1 0x1F NOT DUP5 AND SWAP1 PUSH1 0x11 DUP5 MSTORE DUP14 PUSH32 0x31ECC21A745E3968A04E9570E4425BC18FA8019C68028196B546D1669C200C68 SWAP5 SWAP2 JUMPDEST DUP4 DUP4 LT PUSH2 0x1928 JUMPI POP POP POP DUP4 GT PUSH2 0x190F JUMPI JUMPDEST POP POP DUP2 SHL ADD PUSH1 0x11 SSTORE PUSH2 0x15C7 JUMP JUMPDEST DUP14 ADD MLOAD PUSH1 0x0 NOT PUSH1 0xF8 DUP5 PUSH1 0x3 SHL AND SHR NOT AND SWAP1 SSTORE DUP15 DUP1 PUSH2 0x1902 JUMP JUMPDEST SWAP5 DUP5 DUP3 SWAP5 SWAP6 SWAP8 SWAP9 SWAP3 SWAP4 SWAP7 ADD MLOAD DUP2 SSTORE ADD SWAP5 ADD SWAP3 ADD SWAP1 DUP10 SWAP5 SWAP4 SWAP3 SWAP2 DUP16 DUP15 SWAP1 PUSH2 0x18F1 JUMP JUMPDEST PUSH1 0x11 PUSH2 0x198D SWAP3 MSTORE PUSH32 0x31ECC21A745E3968A04E9570E4425BC18FA8019C68028196B546D1669C200C68 DUP8 DUP1 DUP6 ADD PUSH1 0x5 SHR DUP3 ADD SWAP3 DUP14 DUP7 LT PUSH2 0x17AD JUMPI ADD PUSH1 0x5 SHR ADD SWAP1 PUSH2 0x2E8A JUMP JUMPDEST DUP12 DUP15 PUSH2 0x159E JUMP JUMPDEST PUSH4 0x4E487B71 PUSH1 0xE0 SHL DUP12 MSTORE PUSH1 0x41 DUP4 MSTORE PUSH1 0x24 DUP12 REVERT JUMPDEST DUP6 DUP1 REVERT JUMPDEST DUP4 DUP1 REVERT JUMPDEST POP SWAP2 CALLVALUE PUSH2 0x493 JUMPI PUSH1 0x20 CALLDATASIZE PUSH1 0x3 NOT ADD SLT PUSH2 0x493 JUMPI POP PUSH2 0x19CF PUSH1 0x20 SWAP3 CALLDATALOAD PUSH2 0x2D63 JUMP JUMPDEST SWAP1 MLOAD PUSH1 0x1 PUSH1 0x1 PUSH1 0xA0 SHL SUB SWAP1 SWAP2 AND DUP2 MSTORE RETURN JUMPDEST DUP3 DUP5 CALLVALUE PUSH2 0x493 JUMPI DUP1 PUSH1 0x3 NOT CALLDATASIZE ADD SLT PUSH2 0x493 JUMPI PUSH2 0x19FA PUSH2 0x28BC JUMP JUMPDEST SWAP1 PUSH2 0x1A03 PUSH2 0x297A JUMP JUMPDEST DUP4 MLOAD SWAP2 DUP1 PUSH1 0x13 SLOAD PUSH2 0x1A13 DUP2 PUSH2 0x2882 JUMP JUMPDEST DUP1 DUP7 MSTORE SWAP2 PUSH1 0x1 SWAP2 DUP1 DUP4 AND SWAP1 DUP2 ISZERO PUSH2 0x1AE9 JUMPI POP PUSH1 0x1 EQ PUSH2 0x1A90 JUMPI JUMPDEST POP POP POP PUSH2 0x1A64 SWAP5 PUSH2 0x1A43 DUP5 PUSH2 0x1A7F SWAP4 SUB DUP6 PUSH2 0x2714 JUMP JUMPDEST PUSH1 0x14 SLOAD SWAP4 PUSH2 0x1A72 PUSH1 0xFF PUSH1 0x15 SLOAD AND SWAP5 DUP4 MLOAD SWAP9 DUP10 SWAP9 PUSH1 0xA0 DUP11 MSTORE PUSH1 0xA0 DUP11 ADD SWAP1 PUSH2 0x25FA JUMP JUMPDEST SWAP1 DUP9 DUP3 SUB PUSH1 0x20 DUP11 ADD MSTORE PUSH2 0x25FA JUMP JUMPDEST SWAP2 DUP7 DUP4 SUB SWAP1 DUP8 ADD MSTORE PUSH2 0x25FA JUMP JUMPDEST SWAP2 PUSH1 0x60 DUP5 ADD MSTORE ISZERO ISZERO PUSH1 0x80 DUP4 ADD MSTORE SUB SWAP1 RETURN JUMPDEST SWAP3 POP PUSH1 0x13 DUP4 MSTORE PUSH32 0x66DE8FFDA797E3DE9C05E8FC57B3BF0EC28A930D40B0D285D93C06501CF6A090 JUMPDEST DUP3 DUP5 LT PUSH2 0x1AD1 JUMPI POP POP POP DUP3 ADD PUSH1 0x20 ADD DUP5 PUSH2 0x1A43 DUP5 PUSH2 0x1A2D JUMP JUMPDEST DUP1 SLOAD PUSH1 0x20 DUP6 DUP9 ADD DUP2 ADD SWAP2 SWAP1 SWAP2 MSTORE SWAP1 SWAP4 ADD SWAP3 DUP2 ADD PUSH2 0x1AB8 JUMP JUMPDEST PUSH1 0xFF NOT AND PUSH1 0x20 DUP1 DUP10 ADD SWAP2 SWAP1 SWAP2 MSTORE SWAP4 ISZERO ISZERO PUSH1 0x5 SHL DUP8 ADD SWAP1 SWAP4 ADD SWAP4 POP DUP8 SWAP3 POP PUSH2 0x1A43 SWAP2 POP DUP6 SWAP1 POP PUSH2 0x1A2D JUMP JUMPDEST POP POP CALLVALUE PUSH2 0x48F JUMPI DUP2 PUSH1 0x3 NOT CALLDATASIZE ADD SLT PUSH2 0x48F JUMPI PUSH1 0x20 SWAP1 PUSH1 0xFF PUSH1 0x6 SLOAD PUSH1 0xA0 SHR AND SWAP1 MLOAD SWAP1 ISZERO ISZERO DUP2 MSTORE RETURN JUMPDEST POP POP CALLVALUE PUSH2 0x48F JUMPI DUP2 PUSH1 0x3 NOT CALLDATASIZE ADD SLT PUSH2 0x48F JUMPI PUSH1 0x20 PUSH32 0x62E78CEA01BEE320CD4E420270B5EA74000D11B0C9F74754EBDBFC544B05A258 SWAP2 PUSH2 0x1B78 PUSH2 0x2A47 JUMP JUMPDEST PUSH2 0x1B80 PUSH2 0x2D9E JUMP JUMPDEST PUSH1 0x6 DUP1 SLOAD PUSH1 0xFF PUSH1 0xA0 SHL NOT AND PUSH1 0x1 PUSH1 0xA0 SHL OR SWAP1 SSTORE MLOAD CALLER DUP2 MSTORE LOG1 DUP1 RETURN JUMPDEST POP POP CALLVALUE PUSH2 0x48F JUMPI DUP2 PUSH1 0x3 NOT CALLDATASIZE ADD SLT PUSH2 0x48F JUMPI PUSH1 0x80 SWAP1 PUSH1 0xB SLOAD PUSH1 0x1 PUSH1 0x1 PUSH1 0x80 SHL SUB SWAP2 DUP3 PUSH1 0xC SLOAD AND SWAP2 DUP2 MLOAD SWAP4 DUP2 AND DUP5 MSTORE PUSH1 0x1 PUSH1 0x1 PUSH1 0x40 SHL SUB DUP2 DUP7 SHR AND PUSH1 0x20 DUP6 ADD MSTORE PUSH1 0xC0 SHR SWAP1 DUP4 ADD MSTORE PUSH1 0x60 DUP3 ADD MSTORE RETURN JUMPDEST POP POP CALLVALUE PUSH2 0x48F JUMPI PUSH2 0xEE8 SWAP1 PUSH2 0x1BFC CALLDATASIZE PUSH2 0x27F1 JUMP JUMPDEST SWAP2 SWAP3 MLOAD SWAP3 PUSH2 0x1C09 DUP5 PUSH2 0x26DE JUMP JUMPDEST DUP6 DUP5 MSTORE PUSH2 0x2C12 JUMP JUMPDEST POP CALLVALUE PUSH2 0x2AD JUMPI PUSH1 0x20 CALLDATASIZE PUSH1 0x3 NOT ADD SLT PUSH2 0x2AD JUMPI CALLDATALOAD SWAP2 PUSH1 0x10 SLOAD DUP4 LT ISZERO PUSH2 0x493 JUMPI POP PUSH2 0x1C3B PUSH1 0x20 SWAP3 PUSH2 0x2835 JUMP JUMPDEST SWAP1 SLOAD SWAP2 MLOAD SWAP2 PUSH1 0x1 DUP1 PUSH1 0xA0 SHL SUB SWAP2 PUSH1 0x3 SHL SHR AND DUP2 MSTORE RETURN JUMPDEST POP CALLVALUE PUSH2 0x2AD JUMPI DUP3 PUSH1 0x3 NOT CALLDATASIZE ADD SLT PUSH2 0x2AD JUMPI PUSH2 0x1C6A PUSH2 0x2A47 JUMP JUMPDEST PUSH1 0x6 SLOAD SWAP1 PUSH1 0xFF DUP3 PUSH1 0xA0 SHR AND ISZERO PUSH2 0x1CB2 JUMPI POP PUSH1 0xFF PUSH1 0xA0 SHL NOT AND PUSH1 0x6 SSTORE MLOAD CALLER DUP2 MSTORE PUSH32 0x5DB9EE0A495BF2E6FF9C91A7834C1BA4FDD244A5E8AA4E537BD38AEAE4B073AA SWAP1 PUSH1 0x20 SWAP1 LOG1 DUP1 RETURN JUMPDEST DUP3 MLOAD PUSH4 0x8DFC202B PUSH1 0xE0 SHL DUP2 MSTORE REVERT JUMPDEST POP SWAP1 CALLVALUE PUSH2 0x2AD JUMPI PUSH1 0x20 CALLDATASIZE PUSH1 0x3 NOT ADD SLT PUSH2 0x2AD JUMPI PUSH1 0xC0 SWAP3 DUP2 SWAP1 PUSH1 0x1 PUSH1 0x1 PUSH1 0xA0 SHL SUB PUSH2 0x1CE8 PUSH2 0x261F JUMP JUMPDEST AND DUP2 MSTORE PUSH1 0xF PUSH1 0x20 MSTORE KECCAK256 PUSH1 0x6 DUP2 ADD SLOAD SWAP3 DUP2 SLOAD SWAP3 PUSH1 0x1 DUP4 ADD SLOAD SWAP1 PUSH1 0x2 DUP5 ADD SLOAD SWAP3 PUSH1 0x3 DUP6 ADD SLOAD SWAP5 ADD SLOAD SWAP5 DUP2 MLOAD SWAP7 DUP8 MSTORE PUSH1 0x20 DUP8 ADD MSTORE DUP6 ADD MSTORE PUSH1 0x60 DUP5 ADD MSTORE PUSH1 0x80 DUP4 ADD MSTORE PUSH1 0xA0 DUP3 ADD MSTORE RETURN JUMPDEST POP POP CALLVALUE PUSH2 0x48F JUMPI DUP2 PUSH1 0x3 NOT CALLDATASIZE ADD SLT PUSH2 0x48F JUMPI PUSH2 0x1D47 PUSH2 0x2A47 JUMP JUMPDEST DUP2 DUP1 DUP1 DUP1 PUSH1 0x1 DUP1 PUSH1 0xA0 SHL SUB PUSH1 0x6 SLOAD AND SELFBALANCE SWAP1 DUP3 DUP3 ISZERO PUSH2 0x1D6A JUMPI JUMPDEST CALL ISZERO PUSH2 0xF32 JUMPI POP DUP1 RETURN JUMPDEST POP PUSH2 0x8FC PUSH2 0x1D60 JUMP JUMPDEST POP POP CALLVALUE PUSH2 0x48F JUMPI DUP2 PUSH1 0x3 NOT CALLDATASIZE ADD SLT PUSH2 0x48F JUMPI PUSH1 0x20 SWAP1 PUSH1 0x1 PUSH1 0x1 PUSH1 0x80 SHL SUB PUSH1 0xC SLOAD AND SWAP1 MLOAD SWAP1 DUP2 MSTORE RETURN JUMPDEST POP POP CALLVALUE PUSH2 0x48F JUMPI PUSH1 0x20 CALLDATASIZE PUSH1 0x3 NOT ADD SLT PUSH2 0x48F JUMPI PUSH1 0x20 SWAP2 DUP2 SWAP1 PUSH1 0x1 PUSH1 0x1 PUSH1 0xA0 SHL SUB PUSH2 0x1DC3 PUSH2 0x261F JUMP JUMPDEST AND DUP2 MSTORE PUSH1 0x9 DUP5 MSTORE KECCAK256 SLOAD SWAP1 MLOAD SWAP1 DUP2 MSTORE RETURN JUMPDEST POP POP CALLVALUE PUSH2 0x48F JUMPI DUP2 PUSH1 0x3 NOT CALLDATASIZE ADD SLT PUSH2 0x48F JUMPI PUSH1 0x20 SWAP1 MLOAD PUSH2 0x457 DUP2 MSTORE RETURN JUMPDEST POP CALLVALUE PUSH2 0x2AD JUMPI PUSH2 0x180 SWAP1 DUP2 PUSH1 0x3 NOT CALLDATASIZE ADD SLT PUSH2 0x19AB JUMPI DUP1 CALLDATALOAD SWAP3 DUP4 ISZERO ISZERO DUP1 SWAP5 SUB PUSH2 0xEEB JUMPI PUSH2 0x1E1A PUSH2 0x2826 JUMP JUMPDEST PUSH1 0x44 CALLDATALOAD DUP1 ISZERO ISZERO DUP1 SWAP2 SUB PUSH2 0xFCE JUMPI PUSH1 0x64 CALLDATALOAD SWAP2 DUP3 ISZERO ISZERO DUP1 SWAP4 SUB PUSH2 0x1F4E JUMPI PUSH1 0x84 CALLDATALOAD SWAP4 DUP5 ISZERO ISZERO DUP1 SWAP6 SUB PUSH2 0x1F4A JUMPI PUSH1 0xA4 CALLDATALOAD SWAP6 DUP7 ISZERO ISZERO DUP1 SWAP8 SUB PUSH2 0x1F46 JUMPI PUSH1 0xC4 CALLDATALOAD SWAP8 DUP9 ISZERO ISZERO DUP1 SWAP10 SUB PUSH2 0x1F42 JUMPI PUSH1 0xE4 CALLDATALOAD SWAP3 DUP4 ISZERO ISZERO DUP1 SWAP5 SUB PUSH2 0x1F3E JUMPI PUSH1 0x1 PUSH1 0x1 PUSH1 0x40 SHL SUB SWAP1 PUSH2 0x1E7E PUSH2 0x2A47 JUMP JUMPDEST MLOAD SWAP2 DUP3 ADD SWAP2 DUP3 LT SWAP2 GT OR PUSH2 0x17B6 JUMPI POP SWAP3 PUSH4 0xFF000000 PUSH7 0xFF000000000000 SWAP7 SWAP6 SWAP4 PUSH3 0xFF0000 PUSH5 0xFF00000000 SWAP5 PUSH2 0xFF00 PUSH6 0xFF0000000000 SWAP9 PUSH1 0xFF PUSH1 0xFF PUSH1 0x38 SHL PUSH1 0x16 SLOAD SWAP3 PUSH1 0x38 SHL AND SWAP15 AND SWAP1 PUSH1 0x1 PUSH1 0x1 PUSH1 0x40 SHL SUB NOT AND OR SWAP2 ISZERO ISZERO PUSH1 0x8 SHL AND OR SWAP2 PUSH1 0x10 SHL AND OR SWAP2 PUSH1 0x18 SHL AND OR SWAP2 PUSH1 0x20 SHL AND OR SWAP2 PUSH1 0x28 SHL AND OR SWAP2 PUSH1 0x30 SHL AND OR OR PUSH1 0x16 SSTORE PUSH2 0x104 CALLDATALOAD PUSH1 0x17 SSTORE PUSH2 0x124 CALLDATALOAD PUSH1 0x18 SSTORE PUSH2 0x144 CALLDATALOAD PUSH1 0x19 SSTORE PUSH2 0x164 CALLDATALOAD PUSH1 0x1A SSTORE PUSH32 0x9AF9654A0E5A81A7C6EBD4ADBCDE173624784C0594A0FD86704381C2CE495A1 DUP2 DUP1 LOG1 DUP1 RETURN JUMPDEST DUP12 DUP1 REVERT JUMPDEST DUP11 DUP1 REVERT JUMPDEST DUP10 DUP1 REVERT JUMPDEST DUP9 DUP1 REVERT JUMPDEST DUP8 DUP1 REVERT JUMPDEST DUP4 CALLVALUE PUSH2 0x493 JUMPI PUSH2 0xEE8 PUSH2 0x1F64 CALLDATASIZE PUSH2 0x27F1 JUMP JUMPDEST SWAP2 PUSH2 0x2A73 JUMP JUMPDEST POP SWAP2 CALLVALUE PUSH2 0x493 JUMPI PUSH1 0x20 CALLDATASIZE PUSH1 0x3 NOT ADD SLT PUSH2 0x493 JUMPI DUP3 CALLDATALOAD SWAP1 PUSH1 0x1 PUSH1 0x1 PUSH1 0x40 SHL SUB DUP3 GT PUSH2 0x493 JUMPI POP PUSH2 0x1FA8 PUSH2 0x1FA3 PUSH1 0x20 SWAP5 PUSH1 0xFF SWAP4 CALLDATASIZE SWAP2 ADD PUSH2 0x27D3 JUMP JUMPDEST PUSH2 0x39EA JUMP JUMPDEST SWAP2 MLOAD SWAP2 AND DUP2 MSTORE RETURN JUMPDEST POP SWAP1 PUSH2 0x120 CALLDATASIZE PUSH1 0x3 NOT ADD SLT PUSH2 0x2AD JUMPI PUSH2 0x1FC7 PUSH2 0x2650 JUMP JUMPDEST PUSH2 0x1FCF PUSH2 0x2681 JUMP JUMPDEST SWAP1 PUSH2 0x1FD9 CALLDATASIZE PUSH2 0x2735 JUMP JUMPDEST PUSH2 0x1FE1 PUSH2 0x2660 JUMP JUMPDEST PUSH2 0x1FE9 PUSH2 0x2670 JUMP JUMPDEST SWAP2 PUSH2 0x1FF2 PUSH2 0x2D9E JUMP JUMPDEST PUSH1 0xD SLOAD SWAP5 PUSH2 0x457 DUP7 PUSH1 0xC0 SHR LT ISZERO PUSH2 0x228F JUMPI CALLER DUP10 MSTORE PUSH1 0x20 SWAP6 PUSH1 0x9 DUP8 MSTORE PUSH1 0x2 DUP9 DUP12 KECCAK256 SLOAD LT ISZERO PUSH2 0x2253 JUMPI PUSH2 0x2029 PUSH1 0x8 PUSH1 0xFF DUP9 AND GT ISZERO PUSH2 0x2DBF JUMP JUMPDEST PUSH2 0xFFFF SWAP1 PUSH2 0x203D PUSH2 0x2710 DUP4 DUP6 AND GT ISZERO PUSH2 0x2E02 JUMP JUMPDEST PUSH2 0x2045 PUSH2 0x37AA JUMP JUMPDEST DUP1 CALLVALUE LT PUSH2 0x2219 JUMPI CALLVALUE GT PUSH2 0x21FB JUMPI JUMPDEST POP PUSH1 0xD SLOAD TIMESTAMP PUSH1 0x80 SHL PUSH8 0xFFFFFFFFFFFFFFFF PUSH1 0x80 SHL AND PUSH1 0x1 PUSH1 0x1 PUSH1 0x80 SHL SUB PUSH1 0x1 PUSH1 0x1 PUSH1 0xC0 SHL SUB NOT PUSH2 0x2095 PUSH8 0xFFFFFFFFFFFFFFFF PUSH1 0x80 SHL NOT DUP6 AND DUP5 OR PUSH1 0xC0 SHR PUSH2 0x2ECA JUMP JUMPDEST PUSH1 0xC0 SHL AND SWAP3 AND OR OR PUSH1 0xD SSTORE CALLER DUP11 MSTORE PUSH1 0x9 DUP8 MSTORE DUP8 DUP11 KECCAK256 PUSH2 0x20B4 DUP2 SLOAD PUSH2 0x378E JUMP JUMPDEST SWAP1 SSTORE PUSH1 0xD SLOAD PUSH1 0xC0 SHR SWAP9 CALLER ISZERO PUSH2 0x21E4 JUMPI DUP10 DUP12 MSTORE PUSH1 0x2 DUP9 MSTORE DUP9 DUP12 KECCAK256 SLOAD PUSH1 0x1 PUSH1 0x1 PUSH1 0xA0 SHL SUB AND SWAP1 DUP2 ISZERO ISZERO DUP1 PUSH2 0x21B1 JUMPI JUMPDEST CALLER DUP14 MSTORE PUSH1 0x3 DUP11 MSTORE DUP11 DUP14 KECCAK256 PUSH1 0x1 DUP2 SLOAD ADD SWAP1 SSTORE DUP12 DUP14 MSTORE PUSH1 0x2 DUP11 MSTORE DUP12 DUP14 DUP13 DUP2 KECCAK256 SWAP5 PUSH12 0xFFFFFFFFFFFFFFFFFFFFFFFF PUSH1 0xA0 SHL SWAP6 CALLER DUP8 DUP3 SLOAD AND OR SWAP1 SSTORE PUSH32 0xDDF252AD1BE2C89B69C2B068FC378DAA952BA7F163C4A11628F55A4DF523B3EF CALLER SWAP3 DUP1 LOG4 PUSH2 0x219A JUMPI POP SWAP2 PUSH2 0x218A SWAP6 SWAP4 SWAP2 PUSH32 0xF1798EAFCCCC08CCE1F26D9DEC4B74D6060E0AFFAB206D84DF660133CD947ABB SWAP10 SWAP9 SWAP8 SWAP6 SWAP4 DUP12 DUP14 MSTORE PUSH1 0x8 DUP10 MSTORE DUP10 DUP14 KECCAK256 SWAP1 CALLER SWAP1 DUP3 SLOAD AND OR SWAP1 SSTORE DUP11 AND SWAP5 PUSH2 0x2EE2 JUMP JUMPDEST DUP2 MLOAD SWAP4 DUP5 MSTORE CALLVALUE SWAP1 DUP5 ADD MSTORE CALLER SWAP3 LOG2 DUP1 RETURN JUMPDEST DUP10 MLOAD PUSH4 0x39E35637 PUSH1 0xE1 SHL DUP2 MSTORE SWAP1 DUP2 ADD DUP13 SWAP1 MSTORE PUSH1 0x24 SWAP1 REVERT JUMPDEST PUSH1 0x0 DUP13 DUP2 MSTORE PUSH1 0x4 PUSH1 0x20 MSTORE PUSH1 0x40 SWAP1 KECCAK256 DUP1 SLOAD PUSH1 0x1 PUSH1 0x1 PUSH1 0xA0 SHL SUB NOT AND SWAP1 SSTORE DUP3 DUP14 MSTORE PUSH1 0x3 DUP11 MSTORE DUP11 DUP14 KECCAK256 DUP1 SLOAD PUSH1 0x0 NOT ADD SWAP1 SSTORE PUSH2 0x20E1 JUMP JUMPDEST DUP9 MLOAD PUSH4 0x32505749 PUSH1 0xE1 SHL DUP2 MSTORE SWAP1 DUP2 ADD DUP12 SWAP1 MSTORE PUSH1 0x24 SWAP1 REVERT JUMPDEST PUSH1 0x1 PUSH1 0x1 PUSH1 0x80 SHL SUB NOT AND CALLVALUE PUSH1 0x1 PUSH1 0x1 PUSH1 0x80 SHL SUB AND OR PUSH1 0xD SSTORE CODESIZE PUSH2 0x2053 JUMP JUMPDEST DUP10 MLOAD PUSH3 0x461BCD PUSH1 0xE5 SHL DUP2 MSTORE DUP1 DUP13 ADD DUP11 SWAP1 MSTORE PUSH1 0x14 PUSH1 0x24 DUP3 ADD MSTORE PUSH20 0x125B9CDD59999A58DA595B9D081C185E5B595B9D PUSH1 0x62 SHL PUSH1 0x44 DUP3 ADD MSTORE PUSH1 0x64 SWAP1 REVERT JUMPDEST DUP8 MLOAD PUSH3 0x461BCD PUSH1 0xE5 SHL DUP2 MSTORE DUP1 DUP11 ADD DUP9 SWAP1 MSTORE PUSH1 0x16 PUSH1 0x24 DUP3 ADD MSTORE PUSH22 0x13585E081C195C881DD85B1B195D081C995858DA1959 PUSH1 0x52 SHL PUSH1 0x44 DUP3 ADD MSTORE PUSH1 0x64 SWAP1 REVERT JUMPDEST DUP7 MLOAD PUSH3 0x461BCD PUSH1 0xE5 SHL DUP2 MSTORE PUSH1 0x20 DUP2 DUP11 ADD MSTORE PUSH1 0x12 PUSH1 0x24 DUP3 ADD MSTORE PUSH18 0x13585E081CDD5C1C1B1E481C995858DA1959 PUSH1 0x72 SHL PUSH1 0x44 DUP3 ADD MSTORE PUSH1 0x64 SWAP1 REVERT JUMPDEST POP POP CALLVALUE PUSH2 0x48F JUMPI DUP2 PUSH1 0x3 NOT CALLDATASIZE ADD SLT PUSH2 0x48F JUMPI PUSH2 0x180 SWAP1 PUSH1 0x16 SLOAD SWAP1 PUSH1 0x17 SLOAD PUSH1 0x18 SLOAD PUSH1 0x19 SLOAD SWAP2 PUSH1 0x1A SLOAD SWAP4 DUP1 MLOAD SWAP6 PUSH1 0xFF SWAP2 DUP3 DUP3 AND ISZERO ISZERO DUP9 MSTORE DUP3 DUP3 PUSH1 0x8 SHR AND ISZERO ISZERO PUSH1 0x20 DUP10 ADD MSTORE DUP3 DUP3 PUSH1 0x10 SHR AND ISZERO ISZERO SWAP1 DUP9 ADD MSTORE DUP2 DUP2 PUSH1 0x18 SHR AND ISZERO ISZERO PUSH1 0x60 DUP9 ADD MSTORE DUP2 DUP2 PUSH1 0x20 SHR AND ISZERO ISZERO PUSH1 0x80 DUP9 ADD MSTORE DUP2 DUP2 PUSH1 0x28 SHR AND ISZERO ISZERO PUSH1 0xA0 DUP9 ADD MSTORE DUP2 DUP2 PUSH1 0x30 SHR AND ISZERO ISZERO PUSH1 0xC0 DUP9 ADD MSTORE PUSH1 0x38 SHR AND ISZERO ISZERO PUSH1 0xE0 DUP7 ADD MSTORE PUSH2 0x100 DUP6 ADD MSTORE PUSH2 0x120 DUP5 ADD MSTORE PUSH2 0x140 DUP4 ADD MSTORE PUSH2 0x160 DUP3 ADD MSTORE RETURN JUMPDEST POP POP CALLVALUE PUSH2 0x48F JUMPI DUP2 PUSH1 0x3 NOT CALLDATASIZE ADD SLT PUSH2 0x48F JUMPI PUSH1 0x20 SWAP1 MLOAD PUSH1 0x2 DUP2 MSTORE RETURN JUMPDEST POP POP CALLVALUE PUSH2 0x48F JUMPI DUP2 PUSH1 0x3 NOT CALLDATASIZE ADD SLT PUSH2 0x48F JUMPI PUSH1 0x20 SWAP1 MLOAD PUSH7 0x38D7EA4C68000 DUP2 MSTORE RETURN JUMPDEST POP SWAP1 CALLVALUE PUSH2 0x2AD JUMPI DUP1 PUSH1 0x3 NOT CALLDATASIZE ADD SLT PUSH2 0x2AD JUMPI PUSH2 0x23C6 PUSH2 0x261F JUMP JUMPDEST SWAP2 PUSH1 0x24 CALLDATALOAD PUSH2 0x23D3 DUP2 PUSH2 0x2D63 JUMP JUMPDEST CALLER ISZERO ISZERO DUP1 PUSH2 0x2475 JUMPI JUMPDEST DUP1 PUSH2 0x244C JUMPI JUMPDEST PUSH2 0x2436 JUMPI PUSH1 0x1 PUSH1 0x1 PUSH1 0xA0 SHL SUB SWAP5 DUP6 AND SWAP5 DUP3 SWAP2 DUP7 SWAP2 AND PUSH32 0x8C5BE1E5EBEC7D5BD14F71427D1E84F3DD0314C0F7B2291E5B200AC8C7C3B925 DUP9 DUP1 LOG4 DUP5 MSTORE PUSH1 0x20 MSTORE DUP3 KECCAK256 DUP1 SLOAD PUSH1 0x1 PUSH1 0x1 PUSH1 0xA0 SHL SUB NOT AND SWAP1 SWAP2 OR SWAP1 SSTORE DUP1 RETURN JUMPDEST DUP4 MLOAD PUSH4 0xA9FBF51F PUSH1 0xE0 SHL DUP2 MSTORE CALLER DUP2 DUP6 ADD MSTORE PUSH1 0x24 SWAP1 REVERT JUMPDEST POP PUSH1 0x1 PUSH1 0x1 PUSH1 0xA0 SHL SUB DUP2 AND DUP7 MSTORE PUSH1 0x5 PUSH1 0x20 SWAP1 DUP2 MSTORE DUP5 DUP8 KECCAK256 CALLER DUP9 MSTORE SWAP1 MSTORE DUP4 DUP7 KECCAK256 SLOAD PUSH1 0xFF AND ISZERO PUSH2 0x23E2 JUMP JUMPDEST POP PUSH1 0x1 PUSH1 0x1 PUSH1 0xA0 SHL SUB DUP2 AND CALLER EQ ISZERO PUSH2 0x23DC JUMP JUMPDEST POP CALLVALUE PUSH2 0x2AD JUMPI PUSH1 0x20 CALLDATASIZE PUSH1 0x3 NOT ADD SLT PUSH2 0x2AD JUMPI SWAP2 DUP3 PUSH1 0x20 SWAP4 CALLDATALOAD PUSH2 0x24A9 DUP2 PUSH2 0x2D63 JUMP JUMPDEST POP DUP3 MSTORE DUP4 MSTORE DUP2 SWAP1 KECCAK256 SLOAD SWAP1 MLOAD PUSH1 0x1 PUSH1 0x1 PUSH1 0xA0 SHL SUB SWAP1 SWAP2 AND DUP2 MSTORE RETURN JUMPDEST POP POP CALLVALUE PUSH2 0x48F JUMPI DUP2 PUSH1 0x3 NOT CALLDATASIZE ADD SLT PUSH2 0x48F JUMPI DUP1 MLOAD SWAP1 DUP3 DUP1 SLOAD PUSH2 0x24E4 DUP2 PUSH2 0x2882 JUMP JUMPDEST DUP1 DUP6 MSTORE SWAP2 PUSH1 0x1 SWAP2 DUP1 DUP4 AND SWAP1 DUP2 ISZERO PUSH2 0x1165 JUMPI POP PUSH1 0x1 EQ PUSH2 0x250F JUMPI POP POP POP PUSH2 0x10F7 DUP3 PUSH2 0x6C2 SWAP5 SUB DUP4 PUSH2 0x2714 JUMP JUMPDEST DUP1 DUP1 SWAP7 POP MSTORE PUSH32 0x290DECD9548B62A8D60345A988386FC84BA6BC95484008F6362F93160EF3E563 JUMPDEST DUP3 DUP7 LT PUSH2 0x2553 JUMPI POP POP POP PUSH2 0x10F7 DUP3 PUSH1 0x20 PUSH2 0x6C2 SWAP6 DUP3 ADD ADD SWAP5 PUSH2 0x10E5 JUMP JUMPDEST DUP1 SLOAD PUSH1 0x20 DUP8 DUP8 ADD DUP2 ADD SWAP2 SWAP1 SWAP2 MSTORE SWAP1 SWAP6 ADD SWAP5 DUP2 ADD PUSH2 0x2536 JUMP JUMPDEST SWAP3 POP POP CALLVALUE PUSH2 0x2AD JUMPI PUSH1 0x20 CALLDATASIZE PUSH1 0x3 NOT ADD SLT PUSH2 0x2AD JUMPI CALLDATALOAD PUSH4 0xFFFFFFFF PUSH1 0xE0 SHL DUP2 AND DUP1 SWAP2 SUB PUSH2 0x2AD JUMPI PUSH1 0x20 SWAP3 POP PUSH4 0x80AC58CD PUSH1 0xE0 SHL DUP2 EQ SWAP1 DUP2 ISZERO PUSH2 0x25C6 JUMPI JUMPDEST DUP2 ISZERO PUSH2 0x25B5 JUMPI JUMPDEST POP ISZERO ISZERO DUP2 MSTORE RETURN JUMPDEST PUSH4 0x1FFC9A7 PUSH1 0xE0 SHL EQ SWAP1 POP CODESIZE PUSH2 0x25AE JUMP JUMPDEST PUSH4 0x5B5E139F PUSH1 0xE0 SHL DUP2 EQ SWAP2 POP PUSH2 0x25A7 JUMP JUMPDEST PUSH1 0x0 JUMPDEST DUP4 DUP2 LT PUSH2 0x25EA JUMPI POP POP PUSH1 0x0 SWAP2 ADD MSTORE JUMP JUMPDEST DUP2 DUP2 ADD MLOAD DUP4 DUP3 ADD MSTORE PUSH1 0x20 ADD PUSH2 0x25DA JUMP JUMPDEST SWAP1 PUSH1 0x20 SWAP2 PUSH2 0x2613 DUP2 MLOAD DUP1 SWAP3 DUP2 DUP6 MSTORE DUP6 DUP1 DUP7 ADD SWAP2 ADD PUSH2 0x25D7 JUMP JUMPDEST PUSH1 0x1F ADD PUSH1 0x1F NOT AND ADD ADD SWAP1 JUMP JUMPDEST PUSH1 0x4 CALLDATALOAD SWAP1 PUSH1 0x1 PUSH1 0x1 PUSH1 0xA0 SHL SUB DUP3 AND DUP3 SUB PUSH2 0x2635 JUMPI JUMP JUMPDEST PUSH1 0x0 DUP1 REVERT JUMPDEST PUSH1 0x24 CALLDATALOAD SWAP1 PUSH1 0x1 PUSH1 0x1 PUSH1 0xA0 SHL SUB DUP3 AND DUP3 SUB PUSH2 0x2635 JUMPI JUMP JUMPDEST PUSH1 0x4 CALLDATALOAD SWAP1 PUSH1 0xFF DUP3 AND DUP3 SUB PUSH2 0x2635 JUMPI JUMP JUMPDEST PUSH1 0xE4 CALLDATALOAD SWAP1 PUSH1 0xFF DUP3 AND DUP3 SUB PUSH2 0x2635 JUMPI JUMP JUMPDEST PUSH2 0x104 CALLDATALOAD SWAP1 PUSH1 0xFF DUP3 AND DUP3 SUB PUSH2 0x2635 JUMPI JUMP JUMPDEST PUSH1 0x24 CALLDATALOAD SWAP1 PUSH2 0xFFFF DUP3 AND DUP3 SUB PUSH2 0x2635 JUMPI JUMP JUMPDEST PUSH1 0xA0 DUP2 ADD SWAP1 DUP2 LT PUSH1 0x1 PUSH1 0x1 PUSH1 0x40 SHL SUB DUP3 GT OR PUSH2 0x26AD JUMPI PUSH1 0x40 MSTORE JUMP JUMPDEST PUSH4 0x4E487B71 PUSH1 0xE0 SHL PUSH1 0x0 MSTORE PUSH1 0x41 PUSH1 0x4 MSTORE PUSH1 0x24 PUSH1 0x0 REVERT JUMPDEST PUSH1 0xC0 DUP2 ADD SWAP1 DUP2 LT PUSH1 0x1 PUSH1 0x1 PUSH1 0x40 SHL SUB DUP3 GT OR PUSH2 0x26AD JUMPI PUSH1 0x40 MSTORE JUMP JUMPDEST PUSH1 0x20 DUP2 ADD SWAP1 DUP2 LT PUSH1 0x1 PUSH1 0x1 PUSH1 0x40 SHL SUB DUP3 GT OR PUSH2 0x26AD JUMPI PUSH1 0x40 MSTORE JUMP JUMPDEST PUSH1 0x40 DUP2 ADD SWAP1 DUP2 LT PUSH1 0x1 PUSH1 0x1 PUSH1 0x40 SHL SUB DUP3 GT OR PUSH2 0x26AD JUMPI PUSH1 0x40 MSTORE JUMP JUMPDEST SWAP1 PUSH1 0x1F DUP1 NOT SWAP2 ADD AND DUP2 ADD SWAP1 DUP2 LT PUSH1 0x1 PUSH1 0x1 PUSH1 0x40 SHL SUB DUP3 GT OR PUSH2 0x26AD JUMPI PUSH1 0x40 MSTORE JUMP JUMPDEST DUP1 PUSH1 0x63 SLT ISZERO PUSH2 0x2635 JUMPI PUSH1 0x40 MLOAD SWAP1 PUSH2 0x274B DUP3 PUSH2 0x2692 JUMP JUMPDEST DUP2 SWAP1 PUSH1 0xE4 SWAP1 DUP2 GT PUSH2 0x2635 JUMPI PUSH1 0x44 SWAP2 JUMPDEST DUP2 DUP4 LT PUSH2 0x2767 JUMPI POP POP POP SWAP1 JUMP JUMPDEST DUP3 CALLDATALOAD PUSH1 0xFF DUP2 AND DUP2 SUB PUSH2 0x2635 JUMPI DUP2 MSTORE PUSH1 0x20 SWAP3 DUP4 ADD SWAP3 ADD PUSH2 0x275A JUMP JUMPDEST PUSH1 0x1 PUSH1 0x1 PUSH1 0x40 SHL SUB DUP2 GT PUSH2 0x26AD JUMPI PUSH1 0x1F ADD PUSH1 0x1F NOT AND PUSH1 0x20 ADD SWAP1 JUMP JUMPDEST SWAP3 SWAP2 SWAP3 PUSH2 0x27A8 DUP3 PUSH2 0x2781 JUMP JUMPDEST SWAP2 PUSH2 0x27B6 PUSH1 0x40 MLOAD SWAP4 DUP5 PUSH2 0x2714 JUMP JUMPDEST DUP3 SWAP5 DUP2 DUP5 MSTORE DUP2 DUP4 ADD GT PUSH2 0x2635 JUMPI DUP3 DUP2 PUSH1 0x20 SWAP4 DUP5 PUSH1 0x0 SWAP7 ADD CALLDATACOPY ADD ADD MSTORE JUMP JUMPDEST SWAP1 DUP1 PUSH1 0x1F DUP4 ADD SLT ISZERO PUSH2 0x2635 JUMPI DUP2 PUSH1 0x20 PUSH2 0x27EE SWAP4 CALLDATALOAD SWAP2 ADD PUSH2 0x279C JUMP JUMPDEST SWAP1 JUMP JUMPDEST PUSH1 0x60 SWAP1 PUSH1 0x3 NOT ADD SLT PUSH2 0x2635 JUMPI PUSH1 0x1 PUSH1 0x1 PUSH1 0xA0 SHL SUB SWAP1 PUSH1 0x4 CALLDATALOAD DUP3 DUP2 AND DUP2 SUB PUSH2 0x2635 JUMPI SWAP2 PUSH1 0x24 CALLDATALOAD SWAP1 DUP2 AND DUP2 SUB PUSH2 0x2635 JUMPI SWAP1 PUSH1 0x44 CALLDATALOAD SWAP1 JUMP JUMPDEST PUSH1 0x24 CALLDATALOAD SWAP1 DUP2 ISZERO ISZERO DUP3 SUB PUSH2 0x2635 JUMPI JUMP JUMPDEST PUSH1 0x10 SLOAD DUP2 LT ISZERO PUSH2 0x286C JUMPI PUSH1 0x10 PUSH1 0x0 MSTORE PUSH32 0x1B6847DC741A1B0CD08D278845F9D819D87B734759AFB55FE2DE5CB82A9AE672 ADD SWAP1 PUSH1 0x0 SWAP1 JUMP JUMPDEST PUSH4 0x4E487B71 PUSH1 0xE0 SHL PUSH1 0x0 MSTORE PUSH1 0x32 PUSH1 0x4 MSTORE PUSH1 0x24 PUSH1 0x0 REVERT JUMPDEST SWAP1 PUSH1 0x1 DUP3 DUP2 SHR SWAP3 AND DUP1 ISZERO PUSH2 0x28B2 JUMPI JUMPDEST PUSH1 0x20 DUP4 LT EQ PUSH2 0x289C JUMPI JUMP JUMPDEST PUSH4 0x4E487B71 PUSH1 0xE0 SHL PUSH1 0x0 MSTORE PUSH1 0x22 PUSH1 0x4 MSTORE PUSH1 0x24 PUSH1 0x0 REVERT JUMPDEST SWAP2 PUSH1 0x7F AND SWAP2 PUSH2 0x2891 JUMP JUMPDEST PUSH1 0x40 MLOAD SWAP1 PUSH1 0x0 DUP3 PUSH1 0x11 SLOAD SWAP2 PUSH2 0x28D0 DUP4 PUSH2 0x2882 JUMP JUMPDEST DUP1 DUP4 MSTORE SWAP3 PUSH1 0x1 SWAP1 DUP2 DUP2 AND SWAP1 DUP2 ISZERO PUSH2 0x2958 JUMPI POP PUSH1 0x1 EQ PUSH2 0x28F9 JUMPI JUMPDEST POP PUSH2 0x28F7 SWAP3 POP SUB DUP4 PUSH2 0x2714 JUMP JUMPDEST JUMP JUMPDEST PUSH1 0x11 PUSH1 0x0 SWAP1 DUP2 MSTORE SWAP2 POP PUSH32 0x31ECC21A745E3968A04E9570E4425BC18FA8019C68028196B546D1669C200C68 JUMPDEST DUP5 DUP4 LT PUSH2 0x293D JUMPI POP PUSH2 0x28F7 SWAP4 POP POP DUP2 ADD PUSH1 0x20 ADD CODESIZE PUSH2 0x28EA JUMP JUMPDEST DUP2 SWAP4 POP SWAP1 DUP2 PUSH1 0x20 SWAP3 SLOAD DUP4 DUP6 DUP11 ADD ADD MSTORE ADD SWAP2 ADD SWAP1 SWAP2 DUP6 SWAP3 PUSH2 0x2924 JUMP JUMPDEST SWAP1 POP PUSH1 0x20 SWAP3 POP PUSH2 0x28F7 SWAP5 SWAP2 POP PUSH1 0xFF NOT AND DUP3 DUP5 ADD MSTORE ISZERO ISZERO PUSH1 0x5 SHL DUP3 ADD ADD CODESIZE PUSH2 0x28EA JUMP JUMPDEST PUSH1 0x40 MLOAD SWAP1 PUSH1 0x0 DUP3 PUSH1 0x12 SLOAD SWAP2 PUSH2 0x298E DUP4 PUSH2 0x2882 JUMP JUMPDEST DUP1 DUP4 MSTORE SWAP3 PUSH1 0x1 SWAP1 DUP2 DUP2 AND SWAP1 DUP2 ISZERO PUSH2 0x2958 JUMPI POP PUSH1 0x1 EQ PUSH2 0x29B4 JUMPI POP PUSH2 0x28F7 SWAP3 POP SUB DUP4 PUSH2 0x2714 JUMP JUMPDEST PUSH1 0x12 PUSH1 0x0 SWAP1 DUP2 MSTORE SWAP2 POP PUSH32 0xBB8A6A4669BA250D26CD7A459ECA9D215F8307E33AEBE50379BC5A3617EC3444 JUMPDEST DUP5 DUP4 LT PUSH2 0x29F8 JUMPI POP PUSH2 0x28F7 SWAP4 POP POP DUP2 ADD PUSH1 0x20 ADD CODESIZE PUSH2 0x28EA JUMP JUMPDEST DUP2 SWAP4 POP SWAP1 DUP2 PUSH1 0x20 SWAP3 SLOAD DUP4 DUP6 DUP11 ADD ADD MSTORE ADD SWAP2 ADD SWAP1 SWAP2 DUP6 SWAP3 PUSH2 0x29DF JUMP JUMPDEST SWAP1 DUP2 MLOAD DUP1 DUP3 MSTORE PUSH1 0x20 DUP1 DUP1 SWAP4 ADD SWAP4 ADD SWAP2 PUSH1 0x0 JUMPDEST DUP3 DUP2 LT PUSH2 0x2A33 JUMPI POP POP POP POP SWAP1 JUMP JUMPDEST DUP4 MLOAD DUP6 MSTORE SWAP4 DUP2 ADD SWAP4 SWAP3 DUP2 ADD SWAP3 PUSH1 0x1 ADD PUSH2 0x2A25 JUMP JUMPDEST PUSH1 0x6 SLOAD PUSH1 0x1 PUSH1 0x1 PUSH1 0xA0 SHL SUB AND CALLER SUB PUSH2 0x2A5B JUMPI JUMP JUMPDEST PUSH1 0x40 MLOAD PUSH4 0x118CDAA7 PUSH1 0xE0 SHL DUP2 MSTORE CALLER PUSH1 0x4 DUP3 ADD MSTORE PUSH1 0x24 SWAP1 REVERT JUMPDEST PUSH1 0x1 PUSH1 0x1 PUSH1 0xA0 SHL SUB SWAP2 DUP3 AND SWAP3 SWAP1 SWAP2 DUP4 ISZERO PUSH2 0x2BF9 JUMPI PUSH1 0x0 SWAP3 DUP3 DUP5 MSTORE DUP3 PUSH1 0x20 SWAP6 PUSH1 0x2 DUP8 MSTORE PUSH1 0x40 SWAP7 DUP5 DUP9 DUP9 KECCAK256 SLOAD AND SWAP7 DUP8 SWAP2 CALLER ISZERO ISZERO DUP1 PUSH2 0x2B63 JUMPI JUMPDEST POP SWAP1 PUSH1 0x2 PUSH32 0xDDF252AD1BE2C89B69C2B068FC378DAA952BA7F163C4A11628F55A4DF523B3EF SWAP3 DUP5 PUSH2 0x2B30 JUMPI JUMPDEST DUP6 DUP4 MSTORE PUSH1 0x3 DUP2 MSTORE DUP12 DUP4 KECCAK256 DUP1 SLOAD PUSH1 0x1 ADD SWAP1 SSTORE DUP7 DUP4 MSTORE MSTORE DUP10 DUP2 KECCAK256 DUP1 SLOAD PUSH1 0x1 PUSH1 0x1 PUSH1 0xA0 SHL SUB NOT AND DUP6 OR SWAP1 SSTORE DUP1 LOG4 AND SWAP3 DUP4 DUP4 SUB PUSH2 0x2B0F JUMPI POP POP POP POP JUMP JUMPDEST PUSH1 0x64 SWAP5 POP MLOAD SWAP3 PUSH4 0x64283D7B PUSH1 0xE0 SHL DUP5 MSTORE PUSH1 0x4 DUP5 ADD MSTORE PUSH1 0x24 DUP4 ADD MSTORE PUSH1 0x44 DUP3 ADD MSTORE REVERT JUMPDEST PUSH1 0x0 DUP8 DUP2 MSTORE PUSH1 0x4 PUSH1 0x20 MSTORE PUSH1 0x40 SWAP1 KECCAK256 DUP1 SLOAD PUSH1 0x1 PUSH1 0x1 PUSH1 0xA0 SHL SUB NOT AND SWAP1 SSTORE DUP5 DUP4 MSTORE PUSH1 0x3 DUP2 MSTORE DUP12 DUP4 KECCAK256 DUP1 SLOAD PUSH1 0x0 NOT ADD SWAP1 SSTORE PUSH2 0x2AD6 JUMP JUMPDEST SWAP2 SWAP4 SWAP5 POP SWAP2 POP DUP1 PUSH2 0x2BB8 JUMPI JUMPDEST ISZERO PUSH2 0x2B7F JUMPI DUP6 SWAP3 SWAP2 DUP8 SWAP2 CODESIZE PUSH2 0x2AAA JUMP JUMPDEST DUP8 DUP7 DUP9 PUSH2 0x2B9C JUMPI PUSH1 0x24 SWAP2 MLOAD SWAP1 PUSH4 0x7E273289 PUSH1 0xE0 SHL DUP3 MSTORE PUSH1 0x4 DUP3 ADD MSTORE REVERT JUMPDEST PUSH1 0x44 SWAP2 MLOAD SWAP1 PUSH4 0x177E802F PUSH1 0xE0 SHL DUP3 MSTORE CALLER PUSH1 0x4 DUP4 ADD MSTORE PUSH1 0x24 DUP3 ADD MSTORE REVERT JUMPDEST POP CALLER DUP8 EQ DUP1 ISZERO PUSH2 0x2BDD JUMPI JUMPDEST DUP1 PUSH2 0x2B6F JUMPI POP DUP6 DUP3 MSTORE PUSH1 0x4 DUP2 MSTORE CALLER DUP6 DUP10 DUP5 KECCAK256 SLOAD AND EQ PUSH2 0x2B6F JUMP JUMPDEST POP DUP7 DUP3 MSTORE PUSH1 0x5 DUP2 MSTORE DUP8 DUP3 KECCAK256 CALLER DUP4 MSTORE DUP2 MSTORE PUSH1 0xFF DUP9 DUP4 KECCAK256 SLOAD AND PUSH2 0x2BC3 JUMP JUMPDEST PUSH1 0x40 MLOAD PUSH4 0x32505749 PUSH1 0xE1 SHL DUP2 MSTORE PUSH1 0x0 PUSH1 0x4 DUP3 ADD MSTORE PUSH1 0x24 SWAP1 REVERT JUMPDEST SWAP3 SWAP1 SWAP3 PUSH2 0x2C20 DUP4 DUP6 DUP4 PUSH2 0x2A73 JUMP JUMPDEST DUP4 EXTCODESIZE PUSH2 0x2C2D JUMPI JUMPDEST POP POP POP POP JUMP JUMPDEST PUSH1 0x40 MLOAD PUSH4 0xA85BD01 PUSH1 0xE1 SHL DUP1 DUP3 MSTORE CALLER PUSH1 0x4 DUP4 ADD MSTORE PUSH1 0x1 PUSH1 0x1 PUSH1 0xA0 SHL SUB SWAP3 DUP4 AND PUSH1 0x24 DUP4 ADD MSTORE PUSH1 0x44 DUP3 ADD SWAP5 SWAP1 SWAP5 MSTORE PUSH1 0x80 PUSH1 0x64 DUP3 ADD MSTORE SWAP5 SWAP4 AND SWAP3 PUSH1 0x20 SWAP3 SWAP1 SWAP2 DUP6 SWAP1 PUSH2 0x2C79 SWAP1 PUSH1 0x84 DUP4 ADD SWAP1 PUSH2 0x25FA JUMP JUMPDEST SUB SWAP5 DUP4 DUP2 PUSH1 0x0 SWAP8 DUP2 DUP10 DUP10 GAS CALL DUP7 SWAP2 DUP2 PUSH2 0x2D23 JUMPI JUMPDEST POP PUSH2 0x2CEE JUMPI POP POP POP RETURNDATASIZE PUSH1 0x0 EQ PUSH2 0x2CE5 JUMPI RETURNDATASIZE PUSH2 0x2CA7 DUP2 PUSH2 0x2781 JUMP JUMPDEST SWAP1 PUSH2 0x2CB5 PUSH1 0x40 MLOAD SWAP3 DUP4 PUSH2 0x2714 JUMP JUMPDEST DUP2 MSTORE DUP1 SWAP4 DUP3 RETURNDATASIZE SWAP3 ADD RETURNDATACOPY JUMPDEST DUP3 MLOAD SWAP3 DUP4 PUSH2 0x2CE0 JUMPI PUSH1 0x40 MLOAD PUSH4 0x32505749 PUSH1 0xE1 SHL DUP2 MSTORE PUSH1 0x4 DUP2 ADD DUP5 SWAP1 MSTORE PUSH1 0x24 SWAP1 REVERT JUMPDEST ADD SWAP1 POP REVERT JUMPDEST PUSH1 0x60 SWAP3 POP PUSH2 0x2CBF JUMP JUMPDEST SWAP2 SWAP5 POP SWAP2 POP PUSH4 0xFFFFFFFF PUSH1 0xE0 SHL AND SUB PUSH2 0x2D0B JUMPI POP CODESIZE DUP1 DUP1 DUP1 PUSH2 0x2C27 JUMP JUMPDEST PUSH1 0x24 SWAP1 PUSH1 0x40 MLOAD SWAP1 PUSH4 0x32505749 PUSH1 0xE1 SHL DUP3 MSTORE PUSH1 0x4 DUP3 ADD MSTORE REVERT JUMPDEST SWAP1 SWAP2 POP DUP5 DUP2 DUP2 RETURNDATASIZE DUP4 GT PUSH2 0x2D5C JUMPI JUMPDEST PUSH2 0x2D3B DUP2 DUP4 PUSH2 0x2714 JUMP JUMPDEST DUP2 ADD SUB SLT PUSH2 0xFCE JUMPI MLOAD PUSH1 0x1 PUSH1 0x1 PUSH1 0xE0 SHL SUB NOT DUP2 AND DUP2 SUB PUSH2 0xFCE JUMPI SWAP1 CODESIZE PUSH2 0x2C8D JUMP JUMPDEST POP RETURNDATASIZE PUSH2 0x2D31 JUMP JUMPDEST PUSH1 0x0 DUP2 DUP2 MSTORE PUSH1 0x2 PUSH1 0x20 MSTORE PUSH1 0x40 SWAP1 KECCAK256 SLOAD PUSH1 0x1 PUSH1 0x1 PUSH1 0xA0 SHL SUB AND SWAP1 DUP2 ISZERO PUSH2 0x2D86 JUMPI POP SWAP1 JUMP JUMPDEST PUSH1 0x24 SWAP1 PUSH1 0x40 MLOAD SWAP1 PUSH4 0x7E273289 PUSH1 0xE0 SHL DUP3 MSTORE PUSH1 0x4 DUP3 ADD MSTORE REVERT JUMPDEST PUSH1 0xFF PUSH1 0x6 SLOAD PUSH1 0xA0 SHR AND PUSH2 0x2DAD JUMPI JUMP JUMPDEST PUSH1 0x40 MLOAD PUSH4 0xD93C0665 PUSH1 0xE0 SHL DUP2 MSTORE PUSH1 0x4 SWAP1 REVERT JUMPDEST ISZERO PUSH2 0x2DC6 JUMPI JUMP JUMPDEST PUSH1 0x40 MLOAD PUSH3 0x461BCD PUSH1 0xE5 SHL DUP2 MSTORE PUSH1 0x20 PUSH1 0x4 DUP3 ADD MSTORE PUSH1 0x14 PUSH1 0x24 DUP3 ADD MSTORE PUSH20 0x496E76616C696420656D6F74696F6E20636F6465 PUSH1 0x60 SHL PUSH1 0x44 DUP3 ADD MSTORE PUSH1 0x64 SWAP1 REVERT JUMPDEST ISZERO PUSH2 0x2E09 JUMPI JUMP JUMPDEST PUSH1 0x40 MLOAD PUSH3 0x461BCD PUSH1 0xE5 SHL DUP2 MSTORE PUSH1 0x20 PUSH1 0x4 DUP3 ADD MSTORE PUSH1 0x1B PUSH1 0x24 DUP3 ADD MSTORE PUSH32 0x436F6E666964656E6365206D757374206265203C3D2031303030300000000000 PUSH1 0x44 DUP3 ADD MSTORE PUSH1 0x64 SWAP1 REVERT JUMPDEST DUP2 ISZERO PUSH2 0x2E58 JUMPI DIV SWAP1 JUMP JUMPDEST PUSH4 0x4E487B71 PUSH1 0xE0 SHL PUSH1 0x0 MSTORE PUSH1 0x12 PUSH1 0x4 MSTORE PUSH1 0x24 PUSH1 0x0 REVERT JUMPDEST DUP1 SLOAD DUP3 LT ISZERO PUSH2 0x286C JUMPI PUSH1 0x0 MSTORE PUSH1 0x20 PUSH1 0x0 KECCAK256 SWAP1 PUSH1 0x1 SHL ADD SWAP1 PUSH1 0x0 SWAP1 JUMP JUMPDEST DUP2 DUP2 LT PUSH2 0x2E95 JUMPI POP POP JUMP JUMPDEST PUSH1 0x0 DUP2 SSTORE PUSH1 0x1 ADD PUSH2 0x2E8A JUMP JUMPDEST PUSH2 0xFFFF DUP1 SWAP2 AND SWAP1 DUP2 EQ PUSH2 0x2EB4 JUMPI PUSH1 0x1 ADD SWAP1 JUMP JUMPDEST PUSH4 0x4E487B71 PUSH1 0xE0 SHL PUSH1 0x0 MSTORE PUSH1 0x11 PUSH1 0x4 MSTORE PUSH1 0x24 PUSH1 0x0 REVERT JUMPDEST PUSH1 0x1 PUSH1 0x1 PUSH1 0x40 SHL SUB DUP1 SWAP2 AND SWAP1 DUP2 EQ PUSH2 0x2EB4 JUMPI PUSH1 0x1 ADD SWAP1 JUMP JUMPDEST SWAP5 SWAP3 SWAP2 SWAP1 SWAP6 SWAP4 PUSH2 0x2EF8 PUSH1 0x8 PUSH1 0xFF DUP9 AND GT ISZERO PUSH2 0x2DBF JUMP JUMPDEST PUSH2 0x2F0A PUSH2 0x2710 PUSH2 0xFFFF DUP10 AND GT ISZERO PUSH2 0x2E02 JUMP JUMPDEST PUSH1 0x64 PUSH1 0xFF DUP5 AND GT PUSH2 0x3750 JUMPI PUSH1 0x64 PUSH1 0xFF DUP3 AND GT PUSH2 0x3716 JUMPI CALLER PUSH1 0x0 MSTORE PUSH1 0x7 PUSH1 0x20 MSTORE PUSH1 0x40 PUSH1 0x0 KECCAK256 SWAP4 PUSH4 0xFFFFFFFF PUSH3 0x15180 TIMESTAMP DIV AND SWAP1 PUSH2 0xFFFF DUP2 AND PUSH1 0x0 MSTORE PUSH1 0x8 PUSH1 0x20 MSTORE PUSH1 0x40 PUSH1 0x0 KECCAK256 DUP1 SLOAD PUSH1 0x1 DUP1 PUSH1 0xA0 SHL SUB DUP2 AND ISZERO PUSH2 0x36DF JUMPI JUMPDEST POP POP POP PUSH1 0x1 DUP6 ADD SLOAD DUP2 PUSH4 0xFFFFFFFF DUP3 AND SUB PUSH2 0x36C9 JUMPI JUMPDEST POP POP PUSH1 0x3 PUSH2 0xFFFF PUSH1 0x1 DUP7 ADD SLOAD PUSH1 0x20 SHR AND LT ISZERO PUSH2 0x3675 JUMPI JUMPDEST PUSH1 0xFF SWAP1 DUP2 PUSH1 0x40 MLOAD SWAP5 PUSH2 0x2F9D DUP7 PUSH2 0x26C3 JUMP JUMPDEST PUSH4 0xFFFFFFFF TIMESTAMP AND DUP7 MSTORE PUSH2 0xFFFF DUP11 AND PUSH1 0x20 DUP8 ADD MSTORE DUP2 DUP10 AND PUSH1 0x40 DUP8 ADD MSTORE AND PUSH1 0x60 DUP6 ADD MSTORE AND PUSH1 0x80 DUP4 ADD MSTORE PUSH1 0xA0 DUP3 ADD MSTORE DUP2 SLOAD PUSH1 0x1 PUSH1 0x40 SHL DUP2 LT ISZERO PUSH2 0x26AD JUMPI DUP1 PUSH1 0x1 PUSH2 0x2FE7 SWAP3 ADD DUP5 SSTORE DUP4 PUSH2 0x2E6E JUMP JUMPDEST PUSH2 0x365F JUMPI DUP2 MLOAD DUP2 SLOAD PUSH1 0x20 DUP1 DUP6 ADD MLOAD PUSH6 0xFFFF00000000 SWAP2 SHL AND PUSH4 0xFFFFFFFF SWAP1 SWAP3 AND PUSH6 0xFFFFFFFFFFFF NOT SWAP1 SWAP2 AND OR OR DUP2 SSTORE PUSH1 0x40 DUP3 DUP2 ADD MLOAD DUP3 SLOAD PUSH1 0x60 DUP6 ADD MLOAD PUSH1 0x80 DUP7 ADD MLOAD PUSH9 0xFFFFFF000000000000 NOT SWAP1 SWAP3 AND PUSH1 0x30 SWAP4 SWAP1 SWAP4 SHL PUSH7 0xFF000000000000 AND SWAP3 SWAP1 SWAP3 OR PUSH1 0x38 SWAP3 SWAP1 SWAP3 SHL PUSH1 0xFF PUSH1 0x38 SHL AND SWAP2 SWAP1 SWAP2 OR SWAP2 SHL PUSH9 0xFF0000000000000000 AND OR DUP2 SSTORE PUSH1 0xA0 SWAP2 SWAP1 SWAP2 ADD MLOAD PUSH8 0xFFFF000000000000 NOT SWAP2 PUSH1 0x0 SWAP2 DUP3 JUMPDEST PUSH1 0x5 DUP2 LT PUSH2 0x363B JUMPI POP POP SWAP1 PUSH1 0x1 DUP1 SWAP4 SWAP3 ADD SSTORE PUSH2 0x30C9 PUSH2 0x30A8 PUSH2 0xFFFF DUP5 DUP7 ADD SLOAD PUSH1 0x20 SHR AND PUSH2 0x2EA1 JUMP JUMPDEST DUP4 DUP6 ADD SWAP1 PUSH6 0xFFFF00000000 DUP3 SLOAD SWAP2 PUSH1 0x20 SHL AND SWAP1 PUSH6 0xFFFF00000000 NOT AND OR SWAP1 SSTORE JUMP JUMPDEST DUP2 DUP4 ADD SLOAD SWAP1 PUSH8 0xFFFF000000000000 PUSH2 0x30E7 PUSH2 0xFFFF DUP5 PUSH1 0x30 SHR AND PUSH2 0x2EA1 JUMP JUMPDEST PUSH1 0x30 SHL AND SWAP2 AND OR SWAP2 ADD SSTORE PUSH1 0xB SLOAD PUSH2 0xFFFF DUP5 AND PUSH1 0x1 PUSH1 0x1 PUSH1 0x80 SHL SUB DUP3 AND ADD SWAP1 PUSH1 0x1 PUSH1 0x1 PUSH1 0x80 SHL SUB DUP3 GT PUSH2 0x2EB4 JUMPI PUSH1 0x1 PUSH1 0x1 PUSH1 0x40 SHL SUB SWAP1 PUSH8 0xFFFFFFFFFFFFFFFF PUSH1 0x80 SHL PUSH2 0x314B PUSH1 0x1 PUSH1 0x1 PUSH1 0x80 SHL SUB NOT DUP4 AND PUSH1 0x1 PUSH1 0x1 PUSH1 0x80 SHL SUB DUP7 AND OR PUSH1 0x80 SHR DUP5 AND PUSH2 0x2ECA JUMP JUMPDEST PUSH1 0x80 SHL AND SWAP2 DUP1 DUP4 PUSH1 0x1 PUSH1 0x1 PUSH1 0x80 SHL SUB DUP7 AND PUSH1 0x1 PUSH1 0x1 PUSH1 0x40 SHL SUB PUSH1 0xC0 SHL DUP6 AND OR OR PUSH1 0x80 SHR AND ISZERO PUSH2 0x2E58 JUMPI DUP3 PUSH1 0x1 PUSH1 0x1 PUSH1 0x80 SHL SUB SWAP3 DUP4 DUP7 AND SWAP1 PUSH1 0x1 PUSH1 0x1 PUSH1 0x40 SHL SUB PUSH1 0xC0 SHL AND OR OR PUSH1 0x80 SHR AND DUP2 DUP5 AND DIV AND PUSH1 0x1 PUSH1 0x1 PUSH1 0x80 SHL SUB NOT PUSH1 0xC SLOAD AND OR PUSH1 0xC SSTORE PUSH1 0x1 PUSH1 0x1 PUSH1 0x80 SHL SUB PUSH1 0x1 PUSH1 0x1 PUSH1 0x40 SHL SUB PUSH1 0xC0 SHL TIMESTAMP PUSH1 0xC0 SHL AND SWAP3 AND OR OR PUSH1 0xB SSTORE CALLER PUSH1 0x0 MSTORE PUSH1 0x7 PUSH1 0x20 MSTORE PUSH1 0x1 PUSH1 0x40 PUSH1 0x0 KECCAK256 PUSH1 0xFF DUP5 AND ISZERO DUP1 ISZERO PUSH2 0x362F JUMPI JUMPDEST DUP1 ISZERO PUSH2 0x3622 JUMPI JUMPDEST ISZERO PUSH2 0x3609 JUMPI DUP2 DUP2 ADD DUP1 SLOAD PUSH2 0xFFFF PUSH1 0x40 SHL PUSH2 0x320C PUSH2 0xFFFF DUP4 PUSH1 0x40 SHR AND PUSH2 0x2EA1 JUMP JUMPDEST PUSH1 0x40 SHL AND DUP1 PUSH2 0xFFFF PUSH1 0x40 SHL NOT DUP4 AND OR DUP1 DUP5 SSTORE PUSH2 0xFFFF DUP2 PUSH1 0x50 SHR AND PUSH2 0xFFFF DUP3 PUSH1 0x40 SHR AND GT PUSH2 0x35E1 JUMPI JUMPDEST POP POP POP POP JUMPDEST ADD SLOAD PUSH2 0xFFFF PUSH1 0x40 MLOAD SWAP2 DUP2 DUP2 PUSH1 0x40 SHR AND DUP4 MSTORE PUSH1 0x50 SHR AND PUSH1 0x20 DUP3 ADD MSTORE PUSH32 0x1E35E45CD67424D1A85F4C008126ABBDD100BCDD9F79CEF99206274D1D18F3B4 PUSH1 0x40 CALLER SWAP3 LOG2 CALLER PUSH1 0x0 MSTORE PUSH1 0xF PUSH1 0x20 MSTORE PUSH1 0x40 PUSH1 0x0 KECCAK256 SWAP2 PUSH1 0x4 DUP4 ADD DUP1 SLOAD ISZERO PUSH2 0x3596 JUMPI JUMPDEST PUSH2 0x32C1 SWAP1 PUSH2 0x32AC PUSH2 0xFFFF DUP8 SWAP6 SWAP8 SWAP7 SWAP5 SWAP7 AND DUP5 SLOAD PUSH2 0x37E2 JUMP JUMPDEST DUP1 DUP5 SSTORE PUSH2 0x32B9 DUP3 SLOAD PUSH2 0x378E JUMP JUMPDEST DUP1 SWAP3 SSTORE PUSH2 0x2E4E JUMP JUMPDEST PUSH1 0x1 DUP3 ADD SSTORE TIMESTAMP PUSH1 0x5 DUP3 ADD SSTORE CALLER PUSH1 0x0 MSTORE PUSH1 0x7 PUSH1 0x20 MSTORE PUSH2 0xFFFF PUSH1 0x1 PUSH1 0x40 PUSH1 0x0 KECCAK256 ADD DUP2 DUP2 SLOAD PUSH1 0x40 SHR AND PUSH1 0x2 DUP5 ADD SSTORE SLOAD PUSH1 0x50 SHR AND PUSH1 0x3 DUP3 ADD SSTORE PUSH1 0x0 SWAP4 JUMPDEST PUSH1 0x10 SLOAD DUP6 LT ISZERO PUSH2 0x344D JUMPI PUSH1 0x1 DUP6 ADD DUP1 DUP7 GT PUSH2 0x2EB4 JUMPI JUMPDEST PUSH1 0x10 SLOAD DUP2 LT ISZERO PUSH2 0x3434 JUMPI PUSH2 0x338C SWAP1 PUSH2 0x3327 DUP8 PUSH2 0x2835 JUMP JUMPDEST PUSH1 0x1 DUP1 PUSH1 0xA0 SHL SUB SWAP2 SLOAD SWAP1 PUSH1 0x3 SHL SHR AND PUSH1 0x0 MSTORE PUSH1 0xF PUSH1 0x20 MSTORE PUSH1 0x40 PUSH1 0x0 KECCAK256 PUSH2 0x334C DUP3 PUSH2 0x2835 JUMP JUMPDEST PUSH1 0x1 DUP1 PUSH1 0xA0 SHL SUB SWAP2 SLOAD SWAP1 PUSH1 0x3 SHL SHR AND PUSH1 0x0 MSTORE PUSH1 0xF PUSH1 0x20 MSTORE PUSH1 0x40 PUSH1 0x0 KECCAK256 PUSH1 0x1 DUP3 ADD SLOAD SWAP2 PUSH1 0x1 DUP3 ADD SLOAD SWAP2 DUP3 DUP5 EQ ISZERO PUSH1 0x0 EQ PUSH2 0x3403 JUMPI POP POP GT JUMPDEST PUSH2 0x3391 JUMPI PUSH2 0x378E JUMP JUMPDEST PUSH2 0x3310 JUMP JUMPDEST PUSH2 0x33FE PUSH2 0x339D DUP9 PUSH2 0x2835 JUMP JUMPDEST SWAP1 SLOAD PUSH1 0x3 SWAP2 SWAP1 SWAP2 SHL SHR PUSH1 0x1 PUSH1 0x1 PUSH1 0xA0 SHL SUB AND PUSH2 0x33F5 PUSH2 0x33BB DUP5 PUSH2 0x2835 JUMP JUMPDEST SWAP1 SLOAD PUSH1 0x3 SWAP2 SWAP1 SWAP2 SHL SHR PUSH1 0x1 PUSH1 0x1 PUSH1 0xA0 SHL SUB AND PUSH2 0x33D6 DUP12 PUSH2 0x2835 JUMP JUMPDEST SWAP1 SWAP2 SWAP1 DUP3 SLOAD SWAP1 PUSH1 0x3 SHL SWAP2 PUSH1 0x1 DUP1 PUSH1 0xA0 SHL SUB DUP1 SWAP2 AND DUP4 SHL SWAP3 SHL NOT AND OR SWAP1 SSTORE JUMP JUMPDEST PUSH2 0x33D6 DUP4 PUSH2 0x2835 JUMP JUMPDEST PUSH2 0x378E JUMP JUMPDEST PUSH1 0x4 DUP1 DUP4 ADD SLOAD SWAP1 DUP3 ADD SLOAD SWAP1 SWAP5 POP SWAP3 POP DUP3 DUP5 EQ PUSH2 0x3421 JUMPI POP POP GT PUSH2 0x3383 JUMP JUMPDEST PUSH1 0x3 SWAP3 POP DUP3 SWAP2 SWAP4 POP ADD SLOAD SWAP2 ADD SLOAD LT PUSH2 0x3383 JUMP JUMPDEST POP SWAP2 SWAP4 PUSH2 0x3443 SWAP1 SWAP4 SWAP2 SWAP4 PUSH2 0x378E JUMP JUMPDEST SWAP4 SWAP2 SWAP3 SWAP1 SWAP3 PUSH2 0x32FA JUMP JUMPDEST SWAP3 SWAP2 SWAP1 SWAP4 POP PUSH1 0x0 JUMPDEST PUSH1 0x10 SLOAD DUP2 LT ISZERO PUSH2 0x34A2 JUMPI PUSH1 0x1 DUP2 ADD SWAP1 DUP2 DUP2 GT PUSH2 0x2EB4 JUMPI PUSH2 0x349D SWAP2 PUSH2 0x3478 DUP3 PUSH2 0x2835 JUMP JUMPDEST PUSH1 0x1 DUP1 PUSH1 0xA0 SHL SUB SWAP2 SLOAD SWAP1 PUSH1 0x3 SHL SHR AND PUSH1 0x0 MSTORE PUSH1 0xF PUSH1 0x20 MSTORE PUSH1 0x6 PUSH1 0x40 PUSH1 0x0 KECCAK256 ADD SSTORE PUSH2 0x378E JUMP JUMPDEST PUSH2 0x3455 JUMP JUMPDEST POP SWAP1 SWAP2 SWAP3 PUSH1 0x1 PUSH1 0x6 DUP3 ADD SLOAD SWAP2 ADD SLOAD PUSH1 0x40 MLOAD SWAP2 DUP3 MSTORE PUSH1 0x20 DUP3 ADD MSTORE PUSH32 0xA11B2B4799AF248F05608433E2085B8E46CEBE8D9A84A6E4B9CBA46CF70D5683 PUSH1 0x40 CALLER SWAP3 LOG2 GAS SWAP1 PUSH1 0x50 DUP3 MUL SWAP2 DUP1 DUP4 DIV PUSH1 0x50 EQ SWAP1 ISZERO OR ISZERO PUSH2 0x2EB4 JUMPI PUSH1 0x64 PUSH2 0xFFFF SWAP3 DIV CALLER PUSH1 0x0 MSTORE PUSH1 0xA PUSH1 0x20 MSTORE PUSH1 0x40 PUSH1 0x0 KECCAK256 PUSH2 0x3516 DUP3 DUP3 SLOAD PUSH2 0x37E2 JUMP JUMPDEST SWAP1 SSTORE PUSH2 0x3524 DUP2 PUSH1 0x1B SLOAD PUSH2 0x37E2 JUMP JUMPDEST PUSH1 0x1B SSTORE PUSH1 0x40 MLOAD SWAP1 DUP2 MSTORE PUSH32 0xDA80A58DC472C12AB62365BA335D011F59D72427A4ACBA7720AEA0BD47002001 PUSH1 0x20 CALLER SWAP3 LOG2 PUSH1 0xFF PUSH1 0x40 MLOAD SWAP4 AND DUP4 MSTORE AND PUSH1 0x20 DUP3 ADD MSTORE PUSH4 0xFFFFFFFF TIMESTAMP AND PUSH1 0x40 DUP3 ADD MSTORE PUSH32 0x1B1BD41983CF5DAD74EAAF9B9AD475EC0F2F3F3487E7247DE2BCE1234DAFB2A7 PUSH1 0x60 CALLER SWAP3 LOG2 JUMP JUMPDEST PUSH1 0x10 SLOAD SWAP1 PUSH1 0x1 PUSH1 0x40 SHL DUP3 LT ISZERO PUSH2 0x26AD JUMPI PUSH2 0x35DA PUSH2 0x35BC DUP4 PUSH1 0x1 PUSH2 0x32C1 SWAP6 ADD PUSH1 0x10 SSTORE PUSH2 0x2835 JUMP JUMPDEST DUP2 SLOAD PUSH1 0x1 PUSH1 0x1 PUSH1 0xA0 SHL SUB PUSH1 0x3 SWAP3 SWAP1 SWAP3 SHL SWAP2 DUP3 SHL NOT AND CALLER SWAP1 SWAP2 SHL OR SWAP1 SSTORE JUMP JUMPDEST SWAP1 POP PUSH2 0x3294 JUMP JUMPDEST PUSH2 0xFFFF PUSH1 0x50 SHL SWAP1 PUSH1 0x10 SHL AND SWAP2 PUSH12 0xFFFFFFFF0000000000000000 NOT AND OR OR SWAP1 SSTORE CODESIZE DUP1 DUP1 DUP1 PUSH2 0x3234 JUMP JUMPDEST DUP1 DUP3 ADD DUP1 SLOAD PUSH10 0xFFFF0000000000000000 NOT AND SWAP1 SSTORE PUSH2 0x3239 JUMP JUMPDEST POP PUSH1 0x7 PUSH1 0xFF DUP6 AND EQ PUSH2 0x31EC JUMP JUMPDEST POP DUP2 PUSH1 0xFF DUP6 AND EQ PUSH2 0x31E5 JUMP JUMPDEST SWAP1 SWAP3 PUSH1 0x20 PUSH1 0x1 SWAP2 PUSH1 0xFF DUP7 MLOAD AND SWAP1 PUSH1 0xFF DUP6 PUSH1 0x3 SHL SWAP3 DUP4 SHL SWAP3 SHL NOT AND OR SWAP5 ADD SWAP2 ADD PUSH2 0x3080 JUMP JUMPDEST PUSH4 0x4E487B71 PUSH1 0xE0 SHL PUSH1 0x0 MSTORE PUSH1 0x0 PUSH1 0x4 MSTORE PUSH1 0x24 PUSH1 0x0 REVERT JUMPDEST PUSH7 0x38D7EA4C68000 CALLVALUE LT ISZERO PUSH2 0x2F8C JUMPI PUSH1 0x40 MLOAD PUSH3 0x461BCD PUSH1 0xE5 SHL DUP2 MSTORE PUSH1 0x20 PUSH1 0x4 DUP3 ADD MSTORE PUSH1 0x1B PUSH1 0x24 DUP3 ADD MSTORE PUSH32 0x5072656D69756D20656E74727920636F73742072657175697265640000000000 PUSH1 0x44 DUP3 ADD MSTORE PUSH1 0x64 SWAP1 REVERT JUMPDEST PUSH6 0xFFFFFFFFFFFF NOT AND OR PUSH1 0x1 DUP6 ADD SSTORE CODESIZE DUP1 PUSH2 0x2F75 JUMP JUMPDEST PUSH1 0x1 PUSH1 0x1 PUSH1 0xA0 SHL SUB NOT AND CALLER OR SWAP1 SSTORE PUSH1 0x1 DUP7 ADD DUP1 SLOAD PUSH2 0xFFFF PUSH1 0x60 SHL NOT AND PUSH1 0x60 SWAP3 SWAP1 SWAP3 SHL PUSH2 0xFFFF PUSH1 0x60 SHL AND SWAP2 SWAP1 SWAP2 OR SWAP1 SSTORE CODESIZE DUP1 DUP1 PUSH2 0x2F5F JUMP JUMPDEST PUSH1 0x40 MLOAD PUSH3 0x461BCD PUSH1 0xE5 SHL DUP2 MSTORE PUSH1 0x20 PUSH1 0x4 DUP3 ADD MSTORE PUSH1 0x12 PUSH1 0x24 DUP3 ADD MSTORE PUSH18 0x476170206D757374206265203C3D2031303 PUSH1 0x74 SHL PUSH1 0x44 DUP3 ADD MSTORE PUSH1 0x64 SWAP1 REVERT JUMPDEST PUSH1 0x40 MLOAD PUSH3 0x461BCD PUSH1 0xE5 SHL DUP2 MSTORE PUSH1 0x20 PUSH1 0x4 DUP3 ADD MSTORE PUSH1 0x16 PUSH1 0x24 DUP3 ADD MSTORE PUSH22 0x456E74726F7079206D757374206265203C3D2031303 PUSH1 0x54 SHL PUSH1 0x44 DUP3 ADD MSTORE PUSH1 0x64 SWAP1 REVERT JUMPDEST PUSH1 0x0 NOT DUP2 EQ PUSH2 0x2EB4 JUMPI PUSH1 0x1 ADD SWAP1 JUMP JUMPDEST SWAP2 SWAP1 DUP3 SUB SWAP2 DUP3 GT PUSH2 0x2EB4 JUMPI JUMP JUMPDEST PUSH1 0xD SLOAD PUSH3 0x2A300 PUSH2 0x37C7 PUSH1 0x1 PUSH1 0x1 PUSH1 0x40 SHL SUB DUP4 PUSH1 0x80 SHR AND TIMESTAMP PUSH2 0x379D JUMP JUMPDEST GT PUSH2 0x37D8 JUMPI PUSH1 0x1 PUSH1 0x1 PUSH1 0x80 SHL SUB AND SWAP1 JUMP JUMPDEST POP PUSH1 0xE SLOAD PUSH1 0x80 SHR SWAP1 JUMP JUMPDEST SWAP2 SWAP1 DUP3 ADD DUP1 SWAP3 GT PUSH2 0x2EB4 JUMPI JUMP JUMPDEST PUSH1 0x1 PUSH1 0x1 PUSH1 0x40 SHL SUB DUP2 GT PUSH2 0x26AD JUMPI PUSH1 0x5 SHL PUSH1 0x20 ADD SWAP1 JUMP JUMPDEST SWAP1 PUSH2 0x3810 DUP3 PUSH2 0x37EF JUMP JUMPDEST PUSH2 0x381D PUSH1 0x40 MLOAD SWAP2 DUP3 PUSH2 0x2714 JUMP JUMPDEST DUP3 DUP2 MSTORE DUP1 SWAP3 PUSH2 0x382E PUSH1 0x1F NOT SWAP2 PUSH2 0x37EF JUMP JUMPDEST ADD SWAP1 PUSH1 0x20 CALLDATASIZE SWAP2 ADD CALLDATACOPY JUMP JUMPDEST DUP1 MLOAD DUP3 LT ISZERO PUSH2 0x286C JUMPI PUSH1 0x20 SWAP2 PUSH1 0x5 SHL ADD ADD SWAP1 JUMP JUMPDEST PUSH1 0xFF AND DUP1 ISZERO PUSH2 0x39C8 JUMPI PUSH1 0x1 DUP2 EQ PUSH2 0x39A8 JUMPI PUSH1 0x2 DUP2 EQ PUSH2 0x3988 JUMPI PUSH1 0x3 DUP2 EQ PUSH2 0x3967 JUMPI PUSH1 0x4 DUP2 EQ PUSH2 0x3945 JUMPI PUSH1 0x5 DUP2 EQ PUSH2 0x3921 JUMPI PUSH1 0x6 DUP2 EQ PUSH2 0x38FF JUMPI PUSH1 0x7 DUP2 EQ PUSH2 0x38DA JUMPI PUSH1 0x8 EQ PUSH2 0x38B7 JUMPI PUSH1 0x40 MLOAD PUSH2 0x38A0 DUP2 PUSH2 0x26F9 JUMP JUMPDEST PUSH1 0x7 DUP2 MSTORE PUSH7 0x3AB735B737BBB7 PUSH1 0xC9 SHL PUSH1 0x20 DUP3 ADD MSTORE SWAP1 JUMP JUMPDEST PUSH1 0x40 MLOAD PUSH2 0x38C3 DUP2 PUSH2 0x26F9 JUMP JUMPDEST PUSH1 0x7 DUP2 MSTORE PUSH7 0x1B995D5D1C985B PUSH1 0xCA SHL PUSH1 0x20 DUP3 ADD MSTORE SWAP1 JUMP JUMPDEST POP PUSH1 0x40 MLOAD PUSH2 0x38E7 DUP2 PUSH2 0x26F9 JUMP JUMPDEST PUSH1 0x8 DUP2 MSTORE PUSH8 0x7375727072697365 PUSH1 0xC0 SHL PUSH1 0x20 DUP3 ADD MSTORE SWAP1 JUMP JUMPDEST POP PUSH1 0x40 MLOAD PUSH2 0x390C DUP2 PUSH2 0x26F9 JUMP JUMPDEST PUSH1 0x5 DUP2 MSTORE PUSH5 0x7368616D65 PUSH1 0xD8 SHL PUSH1 0x20 DUP3 ADD MSTORE SWAP1 JUMP JUMPDEST POP PUSH1 0x40 MLOAD PUSH2 0x392E DUP2 PUSH2 0x26F9 JUMP JUMPDEST PUSH1 0x7 DUP2 MSTORE PUSH7 0x191A5CD9DD5CDD PUSH1 0xCA SHL PUSH1 0x20 DUP3 ADD MSTORE SWAP1 JUMP JUMPDEST POP PUSH1 0x40 MLOAD PUSH2 0x3952 DUP2 PUSH2 0x26F9 JUMP JUMPDEST PUSH1 0x5 DUP2 MSTORE PUSH5 0x30B733B2B9 PUSH1 0xD9 SHL PUSH1 0x20 DUP3 ADD MSTORE SWAP1 JUMP JUMPDEST POP PUSH1 0x40 MLOAD PUSH2 0x3974 DUP2 PUSH2 0x26F9 JUMP JUMPDEST PUSH1 0x4 DUP2 MSTORE PUSH4 0x3332B0B9 PUSH1 0xE1 SHL PUSH1 0x20 DUP3 ADD MSTORE SWAP1 JUMP JUMPDEST POP PUSH1 0x40 MLOAD PUSH2 0x3995 DUP2 PUSH2 0x26F9 JUMP JUMPDEST PUSH1 0x3 DUP2 MSTORE PUSH3 0x1CD859 PUSH1 0xEA SHL PUSH1 0x20 DUP3 ADD MSTORE SWAP1 JUMP JUMPDEST POP PUSH1 0x40 MLOAD PUSH2 0x39B5 DUP2 PUSH2 0x26F9 JUMP JUMPDEST PUSH1 0x3 DUP2 MSTORE PUSH3 0x6A6F79 PUSH1 0xE8 SHL PUSH1 0x20 DUP3 ADD MSTORE SWAP1 JUMP JUMPDEST POP PUSH1 0x40 MLOAD PUSH2 0x39D5 DUP2 PUSH2 0x26F9 JUMP JUMPDEST PUSH1 0x5 DUP2 MSTORE PUSH5 0x6861707079 PUSH1 0xD8 SHL PUSH1 0x20 DUP3 ADD MSTORE SWAP1 JUMP JUMPDEST PUSH1 0x40 SWAP1 DUP2 MLOAD PUSH1 0x20 SWAP2 DUP3 DUP3 ADD DUP2 MLOAD SWAP3 PUSH2 0x3A19 DUP6 DUP3 DUP2 DUP7 ADD SWAP7 PUSH2 0x3A0C DUP2 DUP8 DUP11 PUSH2 0x25D7 JUMP JUMPDEST DUP2 ADD SUB DUP1 DUP5 MSTORE ADD DUP3 PUSH2 0x2714 JUMP JUMPDEST MLOAD SWAP1 KECCAK256 DUP5 MLOAD DUP5 DUP2 ADD SWAP1 PUSH5 0x6861707079 PUSH1 0xD8 SHL DUP3 MSTORE PUSH1 0x5 DUP2 MSTORE PUSH2 0x3A3A DUP2 PUSH2 0x26F9 JUMP JUMPDEST MLOAD SWAP1 KECCAK256 EQ PUSH2 0x3C97 JUMPI DUP4 MLOAD DUP4 DUP2 ADD SWAP1 PUSH2 0x3A5A DUP6 DUP3 DUP6 MLOAD PUSH2 0x3A0C DUP2 DUP8 DUP11 PUSH2 0x25D7 JUMP JUMPDEST MLOAD SWAP1 KECCAK256 DUP5 MLOAD DUP5 DUP2 ADD SWAP1 PUSH3 0x6A6F79 PUSH1 0xE8 SHL DUP3 MSTORE PUSH1 0x3 DUP2 MSTORE PUSH2 0x3A79 DUP2 PUSH2 0x26F9 JUMP JUMPDEST MLOAD SWAP1 KECCAK256 EQ PUSH2 0x3C8E JUMPI DUP4 MLOAD DUP4 DUP2 ADD SWAP1 PUSH2 0x3A99 DUP6 DUP3 DUP6 MLOAD PUSH2 0x3A0C DUP2 DUP8 DUP11 PUSH2 0x25D7 JUMP JUMPDEST MLOAD SWAP1 KECCAK256 DUP5 MLOAD DUP5 DUP2 ADD SWAP1 PUSH3 0x1CD859 PUSH1 0xEA SHL DUP3 MSTORE PUSH1 0x3 DUP2 MSTORE PUSH2 0x3AB8 DUP2 PUSH2 0x26F9 JUMP JUMPDEST MLOAD SWAP1 KECCAK256 EQ PUSH2 0x3C85 JUMPI DUP4 MLOAD DUP4 DUP2 ADD SWAP1 PUSH2 0x3AD8 DUP6 DUP3 DUP6 MLOAD PUSH2 0x3A0C DUP2 DUP8 DUP11 PUSH2 0x25D7 JUMP JUMPDEST MLOAD SWAP1 KECCAK256 DUP5 MLOAD DUP5 DUP2 ADD SWAP1 PUSH4 0x3332B0B9 PUSH1 0xE1 SHL DUP3 MSTORE PUSH1 0x4 DUP2 MSTORE PUSH2 0x3AF8 DUP2 PUSH2 0x26F9 JUMP JUMPDEST MLOAD SWAP1 KECCAK256 EQ PUSH2 0x3C7C JUMPI DUP4 MLOAD DUP4 DUP2 ADD SWAP1 PUSH2 0x3B18 DUP6 DUP3 DUP6 MLOAD PUSH2 0x3A0C DUP2 DUP8 DUP11 PUSH2 0x25D7 JUMP JUMPDEST MLOAD SWAP1 KECCAK256 DUP5 MLOAD DUP5 DUP2 ADD SWAP1 PUSH5 0x30B733B2B9 PUSH1 0xD9 SHL DUP3 MSTORE PUSH1 0x5 DUP2 MSTORE PUSH2 0x3B39 DUP2 PUSH2 0x26F9 JUMP JUMPDEST MLOAD SWAP1 KECCAK256 EQ PUSH2 0x3C73 JUMPI DUP4 MLOAD DUP4 DUP2 ADD SWAP1 PUSH2 0x3B59 DUP6 DUP3 DUP6 MLOAD PUSH2 0x3A0C DUP2 DUP8 DUP11 PUSH2 0x25D7 JUMP JUMPDEST MLOAD SWAP1 KECCAK256 DUP5 MLOAD DUP5 DUP2 ADD SWAP1 PUSH7 0x191A5CD9DD5CDD PUSH1 0xCA SHL DUP3 MSTORE PUSH1 0x7 DUP2 MSTORE PUSH2 0x3B7C DUP2 PUSH2 0x26F9 JUMP JUMPDEST MLOAD SWAP1 KECCAK256 EQ PUSH2 0x3C6A JUMPI DUP4 MLOAD DUP4 DUP2 ADD SWAP1 PUSH2 0x3B9C DUP6 DUP3 DUP6 MLOAD PUSH2 0x3A0C DUP2 DUP8 DUP11 PUSH2 0x25D7 JUMP JUMPDEST MLOAD SWAP1 KECCAK256 DUP5 MLOAD DUP5 DUP2 ADD SWAP1 PUSH5 0x7368616D65 PUSH1 0xD8 SHL DUP3 MSTORE PUSH1 0x5 DUP2 MSTORE PUSH2 0x3BBD DUP2 PUSH2 0x26F9 JUMP JUMPDEST MLOAD SWAP1 KECCAK256 EQ PUSH2 0x3C61 JUMPI DUP4 MLOAD DUP4 DUP2 ADD SWAP1 PUSH2 0x3BDD DUP6 DUP3 DUP6 MLOAD PUSH2 0x3A0C DUP2 DUP8 DUP11 PUSH2 0x25D7 JUMP JUMPDEST MLOAD SWAP1 KECCAK256 DUP5 MLOAD DUP5 DUP2 ADD SWAP1 PUSH8 0x7375727072697365 PUSH1 0xC0 SHL DUP3 MSTORE PUSH1 0x8 DUP2 MSTORE PUSH2 0x3C01 DUP2 PUSH2 0x26F9 JUMP JUMPDEST MLOAD SWAP1 KECCAK256 EQ PUSH2 0x3C58 JUMPI PUSH2 0x3C23 DUP4 DUP6 MLOAD DUP1 SWAP4 PUSH2 0x3A0C DUP4 DUP4 ADD SWAP7 DUP8 SWAP3 MLOAD SWAP3 DUP4 SWAP2 PUSH2 0x25D7 JUMP JUMPDEST MLOAD SWAP1 KECCAK256 SWAP2 MLOAD SWAP1 DUP2 ADD SWAP1 PUSH7 0x1B995D5D1C985B PUSH1 0xCA SHL DUP3 MSTORE PUSH1 0x7 DUP2 MSTORE PUSH2 0x3C46 DUP2 PUSH2 0x26F9 JUMP JUMPDEST MLOAD SWAP1 KECCAK256 EQ PUSH2 0x3C53 JUMPI PUSH1 0x8 SWAP1 JUMP JUMPDEST PUSH1 0x8 SWAP1 JUMP JUMPDEST POP POP POP POP PUSH1 0x7 SWAP1 JUMP JUMPDEST POP POP POP POP PUSH1 0x6 SWAP1 JUMP JUMPDEST POP POP POP POP PUSH1 0x5 SWAP1 JUMP JUMPDEST POP POP POP POP PUSH1 0x4 SWAP1 JUMP JUMPDEST POP POP POP POP PUSH1 0x3 SWAP1 JUMP JUMPDEST POP POP POP POP PUSH1 0x2 SWAP1 JUMP JUMPDEST POP POP POP POP PUSH1 0x1 SWAP1 JUMP JUMPDEST POP POP POP POP PUSH1 0x0 SWAP1 JUMP JUMPDEST DUP1 MLOAD ISZERO PUSH2 0x3DA4 JUMPI DUP1 MLOAD PUSH1 0x2 SWAP2 DUP3 DUP3 ADD DUP1 SWAP3 GT PUSH2 0x2EB4 JUMPI PUSH1 0x3 SWAP2 DUP3 SWAP1 DIV DUP1 DUP5 SHL SWAP5 SWAP1 PUSH1 0x1 PUSH1 0x1 PUSH1 0xFE SHL SUB DUP2 AND SUB PUSH2 0x2EB4 JUMPI SWAP3 PUSH2 0x3CF3 PUSH2 0x3CDD DUP7 PUSH2 0x2781 JUMP JUMPDEST SWAP6 PUSH2 0x3CEB PUSH1 0x40 MLOAD SWAP8 DUP9 PUSH2 0x2714 JUMP JUMPDEST DUP1 DUP8 MSTORE PUSH2 0x2781 JUMP JUMPDEST PUSH1 0x20 DUP7 ADD SWAP1 PUSH1 0x1F NOT ADD CALLDATASIZE DUP3 CALLDATACOPY SWAP4 DUP3 SWAP2 DUP4 MLOAD DUP5 ADD SWAP1 PUSH1 0x20 DUP3 ADD SWAP3 DUP4 MLOAD SWAP5 PUSH1 0x0 DUP6 MSTORE JUMPDEST DUP4 DUP2 LT PUSH2 0x3D53 JUMPI POP POP POP POP MSTORE MLOAD MOD DUP1 PUSH1 0x1 EQ PUSH2 0x3D40 JUMPI PUSH1 0x2 EQ PUSH2 0x3D35 JUMPI POP SWAP1 JUMP JUMPDEST PUSH1 0x3D SWAP1 PUSH1 0x0 NOT ADD MSTORE8 SWAP1 JUMP JUMPDEST POP PUSH1 0x3D SWAP1 DUP2 PUSH1 0x0 NOT DUP3 ADD MSTORE8 PUSH1 0x1 NOT ADD MSTORE8 SWAP1 JUMP JUMPDEST DUP8 PUSH1 0x4 SWAP2 SWAP10 SWAP3 SWAP4 SWAP5 SWAP10 ADD SWAP2 DUP3 MLOAD PUSH1 0x1 SWAP1 PUSH1 0x3F SWAP1 DUP3 DUP3 DUP3 PUSH1 0x12 SHR AND DUP9 ADD ADD MLOAD DUP5 MSTORE8 DUP3 DUP3 DUP3 PUSH1 0xC SHR AND DUP9 ADD ADD MLOAD DUP4 DUP6 ADD MSTORE8 DUP3 DUP3 DUP3 PUSH1 0x6 SHR AND DUP9 ADD ADD MLOAD DUP9 DUP6 ADD MSTORE8 AND DUP6 ADD ADD MLOAD DUP10 DUP3 ADD MSTORE8 ADD SWAP8 SWAP3 SWAP2 SWAP1 PUSH2 0x3D14 JUMP JUMPDEST POP POP PUSH1 0x40 MLOAD PUSH2 0x3DB2 DUP2 PUSH2 0x26DE JUMP JUMPDEST PUSH1 0x0 DUP2 MSTORE SWAP1 JUMP JUMPDEST DUP1 ISZERO PUSH2 0x3E60 JUMPI PUSH1 0x0 DUP2 DUP1 JUMPDEST PUSH2 0x3E4C JUMPI POP PUSH2 0x3DD2 DUP2 PUSH2 0x2781 JUMP JUMPDEST SWAP1 PUSH2 0x3DE0 PUSH1 0x40 MLOAD SWAP3 DUP4 PUSH2 0x2714 JUMP JUMPDEST DUP1 DUP3 MSTORE PUSH1 0x1F NOT PUSH2 0x3DEF DUP3 PUSH2 0x2781 JUMP JUMPDEST ADD CALLDATASIZE PUSH1 0x20 DUP5 ADD CALLDATACOPY JUMPDEST DUP1 SWAP3 DUP1 ISZERO PUSH2 0x3E45 JUMPI PUSH1 0x0 NOT DUP3 ADD SWAP2 DUP3 GT PUSH2 0x2EB4 JUMPI DUP2 SWAP4 PUSH1 0xA SWAP3 PUSH1 0x30 SWAP1 DUP5 DUP5 MOD DUP3 ADD DUP1 SWAP3 GT PUSH2 0x2EB4 JUMPI DUP6 MLOAD GT ISZERO PUSH2 0x286C JUMPI PUSH1 0xF8 SHL PUSH1 0x1 PUSH1 0x1 PUSH1 0xF8 SHL SUB NOT AND PUSH1 0x0 BYTE SWAP1 DUP5 ADD PUSH1 0x1F ADD MSTORE8 DIV SWAP2 PUSH2 0x3DF7 JUMP JUMPDEST POP POP SWAP1 POP SWAP1 JUMP JUMPDEST SWAP1 PUSH2 0x3E58 PUSH1 0xA SWAP2 PUSH2 0x378E JUMP JUMPDEST SWAP2 DIV DUP1 PUSH2 0x3DC4 JUMP JUMPDEST POP PUSH1 0x40 MLOAD PUSH2 0x3E6D DUP2 PUSH2 0x26F9 JUMP JUMPDEST PUSH1 0x1 DUP2 MSTORE PUSH1 0x3 PUSH1 0xFC SHL PUSH1 0x20 DUP3 ADD MSTORE SWAP1 JUMP INVALID LOG2 PUSH5 0x6970667358 0x22 SLT KECCAK256 SLOAD CALLCODE PUSH27 0x4B7E5882789A4261CD6F3B4E41C867B6FF0C16BF7949B67282CC50 PUSH20 0xDF64736F6C634300081400330000000000000000 "},"methodIdentifiers":{"FREE_ENTRIES()":"db6b2a56","GASBACK_PERCENTAGE()":"a88a68d5","MAX_PER_WALLET()":"0f2cdd6c","MAX_SUPPLY()":"32cb6b0c","PREMIUM_COST()":"0a137ffe","approve(address,uint256)":"095ea7b3","artFeatures()":"174fab8f","balanceOf(address)":"70a08231","claimGasback()":"b738f87e","commStats()":"4c8bec8c","currentArt()":"610359d9","emergencyPause()":"51858e27","getApproved(uint256)":"081812fc","getArtHTML()":"dc41accc","getArtVersion()":"77cdd5c5","getCommunityAverageMood()":"3a6dc2b7","getCommunityStats()":"c075e3dd","getContractBalance()":"6f9fb98a","getCurrentMintPrice()":"e82ded21","getEmotionCode(string)":"1fdf0150","getEmotionString(uint8)":"8be523af","getMoodTrend(address,uint256)":"68ef5519","getStreakFeatures(address)":"86865924","getTopUsers(uint256)":"de75aa6c","getUserMoodHistory(address)":"f78dc243","getUserRanking(address)":"3d6931e8","isApprovedForAll(address,address)":"e985e9c5","mintFlowerNFT(uint8,uint16,uint8[5],uint8,uint8)":"1ad75957","name()":"06fdde03","nftOwner(uint256)":"fd731837","owner()":"8da5cb5b","ownerOf(uint256)":"6352211e","paused()":"5c975abb","pricing()":"7ce91411","rankedUsers(uint256)":"40f21be1","recordMood(uint8,uint16,uint8[5],uint8,uint8,uint16)":"b2b4b8c3","renounceOwnership()":"715018a6","safeTransferFrom(address,address,uint256)":"42842e0e","safeTransferFrom(address,address,uint256,bytes)":"b88d4fde","setApprovalForAll(address,bool)":"a22cb465","supportsInterface(bytes4)":"01ffc9a7","symbol()":"95d89b41","tokenURI(uint256)":"c87b56dd","totalGasbackDistributed()":"9d56e047","transferFrom(address,address,uint256)":"23b872dd","transferOwnership(address)":"f2fde38b","unpause()":"3f4ba83a","updateArtFeatures(bool,bool,bool,bool,bool,bool,bool,bool,uint256,uint256,uint256,uint256)":"28a15819","updateArtVersion(string,string,string)":"66fb782d","userGasbackBalance(address)":"d96b11f8","userHist(address)":"6f2e178d","userMintCount(address)":"3950891f","userRankings(address)":"ea2639d4","withdraw()":"3ccfd60b"}}}}}